:020000040800F2
:1000000060370020CD0200083F4B0008FB4100088C
:100010003D4B0008D3220008F957000800000000FB
:100020000000000000000000000000003502000891
:10003000D52200080000000079020008955200084F
:10004000E7020008E7020008E7020008E7020008EC
:10005000E7020008E7020008E7020008E7020008DC
:10006000E7020008E7020008E7020008E7020008CC
:10007000E7020008E7020008E7020008E7020008BC
:10008000E7020008E7020008E7020008E7020008AC
:10009000E7020008E7020008E7020008E70200089C
:1000A000E7020008E7020008E7020008E70200088C
:1000B000E702000811530008E7020008E702000801
:1000C000E7020008E7020008E7020008E70200086C
:1000D000E7020008E1570008ED570008E7020008B2
:1000E000E7020008E7020008E702000800F002F853
:1000F00000F090F80AA090E8000C82448344AAF132
:100100000107DA4501D100F085F8AFF2090EBAE82F
:100110000F0013F0010F18BFFB1A43F0010318473B
:10012000A4820000C4820000103A24BF78C878C1BD
:10013000FAD8520724BF30C830C144BF04680C60ED
:10014000704700000023002400250026103A28BF35
:1001500078C1FBD8520728BF30C148BF0B60704739
:100160006E2900F05B83702900F0A584662907F0F2
:100170008187652907F07E87672907F07B876129DA
:1001800007F07A8703681B0A28BF41F080016929BC
:1001900000F00883642900F00583752900F00283CC
:1001A0006F2900F03284782900F07184E92900F089
:1001B000CD83E42900F0CA83F52900F0C783EF2935
:1001C00000F02F84F82900F070840368DB0928BF51
:1001D00041F08001632901F0BF81732901F0C481DE
:1001E000E32901F0CF81F32901F0D4810020704789
:1001F0001FB501F0DBFB04000020002107F024FF05
:10020000401C60600020002107F008FFE0601FBD77
:1002100010B510BD01F09CFB1146FFF7E9FF05F09A
:10022000C9FE01F079FC03B4FFF7F2FF03BC01F053
:1002300081FC0000224B19680868B0E8F00F80F3D9
:100240000988BFF36F8F4FF0000080F311884EF0E4
:100250000D0E70470000000006480068006880F33B
:10026000088862B661B6BFF34F8FBFF36F8F00DFB0
:1002700000BF00BF08ED00E0EFF30980BFF36F8F10
:100280000F4B1A6820E9F00F106008B54FF05000CE
:1002900080F31188BFF34F8FBFF36F8F07F022F801
:1002A0004FF0000080F31188BDE808401968086825
:1002B000B0E8F00F80F30988BFF36F8F704700BF7D
:1002C00044000020EFF30580704700000948804794
:1002D00009480047FEE7FEE7FEE7FEE7FEE7FEE728
:1002E000FEE7FEE7FEE7FEE704480549054A064B40
:1002F000704700000D530008ED0000086031002039
:100300006037002060330020603300207CB51D463C
:1003100016460C00009001D02044401E074B7B4441
:100320002A4669460190304600F091FA05461CB114
:100330000020694600F09EFA28467CBD5D0500005D
:100340000FB400B58DB010A9099000910B904FF03B
:10035000FF300A9000200C9006487844069006482A
:1003600078446A4607900F9909A800F087FC0DB001
:100370005DF814FB3F090000570900002DE9FF5FFD
:100380001D464FF0FF3B91464FF000085F46D5E910
:100390000146A96901987F1C8847296A82468847D7
:1003A0000028F6D1BAF1FF3F0CD0002E24F4C0642F
:1003B00019DD600614D5BAF12B0F09D0BAF12D0F53
:1003C0000ED103E0584604B0BDE8F09F44F48064C9
:1003D000A96901987F1C8847761E8246002E02DD9F
:1003E000BAF1300F03D0B9F1000F26D032E0A9697D
:1003F000761E01987F1C44F400748847002E8246C4
:1004000005DDBAF1780F06D0BAF1580F03D0B9F173
:10041000000F10D01EE0B9F1000F02D0B9F1100F9B
:1004200018D1A969761E01987F1C24F400748847AE
:100430008246102002E0082000E00A20814609E000
:10044000A96908FB0908761E01987F1C44F4007412
:1004500088478246002E05DD4946504600F0FAFBEB
:100460000028EDDAE96901988847A00502D46FF009
:100470000100A8E7E00725D1600613D5600502D585
:10048000C8F1000000E0404629680A1D2A6009689A
:10049000220501D5087015E0220701D5088011E07A
:1004A00008600FE02868011D29600068210502D559
:1004B00080F8008006E0210702D5A0F8008001E066
:1004C000C0F8008038467EE7032A40F2308010F002
:1004D000030C00F0158011F8013BBCF1020F6244DF
:1004E00098BF11F801CB00F8013B38BF11F8013B70
:1004F000A2F1040298BF00F801CB38BF00F8013B1D
:1005000011F0030300F02580083AC0F0088051F88C
:10051000043B083A51F804CBA0E80810F5E7121D97
:100520005CBF51F8043B40F8043BAFF30080D207B6
:1005300024BF11F8013B11F801CB48BF11F8012B82
:1005400024BF00F8013B00F801CB48BF00F8012BA5
:10055000704710B5203AC0F00B80B1E81850203A2F
:10056000A0E81850B1E81850A0E81850BFF4F5AF53
:100570005FEA027C24BFB1E81850A0E8185044BFDD
:1005800018C918C0BDE810405FEA827C24BF51F84A
:10059000043B40F8043B08BF7047D20728BF31F83E
:1005A000023B48BF11F8012B28BF20F8023B48BF8F
:1005B00000F8012B704702F0FF0343EA032242EAEE
:1005C000024200F002B84FF000020429C0F012808D
:1005D00010F0030C00F01B80CCF1040CBCF1020FF6
:1005E00018BF00F8012BA8BF20F8022BA1EB0C01CB
:1005F00000F00DB85FEAC17C24BF00F8012B00F8C1
:10060000012B48BF00F8012B70474FF0000200B5E6
:10061000134694469646203922BFA0E80C50A0E825
:100620000C50B1F12001BFF4F7AF090728BFA0E8D3
:100630000C5048BF0CC05DF804EB890028BF40F89F
:10064000042B08BF704748BF20F8022B11F0804FE1
:1006500018BF00F8012B70474FF0013C50F8042BF5
:1006600051F8043B9A4221D1A2EB0C03934313EAC5
:10067000CC1317D150F8042B51F8043B9A4215D1F2
:10068000A2EB0C03934313EACC130BD150F8042BC9
:1006900051F8043B9A4209D1A2EB0C03934313EAAD
:1006A000CC13DBD04FF00000704700BFD01A01BA66
:1006B000B1FA81F101F0180122FA01F0CB40C1F149
:1006C0002001DBB2C0B2C01A2CFA01F3D11A914357
:1006D00011EAC311E6D1704770477047704770B593
:1006E000044685690068C10601D5302600E0202651
:1006F000C00707D070BDD4E9012130469047206A79
:10070000401C20626D1EF6D570BD70B5044685692B
:100710000078C00707D170BDD4E90121202090479F
:10072000206A401C20626D1EF6D570BD09684A051E
:1007300001D540B27047C905FCD500B270470968C1
:100740004A0501D5C0B27047C905FCD580B27047D3
:1007500070B50C460546012A05D02878800600D5DC
:10076000EA69002302E0012305E05B1C934202D208
:10077000E05C0028F9D1A869E618C01AA861286AC7
:10078000184428622846FFF7AAFF04E0D5E90121B2
:1007900014F8010B9047B442F8D32846FFF7B5FF91
:1007A00070BD00002DE9F04106460024106875294F
:1007B000314616A510D0FFF7B9FF002802DA4042F3
:1007C00013A507E031688A0701D512A502E04907A1
:1007D00004D511A5012401E0FFF7B1FF00210A2291
:1007E00006F1240709E0B0FBF2FCB0FBF2F302FBD8
:1007F0001C00303078541846491C0028F3D1234699
:100800002A463046BDE8F04100F0B6BA00000000CC
:100810002D0000002B00000020000000116802687D
:10082000006A530501D508700AE0D30501D5088098
:1008300006E0130603D5C217C1E9000200E0086014
:100840000120704701694A1C02610878704700B5B1
:100850008FB0CDE901310021059105497944CDE9F9
:1008600003101146684600F031F90FB000BD0000DA
:10087000E5FFFFFF0A6802F8010B0A607047D1E943
:1008800000239A4202D2531C0B6010707047000084
:100890002DE9FF5F15468A460446DFF8AC80F84430
:1008A0000027D8E900103E46CDE9001010E03AF8E4
:1008B00016106A4602A801F02BF8411C07D02178D7
:1008C000890603D5E269391891420DD80744761C90
:1008D0002078800602D5E069B84205DDAE42E6DB4D
:1008E0003AF816000028E2D1A069C01BA06120469A
:1008F000FFF7F5FED8E90010CDE90010002017E061
:100900003AF818106A4602A801F002F8B0F1FF3F69
:1009100081460BD000250DF1080B05E0D4E901213B
:100920001BF8050090476D1C4D45F7D308F10100F9
:10093000B0428046E4DB206A384420622046FFF75C
:10094000E4FEBDE8FF9F0000CA7800002DE9F041F9
:100950008046D21D22F007020025D2E90002F529C7
:1009600015A614D0011E72F1000106DA0023D0EBA7
:10097000030063EB020211A608E0D8F800108B0711
:1009800001D50FA602E0490701D50EA601251146A3
:10099000002408F1240704E000F0A0F930323A55B1
:1009A000641C50EA0102F7D12B46324621464046EC
:1009B000BDE8F04100F0E0B9000000002D000000AB
:1009C0002B0000002000000030B4002100F12404BE
:1009D00008E002F00705D208303542EA4372DB082E
:1009E0006554491C52EA0305F3D10468002310A2A0
:1009F000250707D5A40600D421B1C46901230DA29F
:100A0000641EC46130BC00F0B7B910B5044621467D
:100A10001068FFF794FE02462046BDE81040002310
:100A2000D2E7D21D22F00701D1E90023CCE7000074
:100A30000000000030000000F0B40D4601880905F8
:100A400002D5214C7C4402E01F4C7C440E34002132
:100A500000F1240608E002F00F071209E75D42EA00
:100A600003721B097754491C52EA0307F3D1027839
:100A70000023120704D5702D06D009B102231134CA
:100A80002246F0BC00F078B901231034F8E770B5C5
:100A900004460D4621461068FFF751FE02462946DE
:100AA0002046BDE870400023C6E7D21D22F00703B0
:100AB000D3E90023C0E70368126843F02003036012
:100AC0000823C3610023B7E72C7700002DE9F05F0E
:100AD000894604464FF0000ADFF874B1FB44C0F8C1
:100AE00020A02046E1688847002874D0252806D039
:100AF000D4E901219047206A401C2062F1E70026DA
:100B00005F462046E16888472028054607DB312DEF
:100B100005D2781910F8200C08B10643F1E7B007A8
:100B200001D526F00406C4F81CA00027C4F818A0BC
:100B30002A2D09D0284604F084FE38B304EB870838
:100B4000303DC8F8185019E059F8041B204604EB52
:100B500087029161E1688847012F054618D1E06955
:100B6000002820DA26F020061DE0D8F8180000EB57
:100B7000800005EB40003038C8F818002046E168D6
:100B80008847054604F05DFE0028EED1012F0AD00B
:100B90002E2D08D12046E16888477F1C0546022F8C
:100BA00046F02006C4DBA069002803DA404246F084
:100BB0000106A061F00701D026F010066C2D0BD0C5
:100BC000682D09D04C2D39D06A2D35D0742D35D0F3
:100BD0007A2D33D016E038E0E1682F46204688476A
:100BE000B842054609D16C2F26D04FF48060E168E9
:100BF000064320468847054604E06C2F1AD04FF480
:100C0000807006430DB3A5F14100192802D82035A4
:100C100046F400664A462946204626604E46FFF7BF
:100C20009FFA80B101280BD0F61D26F0070000F1D5
:100C3000080956E74020E4E78020D8E70020D6E7FF
:100C400006F104094DE7284652E7206ABDE8F09F07
:100C5000BC7600003A2800D2303820F02002412A29
:100C600001D3A2F13700884201D34FF0FF30704723
:100C7000026811441378016018467047D160054935
:100C8000794451610449794411620021116111468E
:100C900000F084BCEDFFFFFFDD000000426842B1C0
:100CA000016811F8013B23B1521EC0E90012184639
:100CB00070470121C160881E704742685AB1C368FD
:100CC000016843B983688B4205D0491E521CC0E9B4
:100CD0000012002070474FF0FF30704730B5B0F180
:100CE0000A024FEA900E71F100034EEA817EB0EBEA
:100CF0000E0061EB91014FEA101E4EEA017E10EBEF
:100D00000E0041EB11114FEA102E4EEA016E10EB6E
:100D10000E0041EB11214FEA104E4EEA014E10EB4E
:100D20000E0041EB1141401841F100014FEAD000A3
:100D300040EA41704FEAD10110EB80054FEA81048F
:100D400044EA907444EB01046D1944EB0404521B13
:100D5000A3414FF0000348BF0A3200D530BD401C0C
:100D600041F1000130BD10B5044600F017FE0068E7
:100D7000005D00F0010010BD2DE9F0470D469946D9
:100D80009246044600F124080168880604D5E0690B
:100D900021F01001216000E00120A84201DD471B85
:100DA00000E00027A1697A1902EB0900081AA06186
:100DB0002078C00602D42046FFF791FC002608E008
:100DC000D4E901211AF806009047206A401C761CDD
:100DD00020624E45F4DB2078C0060AD52046FFF796
:100DE0007EFC06E0D4E9012130209047206A401CB7
:100DF0002062381EA7F10107F4DC07E0D4E90121E5
:100E000018F805009047206A401C2062281EA5F1B2
:100E10000105F3DC2046FFF778FC2078000602D5B8
:100E20000220BDE8F0870120FBE770472DE9FF4F66
:100E30000C461E464FF0FF378BB0D2E90001DDF8BB
:100E400060800A908A46C1F30A5505B93D460021E3
:100E500008464FF00000BAF1000F00F4400005DA38
:100E600000EB80004FF4400101EA50004FEA905936
:100E7000B9F1010F00DDB9460A9850EA4A000ED0D8
:100E800044F61050A5F2FF3545432F14B8F1000F7A
:100E90001ED07542291E1EDDC9F100021CE0B8F10A
:100EA000010F4FF0000001D0302103E0F24305E0D4
:100EB0002154401CB042FBDB30460022002121546B
:100EC0000B99C1F80880C1E900200FB0BDE8F08F90
:100ED000BD1B6D1CDEE74A4600DA694206A800F039
:100EE000A9FD06AB93E8070003AB83E80700504673
:100EF0000A9900F026FE8DE80700A0F500501F3883
:100F000000900398002D0ADD42F21F014A46084472
:100F1000002303A90390684601F08FF809E0A0F5CB
:100F200000504A461F38002303A90390684601F089
:100F300099F88DE807000004000C03D04FF0FF3053
:100F4000410800E01046B8F1000F03D000220092E3
:100F500015461EE0751E05D4FFF7C0FE30326255FF
:100F60006D1EF9D5B3460122084302D000227F1C32
:100F700004E02078302801D100227F1E002A099742
:100F800084D01DE0112D07DAFFF7A8FE303262553C
:100F90006D1C50EA0102F5D1084302D00098C8B197
:100FA0000EE00021681E05E0235C625C635422545D
:100FB000401E491C8142F7DBAB46A81B401E09902E
:100FC000002004F80B000B98099AC0F80880C0E9CB
:100FD000002B7AE711264FF0000857E72DE9F04F74
:100FE00088460446D21D22F0070191B0D1E90001E4
:100FF000CDE90A0104F001FC02460B98C00F01D0B4
:101000002D2007E02068810701D52B2002E0202158
:1010100001EAC000032A099001D0072A05DB034634
:101020004146204600F0C6FC0BE12078800601D541
:10103000E06900E00620B8F1650F814606D0B8F1FE
:10104000660F18D0B8F1670F70D131E00020B9F108
:10105000110F009001DB112301E009F101030AAA3D
:1010600001A90CA8FFF7E2FEDDE90C70002609F1EA
:101070000105834647E001204B4600904FF00047B2
:101080000AAA01A90CA8FFF7D1FEDDE90DB00C9961
:101090005D46002610B909F101000D18B9EB0500F5
:1010A00003D4C0F1FF3609F10105A5EB09002BE0DF
:1010B000B9F1010F01DA4FF001090020B9F1110F68
:1010C0000090484601DD112300E003460AAA01A969
:1010D0000CA8FFF7ABFEDDE90C704D4600268346F9
:1010E000207800070AD4AB4500DA5D4601A8012D3F
:1010F00004DD411911F8011C302907D04F4502DAEF
:1011000017F1040F04DA012082460FE06D1EEEE7AE
:10111000002F02DCED1B3E4403E0781CA84200DDFA
:101120007D1CB81B00F1010A4FF000472078000732
:1011300003D4AA4501DB4FF0FF3A0021B7F1004F7D
:101140000DF143088DF8431024D002202B23002FEB
:1011500001DA7F422D230A21021EA0F1010000DCEA
:101160005FB197FBF1FC97FBF1F201FB1C7C17468A
:101170000CF1300C08F801CDEEE7A8F10100037086
:101180002188090501D5452100E06521A0F101086C
:1011900000F8011C09980FA9A1EB0807FF1D00B179
:1011A0000120411901EBEA70A1693844081A401E78
:1011B000A0612078C00602D42046FFF790FA099873
:1011C00028B1D4E901219047206A401C2062207890
:1011D000C00622D52046FFF782FA1EE0002E04DB6F
:1011E000B34502DD01A8805D00E03020D4E9012193
:1011F0009047206A401C2062761CAAF101005FEA39
:10120000000A0AD100F0D2FBC0680168405CD4E952
:1012100001219047206A401C2062281EA5F101058B
:10122000DCDC07E0D4E9012118F8010B9047206AC3
:10123000401C2062381EA7F10107F3DC2046FFF7AF
:1012400064FA032011B041E62DE9F04F04460D4643
:10125000D21D22F0070089B0D0E9009748463946F0
:1012600004F0CBFA0246F80F01D02D2307E02068E6
:10127000810701D52B2302E0202101EAC0038DF86C
:1012800020300BB1012000E00020032A824601D06B
:10129000072A04DB2946204600F08CFB3FE120783A
:1012A000800601D40D2500E0E569C7F30A560D2D2F
:1012B00049DA00214FEA175B08464FF00000002F83
:1012C00000F4400007DA00EB80004FF4400100EB2F
:1012D000D07001EA60008115012901DD4FF0FF3176
:1012E00000224FEA850CBCF1180F06D31346ACF16F
:1012F00018004FF08052C24003E04FF4801323FAED
:101300000CF30CF10C0CBCF1200F04D3ACF1200C4D
:1013100009FA0CF001E007FA0CF000294FF0004840
:1013200001DD18B90FE00ED140450CD319EB0209CD
:101330005F4121B9404502D19F4329EA0209BBEB35
:10134000175F00D0761C2088000502D57B487844C2
:1013500002E07A487844193808AA302302F80A30A3
:10136000037C0AF10101002E0AF1020A53546A4675
:1013700002DC4FF0300101E04FF031014FF0010885
:101380008DF8001002D0A6F2FF3603E059EA4701BB
:1013900000D06B4E002D02DC2178090704D54FF0F8
:1013A00002082E218DF80110C44600210BE0C7F37E
:1013B00003433F01C35C491C6D1E02F80830052938
:1013C00008F1010801DA002DF1DC00210CE000EB4E
:1013D0001973491C1B786D1E082902F808304FEA62
:1013E000091908F1010801DA002DF0DC21688B06EB
:1013F00002D516E0A8F10108E04505DD02EB08037F
:1014000013F8013C302BF5D0B8F1000F09DD02EBE9
:10141000080313F8013C2E2B03D1090701D4A8F1CE
:101420000108002D05DD3E2102F808106D1E08F1AF
:101430000108407C002E02F8080008F1010804DAD7
:101440002D20764202F8080002E02B2002F8080066
:101450000A214FF47A70864208F101080BDB96FBF3
:10146000F0F3303302F8083096FBF0F308F101088E
:1014700000FB136601E0642E0CDB642096FBF0F3A6
:10148000303302F8083096FBF0F308F1010800FB56
:10149000136601E00A2E06DB96FBF1F0303002F80D
:1014A000080008F1010896FBF1F001FB10603030F4
:1014B00002F80800A16908F1010808EB050202EB37
:1014C0000A00081AA0612078C00602D42046FFF75F
:1014D00006F9216A08AE01EB0A00206204E0D4E9B3
:1014E000012116F8010B9047BAF1010AF7D22078D2
:1014F000C00602D52046FFF7F2F86E4609E016F85E
:10150000010B3E280FD0D4E901219047206A401CEE
:101510002062B8F10108F2D22046FFF7F6F809B0D0
:101520000320BDE8F08F206A2844206203E0D4E95C
:101530000121302090476D1EEBD3F8E76E6E00005E
:1015400002FCFFFF10B5436913B1AFF3008001E067
:10155000FFF7FEF8012010BD127800F124010A7097
:1015600000224A700122EDE711684FF0FF32E9E7EF
:1015700010B5436913B1AFF3008001E0FFF788F9BC
:10158000012010BD128800F1240182840022C2844F
:101590000122EDE711684FF0FF32E9E72DE9F34F43
:1015A0004FF0000A0C4656468DB001200C9001F118
:1015B0000C000B9062690B9801219047051E2DD0FD
:1015C000252D2CD0216A8847C0B162690B98012172
:1015D0009047216A88470028F7D16269411E0B981D
:1015E000904700E0761CA1690D988847216A8847DA
:1015F0000028F7D1E1690D988847DBE7A1690D98CC
:101600008847A842074601D1761CD3E7E1690D98C7
:1016100088477F1C02D1BAF1000F6FD06CE162697C
:101620000B9800273D46394690472A2804D1626925
:101630000B98012190470125DFF8D08262690B9851
:1016400001219047A0F130010A290AD24745E5DC83
:1016500007EB870100EB4107303FDFD445F0100571
:10166000ECE7E90601D46FF000476C280AD04C285B
:1016700014D0682815D06A280DD074281CD07A2878
:101680001AD01DE062690B98012190476C2802D0A6
:1016900045F0040514E045F002050DE045F0200595
:1016A0000AE062690B9801219047682802D045F052
:1016B000080505E045F4006562690B980121904733
:1016C000C4E9015765283DD019DC58287AD00CDCD4
:1016D000452837D004DC252826D041289ED131E08A
:1016E00046282FD0472899D12CE05B2877D0612855
:1016F00028D063287CD0642823D15AE0F7E06F28F3
:1017000048D008DC66281DD067281BD0692821D066
:101710006E2816D127E0702845D0732868D0752828
:1017200047D078280DD14DE0A1690D98884725282C
:1017300005463FF469AFE1690D9888476D1C3FF499
:101740006AAFD9E00D9923466A466FF00100AFF306
:101750000080C6E045F0400023464FF00002606084
:10176000A80736D43EE0E8077FF447AF2068011DA4
:1017700021600068290501D506701BE7290701D5FE
:10178000068017E7A90703D5F117C0E9006111E743
:1017900006600FE745F0400023464FF00802606006
:1017A000A80716D41EE040F60E0125EA010060608D
:1017B00016E045F0400023464FF00A026060A8079B
:1017C00007D40FE045F040006060A80708D5234625
:1017D00010220D996FF00100AFF3008081E007E067
:1017E000102223460D996FF00100FEF7C7FD78E047
:1017F0004FF0000963284F46C8464B46CB4602D0FF
:101800005B2807D039E02079C00601D40120A06010
:10181000012732E06269D4F80CB00B98012190479F
:101820005E2807D14FF0010949466269D4F80CB02F
:101830000B989047216939B900210A4603AB43F858
:101840002120491C0829FADBD8B3216949B308F1E2
:10185000010862690B98012190475D28F4D1B9F124
:10186000000F09D0002003A951F82020D24341F8ED
:101870002020401C0828F7DB03AB206900282079D2
:101880004FEA40701ED05B462246CDF80080CDE97D
:1018900001970D9900286FF0010020DAAFF3008066
:1018A0001FE0C11703AA00EBD1614B1121F01F010A
:1018B00002EB8302411A136801208840034313603E
:1018C000C7E719E00D99224600286FF00100009744
:1018D00002DAAFF3008004E0AFF3008001E0AFF381
:1018E000008000280ADA401C06D10C9820B14FF085
:1018F000FF300FB0BDE8F08F5046FAE7E90701D19D
:101900000AF1010A064400200C9053E6CCCCCC0C22
:1019100070B516460C46054600F040F8036893F88B
:101920000101012806D0FF2C0FD8185D68B10120F5
:101930002C7070BDD3F807013246214603F207131D
:1019400003442846BDE8704018474FF0FF3070BD93
:10195000754600F0EBF8AE4605006946534620F0A8
:101960000700854618B020B5FEF7BEFCBDE8204054
:101970004FF000064FF000074FF000084FF0000B4B
:1019800021F00701AC46ACE8C009ACE8C009ACE8FE
:10199000C009ACE8C0098D467047000010B500F0E2
:1019A00005F8001D10BD00BFA1660000004870478B
:1019B000203100202DE9F0411F460446032601682E
:1019C000072A01F4006004DB08B116A505E016A59E
:1019D00003E008B115A500E015A521F01000206076
:1019E000A069C01EA0610FB1401EA0612046FEF795
:1019F00076FE4FB1D4E9012138469047206A401C59
:101A00002062C01C206206E0206AFAE7D4E90121C6
:101A100015F8010B9047761EF8D22046FEF775FEAA
:101A2000BDE8F0814E414E006E616E00494E4600A9
:101A3000696E66002DE9F047814616468AB0354842
:101A400078440DC88DE80D0032487844801C03AC02
:101A50000DC884E80D0041F69B300844372190FB07
:101A6000F1F290FBF1F5A5F1800501FB12041B3C9E
:101A700002D56442012000E00020DFF898A08046F3
:101A80000027FA44AAF1BE0A0EE0E0070AD0324667
:101A9000684607EB470101230AEB810100F0E2FAF7
:101AA0008DE8070064107F1C002CEED1194F7F4495
:101AB000AE3F19E0E80715D007EB04100DF1180A46
:101AC00090E80E008AE80E00C068F04201D1981933
:101AD00008903246012306A903A800F0C3FA03AB1D
:101AE00083E807006D10641C002DE3D14FF0010363
:101AF00032466946B8F1000F03A802D000F09DFA03
:101B000001E000F0AFFAC9E90001C9F808200AB005
:101B1000BDE8F0870C68000010B50446AFF3008004
:101B20002046BDE81040FEF77EBB0000004870472D
:101B30000031002001491820ABBEFEE7260002005C
:101B400070475FEA400C08BF91F0000F4FEA8C230A
:101B50004FEAC12243EA51514FEA1C5018BF00F529
:101B6000F0404FEA300018BF41F000415FEA6C5C82
:101B700000F02980BCF1FF3F08BF40F08040704773
:101B8000130C06BF12044FF0100C4FF0000C130E94
:101B900004BF12020CF1080C130F04BF12010CF168
:101BA000040C930F04BF92000CF1020CD30F04BF7E
:101BB00052000CF1010C11464FF00002A0F11F0081
:101BC000A0EB0C00704711F0004F08BF704731F0D8
:101BD00000413FF4D5AF0B0C06BF09044FF0100CC9
:101BE0004FF0000C0B0E04BF09020CF1080C0B0F98
:101BF00004BF09010CF1040C8B0F04BF89000CF128
:101C0000020CCB0F04BF49000CF1010CCCF12003F6
:101C1000A0EB0C0022FA03F302FA0CF241EA0301F2
:101C200000F10100704720F07F4C80EA030023F0B0
:101C30007F47ACEB070303F57C5300F0004003F152
:101C4000FF032DE980494FEA154B09B44FEA1443CD
:101C500025EA0B4E24EA03480FF2042606EB13276D
:101C600049083E785FEA320203FB0667C7F50007C2
:101C700007FB06F64FEA54374FEAD64606F102064E
:101C800007FB066CCCF1005C4FEA1C472CEA074CC2
:101C900007FB06F40CFB06F504EB15464FEA961617
:101CA00034BF00204FF000404FEAD13706FB07FC5D
:101CB0004FEA1C4C0CFB0BF7D21B03FB0CF761EB40
:101CC00007010CFB0EF7B0EB074072EB17420CFB61
:101CD00008F734BFA2EB0742B2EB074261EB1741B2
:101CE0004FEA0C444FEA910706FB07FC4FEA1C4CF5
:101CF0000CFB0BF7B0EBC74072EB573203FB0CF752
:101D000034BFA2EBC742B2EBC74261EB57310CFBC9
:101D10000EF7B0EBC70072EB57720CFB08F734BF3D
:101D2000A2EBC702B2EBC70261EB5771039F4FEA08
:101D3000816141EA921104EBCC044FEAD1374FEABA
:101D4000826206FB07FC42EA90124FEA80604FEA8B
:101D50001C4C0CFB0BF7D21B03FB0CF761EB0701D0
:101D60000CFB0EF7B0EB074072EB17420CFB08F7C9
:101D700034BFA2EB0742B2EB074261EB17414FEAD7
:101D80008C554FEA910704EB9C2406FB07FC4FEAB5
:101D90001C4C0CFB0BF7B0EBC74072EB573203FB4C
:101DA0000CF734BFA2EBC742B2EBC74261EB57312D
:101DB0000CFB0EF7B0EBC70072EB57720CFB08F789
:101DC00034BFA2EBC702B2EBC70261EB577115EB50
:101DD0004C254FEA816141EA92114FEA82624FEA53
:101DE000D13742EA901206FB07FC44F100044FEAA7
:101DF00080604FEA1C4C0CFB0BF7D21B03FB0CF76B
:101E000061EB07010CFB0EF7B0EB074072EB1742DA
:101E10000CFB08F734BFA2EB0742B2EB074261EBC1
:101E2000174115EB1C154FEA813141EA92414FEA07
:101E3000823242EA90424FEA80304FEA0C7644F117
:101E4000000448EA03434EEA0B484FF0000EB2EBA1
:101E5000080C71EB030724BF624639464EEB0E0EA9
:101E60004FF0000B0018524149414BEB0B0BB2EB0A
:101E7000080C71EB03077BF1000B24BF6246394667
:101E80004EEB0E0E4FF0000B0018524149414BEB48
:101E90000B0BB2EB080C71EB03077BF1000B24BFBB
:101EA000624639464EEB0E0E51EA020718BF46F065
:101EB000010616EB0E7655F1000254F1000103D530
:101EC000BDE88901BDE80088BDE88901BDE800489A
:101ED000B619524141EB0101A3F101037047808023
:101EE0007F7E7D7C7B7A7978777676757473727174
:101EF00071706F6E6E6D6C6C6B6A6A69686867662C
:101F000066656464636362616160605F5F5E5E5DBD
:101F10005D5C5C5B5B5A5A59595858575756565531
:101F200055555454535352525251515050504F4F93
:101F30004F4E4E4D4D4D4C4C4C4B4B4B4A4A4A49E3
:101F40004949484848474747474646464545454426
:101F50004444444343434342424242414141002BB3
:101F60009C4630D477002BD01CB54FEA370703B41A
:101F70004FF010004FF01001BAF1000F06D0BCF185
:101F8000000FDCBF40F0080040F008014FF00000F7
:101F90000FBCBDE810400BF1010BBBF1010F08BFF6
:101FA0005FEA170722BF12F1010211F101014FF0A0
:101FB000004143F1000300F0004043EA0000704795
:101FC000F9D35708D0E746EA064613F1400F4FEA27
:101FD00016461FDD13F1200FDFBF16430A4600210E
:101FE00020335B42BED0C3F1200746EA064602FA20
:101FF00007F74FEA164646EA0706C3F1200722FA1A
:1020000003F201FA07F721FA03F14FF0000342EA65
:102010000702A7E746EA020646EA06464FEA1646E0
:1020200046EA0106BCBF46EA0646360C4FF00003FE
:102030004FF000024FF0000194E72DE9804C9A46E2
:10204000934670B491E8380007C831EA400C48BFA5
:1020500034EA430C03D5FFF7E6FDFFF780FFF0BC41
:10206000BDE8008C2DE9804C9A46934670B491E807
:10207000380007C810F0804F08BF13F0804F03D11D
:1020800000F005F8FFF76BFFF0BCBDE8008C20F016
:102090007F4780EA030023F07F4C07EB0C03A3F596
:1020A0007C5300F00040A3F1FE0392F0000F00F01B
:1020B000B38095F0000F00F077802DE901494FEAD9
:1020C00011404FEA144621EA004800FB06FC24EACE
:1020D000064708FB06F607FB08F800FB07F718EBB6
:1020E00006484CEB164C4FEA124B18EB07484FEAE8
:1020F00015464CEB174022EA0B4E0BFB06FC25EA7B
:1021000006470EFB06F607FB0EFE0BFB07F71EEB62
:10211000064E4CEB164C4FF000061EEB074E4CEBF8
:10212000174B18EB0B0840F1000018EB0E0B58EBA7
:10213000000840F100008F1A4FF000013CBFC94376
:10214000661B14BFB5EB040C00213CBFC943F61B52
:102150004FEA17444EEA8E0E27EA04454FEA1C4721
:1021600004FB07622CEA074C05FB07F70CFB05F69E
:1021700004FB0CFC16EB074642EB174216EB0C4631
:1021800042EB1C421BEB060658EB0202414146EAB9
:102190009E0601D5BDE80189B619524141EB010106
:1021A000A3F10103BDE801894FEA14454FEA114745
:1021B00024EA054621EA074C05FB07F406FB07F76E
:1021C0000CFB06F105FB0CFC11EB074144EB17443B
:1021D0004FEA124711EB0C4144EB1C4422EA074C36
:1021E00005FB07F206FB07F70CFB06F605FB0CFCEC
:1021F00016EB074642EB174216EB0C4642EB1C452A
:102200006A1854F1000148BF7047B619524141EBBA
:102210000101A3F10103704795F0000F37D04FEA99
:1022200011424FEA144721EA024624EA074C02FB16
:1022300007F106FB07F70CFB06F402FB0CFC14EBA2
:10224000074441EB17414FEA154714EB0C4441EBAF
:102250001C4125EA074C02FB07F506FB07F70CFBC0
:1022600006F602FB0CFC16EB074645EB174516EB92
:102270000C4645EB1C42121951F1000148BF704752
:10228000B619524141EB0101A3F1010370474FEA36
:1022900014454FEA114724EA054621EA074C05FB9D
:1022A00007F106FB07F70CFB06F24FF0000605FBF3
:1022B0000CFC12EB074241EB174112EB0C4251EBC5
:1022C0001C4148BF7047921841EB0101A3F1010383
:1022D0007047FEE7704772B6FEE710B590F8211020
:1022E0000022022905D00421816380F820200120EA
:1022F00010BD01680B6823F00E030B6001680B68CA
:1023000023F001030B6090F84030C46B012101FA07
:1023100003F3636080F8211080F82020104610BD80
:1023200010B590F821100024022903D00421816304
:1023300001243DE001680A6822F00E020A6001688B
:102340000A6822F001020A601A4A0168914201D12A
:10235000012121E0174A1432914201D110211BE0E2
:10236000144A2832914201D1891515E0114A3C32B4
:10237000914201D189140FE00E4A5032914202D1AC
:102380004FF4803108E00B4A6432914202D14FF49D
:10239000801101E04FF08071064A083A5160012136
:1023A00080F82110002180F82010416B01B188478E
:1023B000204610BD0800024070B5044600F010F938
:1023C0000546601C02D004480078044400F008F977
:1023D000401BA042FAD370BD340000202DE9F84F15
:1023E000DFF8B8910024A9F1040B23460F2709F167
:1023F000040AABF1040EC9E00125A5402A40AA4217
:102400007DD1674ED1F804C0ACEB0608B44532D09C
:1024100014DCBCF1030F3AD009DCBCF1000F2AD068
:10242000BCF1010F1CD0BCF1020F31D11DE0BCF199
:10243000110F17D0BCF1120F2AD119E0B8F5881F7F
:1024400019D006DCB8F5803F15D0B8F5801F1FD134
:1024500011E0B8F5001F0ED0B8F5041F18D10AE03E
:10246000CB6815E0CB681B1D12E0CB6808330FE08A
:10247000CB680C330CE08B682BB1012B4FF00803B9
:1024800003D0456104E0042302E0056100E000237D
:10249000FF2A01D8064601E000F104064FEA840550
:1024A00001D9A5F12005D6F8008007FA05FC28EA35
:1024B0000C0803FA05F548EA0508C6F800804D68DF
:1024C000ED0062D5374DAE6946F00106AE61AD69EB
:1024D00024F0030605F001050095334D06EB050CCD
:1024E000DCF80850A607360F07FA06F825EA0805B3
:1024F000DFF8B880404503D14FF0000817E044E012
:10250000DFF8AC80404502D14FF001080FE0DFF862
:10251000A480404502D14FF0020808E0DFF898801F
:10252000404502D14FF0030801E04FF0040808FADB
:1025300006F848EA0508CCF808804D68D9F800602C
:10254000ED024D4601D5164300E096432E604D68DE
:10255000DAF80060AD02554601D5164300E0964317
:102560002E604D68DBF80060AD035D4601D5164373
:1025700000E096432E604D68DEF80060ED0375467E
:1025800001D5164300E096432E60641C0D682A4670
:10259000E5407FF431AFBDE8F88F0000080401404A
:1025A000000011100010024000000140000801402E
:1025B000000C0140001001400014014080680840F8
:1025C00000D001207047C26821EA02030A4043EAB2
:1025D0000241016170470AB1016170470904FBE7DC
:1025E00001488068704700003400002070B5040086
:1025F00025D094F83D00002520B984F83C502046B1
:1026000000F03CFC242084F83D002068016821F0A3
:10261000010101602068016841F400410160206807
:10262000016821F40041016000F0DEFD4D4A61685F
:10263000914201D84C4900E04C49884201D2012026
:1026400070BD4B492368B0FBF1F15E6826F03F0690
:102650000E435E606368934206D94FF49673594304
:102660004FF47A73B1FBF3F12368491C1E6A26F01C
:102670003F06314319626168914210D84900401EFB
:10268000B0FBF1F2521CC2F30B02042A01D2042067
:1026900022E0B0FBF1F0401CC0F30B001CE0A2688C
:1026A000F2B301EBC10303EB0116431EB3FBF6F3D8
:1026B0005B1C43F480431B0549D092B301EBC1027C
:1026C00002EB0111401EB0FBF1F0401CC0F30B0007
:1026D00040F4804040F400402168CA694CF6FF7322
:1026E0009A431043C861D4E9071001432068026887
:1026F00022F0C00211430160D4E9030101432068C4
:10270000826848F2FF339A4311438160D4E905019E
:1027100008432168CA6822F0FF021043C86001E044
:102720000EE016E02068016841F0010101602564B7
:10273000202084F83D00256384F83E50002070BDC1
:1027400001EB4106431EB3FBF6F35B1CB3E701202C
:10275000C2E701EB4101401EB0FBF1F0401CC0F3A9
:102760000B00B7E7A086010080841E0000093D0031
:1027700040420F002DE9F84F0025DDF828909846DB
:1027800017468A4604460095FFF72AFF064694F846
:102790003D0020287AD1192301228649204600963F
:1027A00001F006FF0028F5D194F83C0001286DD017
:1027B000012084F83C0020680168C90703D1016842
:1027C00041F0010101602068016821F400610160AD
:1027D000222084F83D00102084F83E0025646762C2
:1027E000A4F82A80608D20857348E06233464A460B
:1027F0005146204601F01AFD00287CD1208DDFF8DB
:10280000BC81202768B1012814D002282068016803
:102810001ED041F4806101602068416980690090A8
:10282000BBE02068416981690091016841F4007151
:102830000160B2E02068016821F48061016072B635
:102840002068416981690091016841F400710AE0E2
:1028500041F40061016072B62068416981690091AC
:10286000016821F48061016062B696E0032865D8B2
:1028700001280CD002284B464FF00002414620466A
:1028800000960BD001F094FEA8BB0CE090E032461D
:102890004946204601F032FF68BB71E001F088FE36
:1028A00048BB72B633E02068016821F480610160A2
:1028B00072B620680069616A0870606A401C6062D4
:1028C000208D401E2085608D401E60853C4846F26C
:1028D000A8110068B0FBF1F0C0EBC00000EB800075
:1028E0000090401E009007D020684069C043400718
:1028F0000DD50098F5E727E044F8305F6773A573BE
:10290000206940F02000206162B625731CE0206839
:10291000016841F40071016020680069616A087013
:10292000606A401C6062218D491E2185618D491EAF
:10293000618562B621680969017025E03246494621
:10294000204601F0DBFE10B10120BDE8F88F2068C1
:102950000069616A0870606A401C6062208D401ED8
:1029600081B22185608D401E608520684269D24316
:10297000520712D4032903D1016821F48061016058
:1029800020680069616A0870606A401C6062208D7E
:10299000401E2085608D401E6085208D00287FF4BC
:1029A00065AF84F83D7084F83E5084F83C50CCE725
:1029B0000220CAE7020010000000FFFF040001002F
:1029C000400000202DE9F84F1F4690468A460446F5
:1029D000DDF82890FFF704FE054694F83D00202816
:1029E0007FD11923012240492046009501F0E0FDE6
:1029F000002876D194F83C00012872D0012084F898
:102A00003C0020680168C90703D1016841F0010159
:102A100001602068016821F400610160212084F8D0
:102A20003D00102084F83E0000262664C4F824806F
:102A30006785608D20852D48E0622B464A465146C9
:102A4000204601F069FC90B92068416980690090D6
:102A500036E02A464946204601F088FE50B1206CF7
:102A6000042804D12068016841F40071016001204C
:102A7000BDE8F88F606A216800780861606A401CD0
:102A80006062618D491E6185218D491E89B2218553
:102A900022685369DB435B070BD451B100781061A6
:102AA000606A401C6062608D401E6085208D401E03
:102AB00020852A464946204601F04EFD0028CED109
:102AC000208D0028C5D154F83D0B016841F40071F8
:102AD0000160202004F81E09E67766770020C7E72A
:102AE000FFE70220C4E70000020010000000FFFF23
:102AF0002DE9FF4F83B00025DDE910799A46934612
:102B00000446DDF848800095FFF76AFD064694F814
:102B10003D0020287CD119230122884920460096B7
:102B200001F046FD0028F5D194F83C0001286FD053
:102B3000012084F83C0020680168C90703D10168BE
:102B400041F0010101602068016821F40061016029
:102B5000222084F83D00402084F83E00256467620E
:102B6000A4F82A90608D20857548E062CDE9008642
:102B700053465A462046049901F01CFC00287CD19B
:102B8000208DDFF8C091202768B1012814D00228D9
:102B9000206801681ED041F48061016020684169AD
:102BA00080690090BCE020684169816900910168FA
:102BB00041F400710160B3E02068016821F4806194
:102BC000016072B62068416981690091016841F431
:102BD00000710AE041F40061016072B62068416949
:102BE00081690091016821F48061016062B697E01B
:102BF000032865D801280CD0022843464FF0000274
:102C00004946204600960BD001F0D2FCA8BB0CE050
:102C100091E032464146204601F070FD68BB72E00B
:102C200001F0C6FC48BB72B633E02068016821F4AD
:102C30008061016072B620680069616A0870606A2C
:102C4000401C6062208D401E2085608D401E608586
:102C50003D4846F2A8110068B0FBF1F0C0EBC0009F
:102C600000EB80000090401E009007D02068406973
:102C7000C04340070DD50098F5E727E044F8305FE2
:102C80006773A573206940F02000206162B6257348
:102C90001CE02068016841F400710160206800694F
:102CA000616A0870606A401C6062218D491E21853E
:102CB000618D491E618562B621680969017026E04F
:102CC00032464146204601F019FD18B1012007B0F7
:102CD000BDE8F08F20680069616A0870606A401C76
:102CE0006062208D401E81B22185608D401E60850E
:102CF00020684269D243520712D4032903D10168E4
:102D000021F48061016020680069616A0870606A6E
:102D1000401C6062208D401E2085608D401E6085B5
:102D2000208D00287FF464AF84F83D7084F83E5015
:102D300084F83C50CBE70220C9E7000002001000F5
:102D40000000FFFF04000100400000202DE9FF4FBC
:102D500083B09A46DDE9119793460446DDF840803A
:102D6000FFF73EFC054694F83D0020287FD119234B
:102D7000012240492046009501F01AFC002876D136
:102D800094F83C00012872D0012084F83C002068AF
:102D90000168C90703D1016841F0010101602068A1
:102DA000016821F400610160212084F83D00402089
:102DB00084F83E0000262664C4F82480A4F82A90F3
:102DC000608D20852C48E062CDE9007553465A4657
:102DD0002046049901F06CFB70B930E02A46394670
:102DE000204601F0C3FC58B1206C042804D12068AF
:102DF000016841F400710160012007B0BDE8F08F67
:102E0000606A216800780861606A401C6062218DF8
:102E1000491E89B22185628D521E628522685369DE
:102E2000DB435B070BD469B100781061606A401C1A
:102E30006062208D401E2085608D401E6085208D43
:102E40000028CBD12A463946204601F085FB0028D0
:102E5000CAD154F83D0B016841F400710160202093
:102E600004F81E09E67766770020C6E7FFE7022030
:102E7000C3E70000020010000000FFFF10B586B09D
:102E8000002100910191029103910068104988424C
:102E90001BD1104CA06940F00800A061A0696946F0
:102EA00000F0080004904FF4406000901220019060
:102EB000032003900848FFF791FAE06940F480008E
:102EC000E061E06900F48000049006B010BD0000ED
:102ED0000058004000100240000C01400248816888
:102EE000027811448160704734000020074810B513
:102EF000016841F010010160032000F0A7F80F20E5
:102F000000F006F800F050F8002010BD002002404C
:102F100030B505461F4887B0C16941F00201C16163
:102F2000C06906A900F00200009001A800F036F97F
:102F30000498B0B100F058F940001749174AB0FBA7
:102F4000F1F11748491E0260416040F2E73200216A
:102F5000C0E903218160816100F07CFB040003D0A3
:102F600015E000F041F9E8E70D4800F0B5FB04007A
:102F70000DD11D2000F03CF8102D07D2002229466B
:102F80001D2000F043F80748056000E0012407B069
:102F9000204630BD0010024040420F0000040040B7
:102FA000E4030020380000200F4808B5816941F093
:102FB00001018161816901F001010091C16941F064
:102FC0008051C161C069002200F0805000900F2143
:102FD000901E00F01BF80548416821F0E06141F0C7
:102FE0000071416008BD0000001002400000014077
:102FF000002809DB00F01F020121914040098000F8
:1030000000F1E020C0F8001170470000F0B40E4B52
:103010001B680C46C3F30223C3F10705042D00D936
:103020000425191D072901D2002300E0DB1E01261B
:1030300006FA05F1491E214099409E40761E164031
:103040003143F0BC02F0EDBB0CED00E0064900F0AE
:10305000070208684FF6FF03184040EA0220034ABF
:1030600010430860704700000CED00E00000FA0516
:103070002DE9F0470F46050061D0434E306800F05F
:103080000700B84209D2306820F0070038433060AA
:10309000306800F00700B84251D128683B4C8107E6
:1030A00012D5400703D5606840F4E060606028787E
:1030B000000703D5606840F4605060606068A968EC
:1030C00020F0F000084360602878C00728D06868C6
:1030D000012810D02168022810D0890700292EDA93
:1030E000616821F0030101436160FFF779FA8046CE
:1030F00041F288390DE021688903EFE78901EDE7A6
:10310000FFF76EFAA0EB0801494502D90320BDE89C
:10311000F0876068696800F00C00B0EB810FEFD1B8
:10312000306800F00700B8420BD9306820F0070083
:1031300038433060306800F00700B84201D0012009
:10314000E5E72878400705D56068E96820F4E06085
:10315000084360602878000706D56068296920F474
:10316000605040EAC100606000F05EF86168084AA3
:10317000C1F30311515CC840064908600648006865
:10318000FFF7C6FE0020C2E7002002400010024008
:103190005281000840000020380000200F22026009
:1031A0000C4A536803F003034360536803F0F003D1
:1031B0008360536803F4E063C36052684FF4E063D4
:1031C00003EAD20202610448006800F007000860C8
:1031D00070470000001002400020024001480068D3
:1031E0007047000040000020044805490068496815
:1031F000044AC1F30221515CC840704740000020DE
:1032000000100240628100080448054900684968CE
:10321000044AC1F3C221515CC840704740000020FD
:1032200000100240628100080E4A51680E4801F009
:103230000C03042B11D0082B0FD10C48C1F383438E
:10324000C903C05C0AD55168084AC1F34041921EC7
:10325000515C054A5043B0FBF1F0704704494843C4
:10326000704700000010024000127A0042810008FE
:1032700000093D002DE9F84F040070D02078C04DC2
:10328000C00749D06868C0F38100012807D068688A
:10329000C0F38100022809D16868C00306D52868F8
:1032A000800339D560680028E7D035E06068B0F564
:1032B000803F0BD010B1B0F5A02F11D0286820F4BA
:1032C00080302860286820F4802002E0286840F4DC
:1032D00080302860606890B1FFF782F906460AE006
:1032E000286840F480202860F0E700BFFFF778F9F5
:1032F000801B642873D828688003F7D50CE0FFF79B
:103300006FF9064605E000BFFFF76AF9801B6428E5
:10331000F0D828688003F7D420789A4E80074FF0C1
:1033200001094FF0000839D5686810F00C0F07D07C
:103330006868C0F38100022809D16868C00306D418
:103340002868800714D52069012808D110E0206979
:10335000B0B1C6F80090FFF743F9074605E00AE16F
:10336000FFF73EF9C01B0228C4D828688007F7D5AC
:103370002868616920F0F80040EAC10028600DE08B
:10338000C6F80080FFF72CF9074604E0FFF728F99C
:10339000C01B022823D828688007F7D420780007AC
:1033A0002CD57948A169D9B1C0F80090FFF718F978
:1033B000074604E0FFF714F9C01B02280FD8686A1B
:1033C0008007F7D571484FF4FA510068B0FBF1F06F
:1033D000009000BF0098411E0091FAD20EE080E0FC
:1033E000C0F80080FFF7FCF8074604E0FFF7F8F8A4
:1033F000C01B022875D8686A8007F7D42078400778
:1034000060D5E8690027C00008D4E86940F0805022
:10341000E861E869012700F0805000905C4801688D
:10342000C90513D40168834641F480710160FFF738
:10343000D7F8824606E000BFFFF7D2F8A0EB0A00FB
:1034400064284ED8DBF80000C005F5D5E0680128F7
:103450000AD008B1052813D0286A20F0010028629C
:10346000286A20F0040002E0286A40F00100286287
:10347000E06841F2883B98B1FFF7B2F882460BE072
:10348000286A40F004002862EEE700BFFFF7A8F8C2
:10349000A0EB0A0159455AD8286A8007F6D50CE0F6
:1034A000FFF79EF8824605E0FFF79AF8A0EB0A01C5
:1034B00059454CD8286A8007F6D41FB1E86920F036
:1034C0008050E861E06988B36968C1F3810102292D
:1034D00044D00228C6F8608004D0FFF781F8044683
:1034E00038E034E0FFF77CF8074604E0FFF778F8AF
:1034F000C01B02282BD828688001F7D4206AB0F5B9
:10350000803F05D16868A16820F4003008436860F6
:10351000D4E908010843696821F47411084368601C
:10352000C6F86090FFF75CF8044606E025E000BFAF
:10353000FFF756F8001B022809D828688001F7D544
:103540001BE000BFFFF74CF8001B022802D9032044
:10355000BDE8F88F28688001F4D40EE00128F7D088
:103560006868226A00F48031914204D1616A00F4F3
:103570007010884201D00120EAE70020E8E700004F
:1035800000100240000042428004424240000020FD
:10359000007000407047704710B590F83C20012A39
:1035A00022D0012280F83C20CA688C6822F4407244
:1035B00022434C6822F4806222430C6822F40062A9
:1035C00022430C6922F4805222434C6922F40052B7
:1035D0002243C969002322F480420A4301684A64F5
:1035E00080F83C30002010BD022010BD70B590F86E
:1035F0003C20012A26D0012480F83C40022280F899
:103600003D2003685A689D6822F070060A683243BC
:103610005A600D4B02689A4208D0B2F1804F05D033
:103620000A4B9A4202D00A4B9A4204D1496825F0CB
:1036300080031943916080F83D40002180F83C10E0
:10364000084670BD022070BD002C014000040040FF
:103650000008004010B5040003D094F83D0010B1FC
:1036600007E0012010BD002084F83C00204600F057
:103670001FF8022084F83D00211D206801F04EFE55
:10368000012084F8460084F83E0084F83F0084F866
:10369000400084F8410084F8420084F8430084F834
:1036A000440084F8450084F83D00002010BD00006F
:1036B00008B500680649884208D10648816941F486
:1036C00000618161806900F40060009008BD000025
:1036D000002C01400010024090F83D10012901D05B
:1036E00001207047022180F83D100168CA6842F04D
:1036F0000102CA6000680B49884208D0B0F1804FCF
:1037000005D00949884202D00849884204D181681D
:1037100001F00701062903D0016841F001010160B1
:1037200000207047002C01400004004000080040C9
:1037300070B5044690F83C000025012817D00126FA
:1037400084F83C60022084F83D002068826822F002
:10375000770222F47F4282600868502838D00DDC5E
:1037600020284FD005DC90B3102811D14AE0022068
:1037700070BD302846D040280AD13BE060282FD0C9
:1037800070280DD0B0F5805F03D0B0F5005F12D087
:10379000012584F83D60002084F83C00284670BD77
:1037A000CB68D1E90121206801F001FE2068816821
:1037B00041F0770109E0CB68D1E90121206801F0EF
:1037C000F6FD2068816841F480418160E1E719E0FD
:1037D000CA684968206801F09FFE5021206806E011
:1037E000CA684968206801F0A8FE6021206801F0DD
:1037F000E8FDCEE7CA684968206801F08DFE4021E7
:103800002068F4E7226801461046F0E72DE9F04110
:103810000D46040003D094F83D0018B108E00120E3
:10382000BDE8F081002084F83C00204600F040F81C
:10383000022084F83D002068816844F20702914329
:103840008160211D206801F069FD226890689169FE
:10385000166A2B68AF69034340F20330814341EAA3
:103860000721A868EF6908434FF6FC418843E968DF
:1038700040EA0720014328692F6A000140EA073027
:10388000084369686D6926F0220646EA0515294352
:1038900093602268906154F8460B0162012004F89D
:1038A0001F09E0752076E0762077A0750020B7E745
:1038B00000B585B00021009101910291039101684A
:1038C0001A48B1F1804F1BD0194A914216D1C169F3
:1038D00041F00401C161C16901F0040104918169F1
:1038E00041F0080181618069694600F00800049098
:1038F000C02000900F4800BFFEF770FD05B000BD6E
:10390000C16941F00101C161C16901F00101049186
:10391000816941F0040181618069694600F0040019
:103920000490032000900448E6E7000000100240E5
:1039300000080040000C01400008014070B590F8FC
:103940003E60044690F83F5090F8423090F8432093
:10395000022021B104290ED0012E1BD114E0012E2A
:1039600018D1012B16D184F83E0084F842000122C0
:103970000021206820E0012D0CD1012A0AD184F811
:103980003F0084F8430014E0012D03D1012B01D145
:10399000012A01D0012070BD84F83E0084F83F0068
:1039A00084F8420084F8430001220021206801F0DD
:1039B000F1FC01220421206801F0ECFC2068016880
:1039C00041F001010160002070BD70472DE9F04118
:1039D00004460068C66805694FF00007A90713D5BB
:1039E000B10711D5F91E0161012020772068806997
:1039F0008007204602D0FFF7E8FF04E000F0A4F8BB
:103A0000204600F036F92777680716D5700714D5D9
:103A100021686FF004000861022020772068806927
:103A200010F4407F204602D0FFF7CFFF04E000F003
:103A30008BF8204600F01DF92777280715D53007A9
:103A400013D521686FF008000861042020772068F2
:103A5000C0698007204602D0FFF7B7FF04E000F0FE
:103A600073F8204600F005F92777E80616D5F0062A
:103A700014D521686FF010000861082020772068B5
:103A8000C06910F4407F204602D0FFF79EFF04E09B
:103A900000F05AF8204600F0ECF82777E80708D045
:103AA000F00706D021686FF001000861204600F0A1
:103AB0002FF9280608D5300606D521686FF080005A
:103AC00008612046FFF766FD680608D5700606D532
:103AD00021686FF040000861204600F023F9A80635
:103AE0000AD5B00608D521686FF02000086120468D
:103AF000BDE8F041FFF74FBDBDE8F08100B585B0EE
:103B00000021009101910291039100680B498842C4
:103B100012D10B48816941F00401816180696946D5
:103B200000F0040004904FF4106000900220019017
:103B300003900448FEF752FC05B000BD002C014084
:103B40000010024000080140704770B5044690F82C
:103B50003C0000260D4601280FD0012084F83C00CF
:103B60006AB1042A1DD0082A2FD00C2A3FD0012682
:103B7000002084F83C00304670BD022070BD2068F3
:103B800001F028FC2068816941F00801816120680A
:103B9000816921F004018161206881692A691143EA
:103BA00011E0206801F03EFC2068816941F4006169
:103BB00081612068816921F4806181612068816967
:103BC0002A6941EA02218161D2E7206801F056FCAE
:103BD0002068C16941F00801C1612068C16921F014
:103BE0000401C1612068C1692A69114311E020689C
:103BF00001F070FC2068C16941F40061C161206876
:103C0000C16921F48061C1612068C1692A6941EA02
:103C10000221C161ACE710B5040003D094F83D0067
:103C200010B107E0012010BD002084F83C002046C0
:103C300000F01EF8022084F83D00211D206801F0EC
:103C40006DFB012084F8460084F83E0084F83F00B4
:103C500084F8400084F8410084F8420084F843006E
:103C600084F8440084F8450084F83D00002010BD2D
:103C70007047704710B50446022249B104290ED09E
:103C8000082913D094F84100012816D0012010BD56
:103C900094F83E000128F9D184F83E200FE094F812
:103CA0003F000128F2D184F83F2008E094F840005A
:103CB0000128EBD184F8402001E084F84120012262
:103CC000206801F067FB0F492068884203D1426CED
:103CD00042F4004242642068884208D0B0F1804F2C
:103CE00005D00949884202D00849884204D1816838
:103CF00001F00701062903D0016841F001010160CC
:103D0000002010BD002C01400004004000080040CD
:103D100000680349884201D1FFF7E0B8704700000E
:103D2000000400407047704700680449884204D18D
:103D300001220349034800F0DBB970470038014015
:103D40000400002054030020F8B501680446086808
:103D5000CA684B6910F00F0F4FF0000559D003F0FF
:103D6000010602F49077374365D0C10705D0D1052D
:103D700003D5616C41F001016164410705D5D907A4
:103D800003D0616C41F002016164810705D5D90758
:103D900003D0616C41F004016164010707D502F0B2
:103DA0002001314303D0616C41F008016164616C12
:103DB00000293AD0800604D5900602D5204601F0AD
:103DC000FDFB20684069616CC0F38010090700D4D6
:103DD00060B3204601F0CBFB20684069400621D546
:103DE0002068143050E8001F21F0400140E8001224
:103DF000002AF5D1E06BA8B16D494163E06BFEF795
:103E00008FFA002811D0E06B416B01B0BDE8F040A3
:103E1000084783060FD593060DD52046BDE8F84028
:103E200001F0CCBB2046FFF77FFFF8BD2046FFF72F
:103E30007BFF6564F8BD266B2023012E7CD1C6066E
:103E40007AD5D60678D508684868009048694FF05A
:103E50000206400640D5E16B086840680004000C8B
:103E6000E8D0A28D8242E5D9E085886920282DD04E
:103E700020680C3050E8001F21F4807140E80012E7
:103E8000002AF5D12068143050E8001F21F001010C
:103E900040E80012002AF5D12068143050E8001FD5
:103EA00021F0400140E80012002AF5D184F84230A8
:103EB000256320680C3050E8001F21F0100140E815
:103EC0000012002AF5D1E06BFEF707FA6663A08DB9
:103ED000E18D401A81B22AE0A08DE18D401A81B2B5
:103EE000E08D0028A6D00029A4D022680C3252E828
:103EF000000F20F4907042E80007002FF5D12068F1
:103F0000143050E8002F22F0010240E80027002F73
:103F1000F5D184F84230256320680C3050E8002F3A
:103F200022F0100240E80023002BF5D16663204602
:103F3000FFF7F9FEF8BDFFE705062BD5150629D5D5
:103F400094F841002128F5D1A068B0F5805F01D137
:103F50002069B0B1206A411C216221680078486064
:103F6000E08C401E0004000CE084E3D12068C168AE
:103F700021F08001C1602068C16841F04001C1604A
:103F8000D8E7206A0088C0F308004860206A801CD7
:103F90002062E5E74006CDD55006CBD5CA6820465D
:103FA00022F04002CA6084F8413000F025F9C1E7F0
:103FB0005F55000870B5040004D094F84100002556
:103FC00010B106E0012070BD84F84050204600F09A
:103FD00023F8242084F841002068C16821F40051AE
:103FE000C160204601F04CFB2068016921F490413A
:103FF00001612068416921F02A0141612068C1689E
:1040000041F40051C1606564202084F8410084F8C7
:1040100042006563002070BD70B586B00024009436
:104020000194029403942E4E03682E490220032229
:104030002D4DB34226D18B6943F480438B618B694C
:1040400003F4804304938B6943F004038B61896913
:10405000039201F0040104910102CDE900106946C8
:104060002846FEF7BBF92815CDE900046946284625
:104070000294FEF7B3F9002205212520FEF7C6FFC2
:10408000252028E0194EB34227D1CB6943F40033F1
:10409000CB61CB6903F4003304938B6943F00403D1
:1040A0008B618969039201F0040104910421CDE937
:1040B000001069462846FEF791F90820CDE9000472
:1040C000694628460294FEF789F900220521262038
:1040D000FEF79CFF2620FEF78BFF06B070BD0000A8
:1040E0000038014000100240000801400044004038
:1040F00090F84230202B01D00220704721B11AB134
:104100000023036301F018BB0120704730B400683E
:104110000D49884216D10D48027841888388491C90
:1041200001F07F01994203D18168491C816003E05D
:10413000074B44881A55418030BC01220349054889
:10414000FFF7D6BF30BC70470038014004000020A4
:1041500020010020540300202DE9F843044690F884
:104160004100984616460D46202802D00220BDE8A0
:10417000F88385B17EB100206064212084F841007D
:10418000FEF72EFAA6848146E684A0682027B0F5C3
:10419000805F02D003E00120E9E7206910B12E46DC
:1041A00000250EE000260CE08021204601F0DFFA19
:1041B000A8B9C6B116F8010B21684860E08C401E12
:1041C000E084E08C4B464FF00002CDF800800028E0
:1041D000EAD14FF04001204601F0C9FA40B184F81D
:1041E00041700320C3E735F8020BC0F30800E3E792
:1041F00084F841700020BAE77047FEE701684A6919
:10420000D24352050FD46FF480624A61002140F816
:10421000301F202242738173026942F0040202615E
:104220000173012070470020704700002DE9F84F0E
:104230000446C06A1E4693460D4621680A6842F449
:1042400080620A60082807D0012805D010F5803F59
:1042500002D0206B112804D12068016841F48071DC
:1042600001604FF001195B46002249462046009646
:1042700000F09EF94FF4007840B120680068C00556
:1042800001D5C4F840800320BDE8F88F2069DFF82D
:1042900084A0B0F5804F0FD00620216800EAD51722
:1042A00047F0F000086133465A460AF106012046FD
:1042B00000F0C6F958BB03E0E8B240F001001CE092
:1042C0002168E8B2086133465A465146204600F05C
:1042D000B7F9E0B92068416981690091016841F44A
:1042E000807101605B46002249462046009600F03E
:1042F0005FF90028C1D147F0F10021680861334619
:104300005A465146204600F09BF90028BCD00120B7
:10431000BAE7000002000100F8B50446C06A1E4674
:104320000D461746082807D0012805D010F5803F14
:1043300002D0206B122804D12068016841F48071FA
:104340000160134600224FF001112046009600F054
:104350002FF940B120680068C00502D54FF4007005
:1043600020640320F8BD2069B0F5804F0ED00620F0
:10437000216800EAD51040F0F000086133463A4663
:104380000B49204600F05CF978B902E005F0FE0028
:1043900000E0E8B221680861054933463A46891FC2
:1043A000204600F04DF90028DCD00120F8BD0000C7
:1043B000080001002DE9F84F0446006889460B9D6E
:1043C00001689846174641F48061016020680168E1
:1043D00041F48071016000954FF0011B00225946A5
:1043E00020460A9B00F0E4F84FF4007A40B12068C0
:1043F0000068C00501D5C4F840A00320BDE8F88FCF
:10440000216809F0FE0008612B46284920460A9AD7
:1044100000F016F9F0BB20684169806900902A46D7
:1044200020460A9900F0A2F940B1206C04283AD144
:104430002068016841F40071016034E0FEB2B8F117
:10444000010F09D02168380A08612A4620460A99D6
:1044500000F08CF90028E8D1206806612A46204641
:104460000A9900F083F90028DFD12068016841F43F
:104470008071016000950022594620460A9B00F099
:1044800097F80028B3D1216809F0FF0040F001003F
:10449000086100E007E02B46044920460A9A00F034
:1044A000CFF80028AAD00120A8E7000002000100F0
:1044B0002DE9F843044600680D46DDE908970168D8
:1044C0009846164641F4807101604B4600224FF039
:1044D00001112046009700F06BF848B12068006891
:1044E000C00502D54FF4007020640320BDE8F883B6
:1044F000216805F0FE0008613B464A461549204602
:1045000000F09EF888B920684169806900903A46B9
:104510004946204600F02AF948B1206C042804D10D
:104520002068016841F4007101600120DEE7F5B206
:10453000B8F1010F09D02168300A08613A464946AE
:10454000204600F013F90028E7D12068056100201B
:10455000CCE700000200010070B516460D46044687
:104560001EE02046FFF74AFE08B1012070BD681C1E
:1045700016D0FEF735F8801BA84200D885B9206810
:104580004069C04340070BD5002044F8300F20217C
:104590006173A073216941F0200121612073E4E778
:1045A00020684069C0434007DBD4002070BD000094
:1045B0002DE9F047984617460D460446C1F30746D5
:1045C000DDF820902AE000BFB8F1FF3F26D0FEF7CB
:1045D00007F8A0EB0901414502D8B8F1000F1DD141
:1045E0002068012E16D0806925EA00000004000C26
:1045F00012D00020B84211D1002044F8300F202101
:104600006173A073216941F02001216120730120B1
:10461000BDE8F0874069E7E70120EBE72068012E5D
:104620000AD0806925EA00000004000C06D00020B2
:10463000B842C9D00020EBE74069F3E70120F7E773
:104640002DE9F047984616460D4604464FF00009FE
:104650004FF0200AC1F3074723E020684069C043B8
:10466000400515D42068016841F40071016021689B
:104670006FF480604861C4F8309084F83DA084F8FD
:104680003E90216C41F00401216484F83C9021E0CB
:10469000701C06D0FDF7A4FFA0EB0800B04203D8C1
:1046A00016B1012F1FD021E02068012F15D080699D
:1046B00025EA00000004000C18D000BF44F8309F29
:1046C00084F80DA084F80E90216941F02001216149
:1046D00084F80C900120BDE8F087406925EA0000CD
:1046E0000004000CEAD12068406901E0206880697C
:1046F00025EA00000004000CAFD1ECE72DE9F04101
:10470000002590460E460446202728E04069C04315
:10471000C0060CD454F8301B6FF01000486144F808
:1047200010596777A577206A2062257714E0FDF796
:1047300057FFA0EB0800B04200D886B92068406956
:10474000C04340060BD544F8305F6773A5732069FA
:1047500040F02000206125730120BDE8F081206831
:104760004169C9434906D1D40020F6E770B5164621
:104770000D4604461EE02046FFF740FD08B101202B
:1047800070BD681C16D0FDF72BFF801BA84200D817
:1047900085B920684069C04300060BD5002044F865
:1047A000300F20216173A073216941F02001216144
:1047B0002073E4E720684069C0430006DBD4002092
:1047C00070BD000010B5094A0021094801F044FD00
:1047D000084C064A002120602432074801F03CFDC5
:1047E0006060BDE8104000F0D7B90000F880000814
:1047F0008D5200082C000020915200082DE9F0474E
:1048000086B0002431480094019402940394816995
:1048100041F010018161816901F010010491816909
:1048200041F020018161816901F0200104918169D9
:1048300041F004018161816901F004010491816901
:1048400041F0080181618069DFF8848000F0080090
:104850004FF400550490002229464046FDF7BBFE68
:10486000DFF87090002240214846FDF7B4FEDFF8E3
:1048700068A04FF20307002239465046FDF7ABFE11
:104880000095022601250396CDE90154694640466C
:10489000FDF7A4FD10208DE8310069464846FDF77C
:1048A0009DFD4020CDE90005CDE902466946484618
:1048B000FDF794FD00970396CDE9015469465046F3
:1048C000FDF78CFD06B0BDE8F08700000010024047
:1048D0000010014000080140000C01400D4810B5D7
:1048E0000B4901600C49416000214FF48042816016
:1048F000C0E9031241618161C1610162FDF776FE89
:10490000002803D0BDE81040FDF7E5BC10BD000055
:104910000058004028020020A086010010B596B083
:1049200000240F9410941194129413941C2168463F
:104930001494FBF76AFE202107A8FBF766FE2C48BB
:104940002A49C0E9001440F60F61C0E90241046140
:1049500044618461FEF77EFE08B1FDF7BCFC4FF4B4
:1049600080500F900FA92248FEF7E2FE08B1FDF734
:10497000B2FC1F48FFF74FF908B1FDF7ACFC1394E8
:1049800013A91B481494FEF731FE08B1FDF7A3FCF0
:104990006020CDE90004029403940494059400225D
:1049A000694613480694FFF7D0F808B1FDF793FC69
:1049B0000C2269460E48FFF7C8F808B1FDF78BFCDA
:1049C0000794089409944FF400500A94CDE90B40E1
:1049D00007A907480E94FEF7DFFD08B1FDF77BFC41
:1049E0000348FFF78BF816B010BD0000002C014003
:1049F0007C02002010B58CB024216846FBF705FE30
:104A00000024164809944FF080410A94C0E900142C
:104A10004FF6FF71C0E90241046184610320CDE9D2
:104A200000040120CDE9020404210491CDE90540F0
:104A3000CDE9074169460948FEF7E8FE08B1FDF7F0
:104A40004AFC099409A905480A94FEF7CFFD0028FD
:104A500001D0FDF740FC0CB010BD0000C4020020E6
:104A600010B58CB024216846FBF7CFFD0024164812
:104A7000099414490A94C0E900144FF6FF71C0E983
:104A80000241046184610320CDE900040120CDE9E5
:104A9000020404210491CDE90540CDE907416946AE
:104AA0000948FEF7B3FE08B1FDF715FC099409A902
:104AB00005480A94FEF79AFD002801D0FDF70BFC8B
:104AC0000CB010BD000800400C0300200C4810B5CD
:104AD0000A4901604FF4E1314160002181600C22FC
:104AE000C160C0E904128161C161FFF763FA002867
:104AF00003D0BDE81040FDF7EEBB10BD003801400B
:104B0000540300200C4810B50A4901604FF41651B7
:104B10004160002181600C22C160C0E90412816102
:104B2000C161FFF747FA002803D0BDE81040FDF748
:104B3000D2BB10BD004400409C030020FEE7FEE70E
:104B400010B55C210A48FBF760FD0948002101709F
:104B5000017100F02FFA00F0B3FA00F051FA00F002
:104B600029FB00F0F7F9BDE8104000F08DBF000010
:104B7000C400002001F0BCFA4FEA000400F0FEF986
:104B800000F038FF00F0CCFE00F046FF0A3420466B
:104B900001F087FAF2E7000010B50E4801F007FBBC
:104BA0000D4908600D4800F0FFF90A4A00216C3AEF
:104BB0000B4801F051FB074A0021483A094801F02F
:104BC0004BFB044ABDE81040243A0021064801F09E
:104BD00043BB0000E880000800000020714C000882
:104BE000754B0008A94E0008F94E00084FF47A747E
:104BF000204601F049FAFBE710B5040034D000F07C
:104C0000F9FE1A480178217041886180017921718B
:104C1000C188E18001892181418961818189A181E6
:104C200090F8271041B990F8281029B990F8291068
:104C300011B98178490701D5012100E00021A17354
:104C400090F830103430E1730FC804F1100C8CE888
:104C50000F0006491822443104F12000FBF779FCCB
:104C6000BDE8104000F0D8BE10BD0000C400002018
:104C7000FEB506464EA1FBF7EFFC002841D04EA141
:104C80003046FBF7E9FC00283ED04DA13046FBF74B
:104C9000E3FC4D4C00283AD04CA13046FBF7DCFC3D
:104CA000002500283DD04BA13046FBF7D5FC00285D
:104CB00044D04AA13046FBF7CFFC00284AD001ABD4
:104CC0006A4648A13046FBF73BFB02284ED001ABB9
:104CD0006A4647A13046FBF733FB022848D002AAB8
:104CE00046A13046FBF72CFB012847D002AA46A17B
:104CF0003046FBF725FB012857D0314644A000F091
:104D000003F900F0C1FEFEBD01F04EFFFEBD00F054
:104D100071FE608808B90120207000F07DFE43A07C
:104D200009E000F067FEE580258184F824502570B5
:104D300000F072FE40A000F0E7F8FEBD00F05AFE61
:104D40006580E580258184F82450257000F064FE9C
:104D50003CA0F0E700F04EFE608840F00800608064
:104D60000320207000F058FE3BA0E4E7002200E0A2
:104D70000122DDE9000100F031FFFEBD029D00F0DF
:104D800039FE0DB1012000E0002084F82700FDF776
:104D900027FC00F05DFD00F03FFE0DB1012100E0B9
:104DA000002130A000F0B0F8FEBD32A0C3E7000043
:104DB00068656C70000000007374617475730000A6
:104DC000656E61626C650000C400002073746F70D2
:104DD00000000000636C6561720000006573746F11
:104DE0007000000070776D202564202564000000AD
:104DF00073706565642025642025640072656C61AC
:104E0000792025640000000062656570202564003B
:104E100045525220756E6B6E6F776E20636F6D6DAD
:104E2000616E643A2025730D0A0000004F4B206527
:104E30006E61626C650D0A004F4B2073746F700DCC
:104E40000A0000004F4B20636C656172206661753B
:104E50006C74730D0A0000004F4B206573746F7003
:104E60000D0A00004F4B2072656C61793D25640D81
:104E70000A00000049474E4F5245442062757A7A35
:104E800065722064697361626C6564206279205286
:104E90004F424F545F42555A5A45525F454E414228
:104EA0004C453D300D0A000000F0B6F9322001F00B
:104EB000EBF8F9E70E4DDFF83C804FF4FA764FF44B
:104EC000005700BF00F096FD287803280CD0022878
:104ED0000CD0344600F0A0FD39464046FDF773FB88
:104EE000204601F0D1F8EDE76424F3E7C824F1E7A8
:104EF000C4000020001001404FF4FA74204601F075
:104F0000C3F801F051FEF9E70FB410B5E0B04FF46B
:104F1000C07463AB21466846629AFBF7F7F9002834
:104F200004DA012060B010BC5DF814FBA04201DB84
:104F300040F27F1082B2642369460248FFF70CF901
:104F4000F0E700005403002001488068704700002B
:104F5000040000200649002048808880886048704E
:104F600004490122087002490348FFF7C1B8000054
:104F700004000020A00100205403002070B5084C5C
:104F8000084DA0886188884209D0A088A188285C43
:104F9000491C01F07F01A18000F050FDF1E770BDD8
:104FA00004000020200100200149C8607047000073
:104FB000040000200648016841F080710160054846
:104FC00000214160016841F001010160704700006B
:104FD000FCED00E0001000E070B5074C0546666887
:104FE000FEF7FCF80549B0FBF1F169436068801BEE
:104FF0008842FBD370BD0000001000E040420F006B
:1050000010B53C210A48FEF799FC3C210948FEF7FF
:1050100095FC07490020096848620649096848620A
:1050200005490880488005490860486010BD0000B7
:10503000C40200200C030020140000200002002005
:105040002DE9F041074615480E460068416A1448AC
:105050000068436A134A548810881C1B25B2124CFE
:10506000081A118000B253802081658121680144B3
:105070002160616829446160394600F09FFCA0818D
:105080003946284600F09AFCE081002E03D094E8CF
:105090000F0086E80F00BDE8F0810000C402002088
:1050A0000C030020140000200002002008B101229F
:1050B00000E0002240210148FDF78DBA00080140C0
:1050C00010B500210948FEF7D5FD0C210748FEF771
:1050D000D1FD06480068416C41F40041416400F094
:1050E0003DF8BDE810400020FFF7E0BF7C02002043
:1050F000F8B50D4600F000FC0446284600F0FCFB25
:10510000134905460C80488054EA050000D0012070
:10511000FFF7CCFF0F4E4FF4805332465900104634
:10512000009401F0E9FD4FF4004332465910104657
:10513000009501F0E1FD204600F016FF064C2168C5
:105140000864284600F010FF21684863F8BD00009D
:1051500018000020000C01407C02002038B50D48EA
:1051600000240D4D048044804FF480532A4659009A
:105170001046009401F0C0FD4FF400432A46591038
:105180001046009401F0B8FD044801680C64006802
:10519000446338BD18000020000C01407C02002050
:1051A000002803D018220249FBF78EB9704700008F
:1051B000100200201FB518211448FBF704FA14A0B0
:1051C000322200680390022103A88DE80700012322
:1051D000002280210F48FDF7B9FD00226B216820D5
:1051E00000F0D2FE70B103221A21682000F0CCFE3C
:1051F00000221B21682000F0C7FE00221C2168202D
:1052000000F0C2FEBDE81F4000F02ABE10020020E0
:10521000399F0000280200207FB5FDF7E1F9184D05
:1052200004466868201A64281BD36C60022203A914
:10523000CDE9001232200290802101231148FDF7B0
:1052400057FC08B1002107E0BDF80C000E4940BA38
:10525000C008800048800121012001F065FD00F0B8
:10526000D1FEA868201AB0F57A7F02D3AC6000F0B6
:1052700009FD04B02046BDE8704000F021BE0000EA
:105280001C0000202802002010020020FFF7AEBC06
:10529000FFF710BE10B54FF0E020006902F0C4FC2B
:1052A000012803D0BDE8104002F0BAB810BD30B5F7
:1052B0008FB028216846FBF7A8F914210AA8FBF74C
:1052C000A4F901210804CDE900100024029402256C
:1052D0000491CDE907504FF4E01009906846FDF7BE
:1052E000C9FF08B172B6FEE70F20CDE90A054FF4F9
:1052F0008060CDE90C4002210AA80E94FDF7B8FEAB
:10530000002801D072B6FEE70FB030BD7047000034
:105310000148FEF75BBB0000E4030020F0B5026823
:10532000194B1A4C1A4D4FF08047984205D0B8429D
:1053300003D0A04201D0A84203D122F070064A68EF
:105340003243984205D0B84203D0A04201D0A842CF
:1053500003D122F44074CA6822434C6922F08002CF
:10536000224302608A68C2620A688262984201D15E
:1053700009690163012141610169C90703D001691C
:1053800021F001010161F0BD002C0140000400404A
:105390000008004010B501F01F030121046A994084
:1053A0008C430462016A9A401143016210BD10B53A
:1053B000846842EA032224F47F440A432243826041
:1053C00010BD826822F070020A4342F0070181603A
:1053D0007047000030B5036A026A22F001020262DF
:1053E0004268846924F073050C682C4323F002059D
:1053F0008B682B430A4DA8420BD123F00805CB68DC
:1054000022F440722B434D6923F0040315438A694B
:105410002A434260846149684163036230BD0000F1
:10542000002C014030B5026A036A23F010030362C6
:10543000436884690D6824F4E64444EA05248D68D1
:1054400022F0200242EA05120B4DA8420ED1CD688F
:1054500022F0800242EA05124D6923F4406343EAD8
:1054600085038D6922F0400243EA8503436084612D
:1054700049688163026230BD002C014030B5036A87
:10548000026A22F4807202624268C46923F40073E3
:1054900024F073050C682C438D6843EA05230C4DFA
:1054A000A8420ED1CD6823F4006343EA05234D6979
:1054B00022F4405242EA05128D6923F4806342EAE5
:1054C00005124260C4614968C163036230BD0000D7
:1054D000002C014030B5046A026A22F48052026254
:1054E0004268C3690D6823F4E64343EA05238D68E7
:1054F00024F4005444EA0534064DA84204D14D6911
:1055000022F4804242EA85124260C3614968016424
:10551000046230BD002C014010B5036A046A24F017
:1055200001040462846924F0F00444EA021423F0C4
:105530000A020A438461026210BD10B5036A046A5C
:1055400024F010040462846923F0A00324F470445E
:1055500044EA023243EA01118261016210BD10B5D2
:10556000406A0021C185C184FEF7DEFB10BD0168E1
:105570000C3151E8002F22F4907241E80023002BF7
:10558000F5D10168143151E8002F22F0010241E801
:105590000023002BF5D1016B012909D101680C31E1
:1055A00051E8002F22F0100241E80023002BF5D132
:1055B000202180F8421000210163704708B590F85F
:1055C0004210222901D0022008BD82684FF4805386
:1055D0009A4201D1016921B1816A9A421BD04AB134
:1055E0000AE00268816A5268C2F308020A80816A8E
:1055F000891C08E0026972B10268526802F07F02F9
:105600000A70816A491C8162C18D491E0904090C16
:10561000C18503D01BE002685268F1E70168CA68DF
:1056200022F02002CA600168CA6822F48072CA604F
:1056300001684A6922F001024A61202180F8421083
:1056400000214163026B012A03D0FEF75FFD0020B9
:1056500008BD016301680C3151E8002F22F01002EF
:1056600041E80023002BF5D101680A68D20602D573
:105670000A6849680091818DFEF755FBE7E7000055
:1056800070B5044600680169E26821F44051114395
:1056900001612169A0680843616908432168CA68FB
:1056A00041F20C639A430243CA6020684169A269CF
:1056B00021F44071114341611E492068884202D1A2
:1056C000FDF7A2FD01E0FDF78FFD00EBC00101EB4E
:1056D0000012606864218000B2FBF0F3B3FBF1F3C9
:1056E0006FF018067343B2FBF0F5B2FBF0F605EB72
:1056F0008305322303EB0515B5FBF1F5B6FBF1F697
:1057000005F0F00505EB0615B2FBF0F6B2FBF0F084
:10571000B0FBF1F06FF01802504306EB800003EB92
:105720000010B0FBF1F0216800F00F002844886001
:1057300070BD00000038014081628285C285002171
:105740004164222180F84210016921B10168CA68D0
:1057500042F48072CA6001684A6942F001024A61FB
:105760000068C16841F02001C160002070472DE948
:10577000F843984617460D460446089E24E0701CE0
:1057800022D0FCF72DFFA0EB0800B0421AD8CEB112
:105790002068C168490717D5802D15D0402D13D03A
:1057A0000168C94309070FD40168002540680090CB
:1057B0002046FFF7DCFE0820606484F8405001209A
:1057C000BDE8F8830320FBE72068006835EA0000A5
:1057D00004D00020B842D2D00020F1E70120F9E740
:1057E0000148FEF7B1BA0000540300200148FEF75B
:1057F000ABBA00009C030020FEE7490050EAC1203C
:1058000018BF04204A0D18BF40F0010040F2FF729B
:10581000B2EB515F08BF40F00200012808BF05202D
:1058200070470907090E002804DB00F1E02080F82A
:105830000014704700F00F0000F1E02080F8141D04
:10584000704730380A2801D2012070470020704785
:1058500070B52149002241F28834CB6AC31AA342B1
:1058600006D3C86291F8290080F0010081F8290070
:1058700091F8440000070DD5B1F94C0041F29413A2
:10588000984201DB012003E0B0F57A6F02DC0020D2
:1058900081F8280091F8270040B991F8280028B92C
:1058A00091F8290010B98878400701D5012400E05B
:1058B000002481F83020094D002201212846FCF700
:1058C0008AFE0CB1012200E000222846BDE87040AB
:1058D0000221FCF780BE0000C4000020000C014043
:1058E000008840BA00B27047904201DD1046704710
:1058F0008842FCDA084670474FF47A71884202DC2D
:105900004942884200DA084670474FF47A7188426B
:1059100002DC4942884201DA0846704700B270470B
:1059200070B5FCF75DFE054623490A20FFF788FBAA
:1059300021481030FFF734FC284601F01FFA1E4CB6
:105940000026343C2078022809D06681A681266191
:105950006661FFF703FC0020FFF7A8FB14E0207945
:10596000012816D0B4F90600FFF7CFFF6081B4F923
:105970000800FFF7CAFFA08126616661B4F90C1028
:10598000B4F90A00FFF7B4FB2846BDE87040FFF702
:105990005FBF094AB4F94010B4F90600243A01F097
:1059A000CDF96081044AB4F94210B4F90800203AF4
:1059B00001F0C4F9A081E1E7F800002081B14FF4C3
:1059C0007A72504390FBF1F0CC2148434FF4A5612B
:1059D00090FBF1F0B0F5004F04DB47F6FF7005E0F7
:1059E000002070470249884200DA084600B270473A
:1059F0000080FFFF10B5074C2068002809D000F098
:105A000067FB022805D12068BDE81040142100F092
:105A1000A5BB10BD0000002010B5074C2068002871
:105A200008D000F055FB022804D12068BDE81040E2
:105A300000F0F1BB10BD00000000002070B50D2883
:105A400010D0104C00250E4E61780A280BD0082883
:105A500012D07F2810D05F2904D27054491CC8B2DC
:105A60006070355470BD755419B1E16809B10448CE
:105A700088476570357070BD0029FCD0491EEEE77F
:105A8000A00100200400002010B50CA0FFF73CFA94
:105A900012A0FFF739FA20A0FFF736FA2AA0FFF785
:105AA00033FA36A0FFF730FA41F288313FA0FFF712
:105AB0002BFABDE810403CA0FFF726BA0D0A526F42
:105AC000626F7420626173652055415254312064C5
:105AD00065627567206D6F64650D0A00436F6D6DBB
