:020000040800F2
:1000000048380020CD020008554C0008E3420008A3
:10001000514C000813230008915E00080000000006
:100020000000000000000000000000003502000891
:100030001723000800000000790200082959000871
:10004000E7020008E7020008E7020008E7020008EC
:10005000E7020008E7020008E7020008E7020008DC
:10006000E7020008E7020008E7020008E7020008CC
:10007000E7020008E7020008E7020008E7020008BC
:10008000E7020008E7020008E7020008E7020008AC
:10009000E7020008E7020008E7020008E70200089C
:1000A000E7020008E7020008E7020008E70200088C
:1000B000E7020008A9590008E7020008E702000863
:1000C000E7020008E7020008E7020008E70200086C
:1000D000E7020008795E0008855E0008E702000874
:1000E000E7020008E7020008E702000800F002F853
:1000F00000F090F80AA090E8000C82448344AAF132
:100100000107DA4501D100F085F8AFF2090EBAE82F
:100110000F0013F0010F18BFFB1A43F0010318473B
:10012000288F0000488F0000103A24BF78C878C19B
:10013000FAD8520724BF30C830C144BF04680C60ED
:10014000704700000023002400250026103A28BF35
:1001500078C1FBD8520728BF30C148BF0B60704739
:100160006E2900F07B83702900F0C584662908F0B1
:100170007F85652908F07C85672908F079856129E4
:1001800008F0788503681B0A28BF41F080016929BF
:1001900000F02883642900F02583752900F022836C
:1001A0006F2900F05284782900F09184E92900F049
:1001B000ED83E42900F0EA83F52900F0E783EF29D5
:1001C00000F04F84F82900F090840368DB0928BF11
:1001D00041F08001632901F0DF81732901F0E4819E
:1001E000E32901F0EF81F32901F0F4810020704749
:1001F0001FB501F0FBFB04000020002108F022FDE8
:10020000401C60600020002108F006FDE0601FBD7A
:1002100010B510BD01F0BCFB1146FFF7E9FF06F079
:100220009DF901F099FC03B4FFF7F2FF03BC01F064
:10023000A1FC0000224B19680868B0E8F00F80F3B9
:100240000988BFF36F8F4FF0000080F311884EF0E4
:100250000D0E70470000000006480068006880F33B
:10026000088862B661B6BFF34F8FBFF36F8F00DFB0
:1002700000BF00BF08ED00E0EFF30980BFF36F8F10
:100280000F4B1A6820E9F00F106008B54FF05000CE
:1002900080F31188BFF34F8FBFF36F8F07F094FC8B
:1002A0004FF0000080F31188BDE808401968086825
:1002B000B0E8F00F80F30988BFF36F8F704700BF7D
:1002C00058000020EFF30580704700000948804780
:1002D00009480047FEE7FEE7FEE7FEE7FEE7FEE728
:1002E000FEE7FEE7FEE7FEE704480549054A064B40
:1002F00070470000A7590008ED00000848320020B0
:100300004838002048340020483400207CB51D4681
:1003100016460C00009001D02044401E074B7B4441
:100320002A4669460190304600F0B1FA05461CB1F4
:100330000020694600F0BEFA28467CBD9D050000FD
:100340000FB400B58DB010A9099000910B904FF03B
:10035000FF300A9000200C9006487844069006482A
:1003600078446A4607900F9909A800F0A7FC0DB0E1
:100370005DF814FB7F090000970900002DE9FF5F7D
:100380001D464FF0FF3B91464FF000085F46D5E910
:100390000146A96901987F1C8847296A82468847D7
:1003A0000028F6D1BAF1FF3F0CD0002E24F4C0642F
:1003B00019DD600614D5BAF12B0F09D0BAF12D0F53
:1003C0000ED103E0584604B0BDE8F09F44F48064C9
:1003D000A96901987F1C8847761E8246002E02DD9F
:1003E000BAF1300F03D0B9F1000F26D032E0A9697D
:1003F000761E01987F1C44F400748847002E8246C4
:1004000005DDBAF1780F06D0BAF1580F03D0B9F173
:10041000000F10D01EE0B9F1000F02D0B9F1100F9B
:1004200018D1A969761E01987F1C24F400748847AE
:100430008246102002E0082000E00A20814609E000
:10044000A96908FB0908761E01987F1C44F4007412
:1004500088478246002E05DD4946504600F01AFCCA
:100460000028EDDAE96901988847A00502D46FF009
:100470000100A8E7E00725D1600613D5600502D585
:10048000C8F1000000E0404629680A1D2A6009689A
:10049000220501D5087015E0220701D5088011E07A
:1004A00008600FE02868011D29600068210502D559
:1004B00080F8008006E0210702D5A0F8008001E066
:1004C000C0F8008038467EE710B5431C02E010F803
:1004D000011B71B18107FAD14FF0013202C88C1AA9
:1004E0008C4314EAC211F9D0C01A0A0603D0C01E08
:1004F00010BDC01A10BD0A0401D0801E10BD090233
:10050000FCD0401E10BD032A40F2308010F0030CD6
:1005100000F0158011F8013BBCF1020F624498BF56
:1005200011F801CB00F8013B38BF11F8013BA2F1F3
:10053000040298BF00F801CB38BF00F8013B11F06E
:10054000030300F02580083AC0F0088051F8043B0E
:10055000083A51F804CBA0E80810F5E7121D5CBF7B
:1005600051F8043B40F8043BAFF30080D20724BFAE
:1005700011F8013B11F801CB48BF11F8012B24BF42
:1005800000F8013B00F801CB48BF00F8012B704791
:1005900010B5203AC0F00B80B1E81850203AA0E81E
:1005A0001850B1E81850A0E81850BFF4F5AF5FEA52
:1005B000027C24BFB1E81850A0E8185044BF18C905
:1005C00018C0BDE810405FEA827C24BF51F8043BAC
:1005D00040F8043B08BF7047D20728BF31F8023B00
:1005E00048BF11F8012B28BF20F8023B48BF00F894
:1005F000012B704702F0FF0343EA032242EA024262
:1006000000F002B84FF000020429C0F0128010F090
:10061000030C00F01B80CCF1040CBCF1020F18BFDE
:1006200000F8012BA8BF20F8022BA1EB0C0100F071
:100630000DB85FEAC17C24BF00F8012B00F8012B44
:1006400048BF00F8012B70474FF0000200B5134679
:1006500094469646203922BFA0E80C50A0E80C50E2
:10066000B1F12001BFF4F7AF090728BFA0E80C5093
:1006700048BF0CC05DF804EB890028BF40F8042B8C
:1006800008BF704748BF20F8022B11F0804F18BFF9
:1006900000F8012B704700004FF0013C50F8042B8C
:1006A00051F8043B9A4221D1A2EB0C03934313EA85
:1006B000CC1317D150F8042B51F8043B9A4215D1B2
:1006C000A2EB0C03934313EACC130BD150F8042B89
:1006D00051F8043B9A4209D1A2EB0C03934313EA6D
:1006E000CC13DBD04FF00000704700BFD01A01BA26
:1006F000B1FA81F101F0180122FA01F0CB40C1F109
:100700002001DBB2C0B2C01A2CFA01F3D11A914316
:1007100011EAC311E6D1704770477047704770B552
:10072000044685690068C10601D5302600E0202610
:10073000C00707D070BDD4E9012130469047206A38
:10074000401C20626D1EF6D570BD70B504468569EB
:100750000078C00707D170BDD4E90121202090475F
:10076000206A401C20626D1EF6D570BD09684A05DE
:1007700001D540B27047C905FCD500B27047096881
:100780004A0501D5C0B27047C905FCD580B2704793
:1007900070B50C460546012A05D02878800600D59C
:1007A000EA69002302E0012305E05B1C934202D2C8
:1007B000E05C0028F9D1A869E618C01AA861286A87
:1007C000184428622846FFF7AAFF04E0D5E9012172
:1007D00014F8010B9047B442F8D32846FFF7B5FF51
:1007E00070BD00002DE9F04106460024106875290F
:1007F000314616A510D0FFF7B9FF002802DA4042B3
:1008000013A507E031688A0701D512A502E0490760
:1008100004D511A5012401E0FFF7B1FF00210A2250
:1008200006F1240709E0B0FBF2FCB0FBF2F302FB97
:100830001C00303078541846491C0028F3D1234658
:100840002A463046BDE8F04100F0B6BA000000008C
:100850002D0000002B00000020000000116802683D
:10086000006A530501D508700AE0D30501D5088058
:1008700006E0130603D5C217C1E9000200E00860D4
:100880000120704701694A1C02610878704700B571
:100890008FB0CDE901310021059105497944CDE9B9
:1008A00003101146684600F031F90FB000BD00009A
:1008B000E5FFFFFF0A6802F8010B0A607047D1E903
:1008C00000239A4202D2531C0B6010707047000044
:1008D0002DE9FF5F15468A460446DFF8AC80F844F0
:1008E0000027D8E900103E46CDE9001010E03AF8A4
:1008F00016106A4602A801F02BF8411C07D0217897
:10090000890603D5E269391891420DD80744761C4F
:100910002078800602D5E069B84205DDAE42E6DB0C
:100920003AF816000028E2D1A069C01BA061204659
:10093000FFF7F5FED8E90010CDE90010002017E020
:100940003AF818106A4602A801F002F8B0F1FF3F29
:1009500081460BD000250DF1080B05E0D4E90121FB
:100960001BF8050090476D1C4D45F7D308F10100B9
:10097000B0428046E4DB206A384420622046FFF71C
:10098000E4FEBDE8FF9F0000868400002DE9F041F1
:100990008046D21D22F007020025D2E90002F52987
:1009A00015A614D0011E72F1000106DA0023D0EB67
:1009B000030063EB020211A608E0D8F800108B07D1
:1009C00001D50FA602E0490701D50EA60125114663
:1009D000002408F1240704E000F0A0F930323A5571
:1009E000641C50EA0102F7D12B46324621464046AC
:1009F000BDE8F04100F0E0B9000000002D0000006B
:100A00002B0000002000000030B4002100F124047D
:100A100008E002F00705D208303542EA4372DB08ED
:100A20006554491C52EA0305F3D10468002310A25F
:100A3000250707D5A40600D421B1C46901230DA25E
:100A4000641EC46130BC00F0B7B910B5044621463D
:100A50001068FFF794FE02462046BDE810400023D0
:100A6000D2E7D21D22F00701D1E90023CCE7000034
:100A70000000000030000000F0B40D4601880905B8
:100A800002D5214C7C4402E01F4C7C440E340021F2
:100A900000F1240608E002F00F071209E75D42EAC0
:100AA00003721B097754491C52EA0307F3D10278F9
:100AB0000023120704D5702D06D009B1022311348A
:100AC0002246F0BC00F078B901231034F8E770B585
:100AD00004460D4621461068FFF751FE024629469E
:100AE0002046BDE870400023C6E7D21D22F0070370
:100AF000D3E90023C0E70368126843F020030360D2
:100B00000823C3610023B7E7E88200002DE9F05F06
:100B1000894604464FF0000ADFF874B1FB44C0F880
:100B200020A02046E1688847002874D0252806D0F8
:100B3000D4E901219047206A401C2062F1E7002699
:100B40005F462046E16888472028054607DB312DAF
:100B500005D2781910F8200C08B10643F1E7B00768
:100B600001D526F00406C4F81CA00027C4F818A07C
:100B70002A2D09D0284605F0B1F938B304EB8708CF
:100B8000303DC8F8185019E059F8041B204604EB12
:100B900087029161E1688847012F054618D1E06915
:100BA000002820DA26F020061DE0D8F8180000EB17
:100BB000800005EB40003038C8F818002046E16896
:100BC0008847054605F08AF90028EED1012F0AD0A2
:100BD0002E2D08D12046E16888477F1C0546022F4C
:100BE00046F02006C4DBA069002803DA404246F044
:100BF0000106A061F00701D026F010066C2D0BD085
:100C0000682D09D04C2D39D06A2D35D0742D35D0B2
:100C10007A2D33D016E038E0E1682F462046884729
:100C2000B842054609D16C2F26D04FF48060E168A8
:100C3000064320468847054604E06C2F1AD04FF43F
:100C4000807006430DB3A5F14100192802D8203564
:100C500046F400664A462946204626604E46FFF77F
:100C60007FFA80B101280BD0F61D26F0070000F1B5
:100C7000080956E74020E4E78020D8E70020D6E7BF
:100C800006F104094DE7284652E7206ABDE8F09FC7
:100C9000788200003A2800D2303820F02002412A21
:100CA00001D3A2F13700884201D34FF0FF307047E3
:100CB000026811441378016018467047D1600549F5
:100CC000794451610449794411620021116111464E
:100CD00000F084BCEDFFFFFFDD000000426842B180
:100CE000016811F8013B23B1521EC0E900121846F9
:100CF00070470121C160881E704742685AB1C368BD
:100D0000016843B983688B4205D0491E521CC0E973
:100D10000012002070474FF0FF30704730B5B0F13F
:100D20000A024FEA900E71F100034EEA817EB0EBA9
:100D30000E0061EB91014FEA101E4EEA017E10EBAE
:100D40000E0041EB11114FEA102E4EEA016E10EB2E
:100D50000E0041EB11214FEA104E4EEA014E10EB0E
:100D60000E0041EB1141401841F100014FEAD00063
:100D700040EA41704FEAD10110EB80054FEA81044F
:100D800044EA907444EB01046D1944EB0404521BD3
:100D9000A3414FF0000348BF0A3200D530BD401CCC
:100DA00041F1000130BD10B5044600F017FE0068A7
:100DB000005D00F0010010BD2DE9F0470D46994699
:100DC0009246044600F124080168880604D5E069CB
:100DD00021F01001216000E00120A84201DD471B45
:100DE00000E00027A1697A1902EB0900081AA06146
:100DF0002078C00602D42046FFF791FC002608E0C8
:100E0000D4E901211AF806009047206A401C761C9C
:100E100020624E45F4DB2078C0060AD52046FFF755
:100E20007EFC06E0D4E9012130209047206A401C76
:100E30002062381EA7F10107F4DC07E0D4E90121A4
:100E400018F805009047206A401C2062281EA5F172
:100E50000105F3DC2046FFF778FC2078000602D578
:100E60000220BDE8F0870120FBE770472DE9FF4F26
:100E70000C461E464FF0FF378BB0D2E90001DDF87B
:100E800060800A908A46C1F30A5505B93D460021A3
:100E900008464FF00000BAF1000F00F4400005DAF8
:100EA00000EB80004FF4400101EA50004FEA9059F6
:100EB000B9F1010F00DDB9460A9850EA4A000ED098
:100EC00044F61050A5F2FF3545432F14B8F1000F3A
:100ED0001ED07542291E1EDDC9F100021CE0B8F1CA
:100EE000010F4FF0000001D0302103E0F24305E094
:100EF0002154401CB042FBDB30460022002121542B
:100F00000B99C1F80880C1E900200FB0BDE8F08F4F
:100F1000BD1B6D1CDEE74A4600DA694206A800F0F8
:100F2000A9FD06AB93E8070003AB83E80700504632
:100F30000A9900F026FE8DE80700A0F500501F3842
:100F400000900398002D0ADD42F21F014A46084432
:100F5000002303A90390684601F08FF809E0A0F58B
:100F600000504A461F38002303A90390684601F049
:100F700099F88DE807000004000C03D04FF0FF3013
:100F8000410800E01046B8F1000F03D000220092A3
:100F900015461EE0751E05D4FFF7C0FE30326255BF
:100FA0006D1EF9D5B3460122084302D000227F1CF2
:100FB00004E02078302801D100227F1E002A099702
:100FC00084D01DE0112D07DAFFF7A8FE30326255FC
:100FD0006D1C50EA0102F5D1084302D00098C8B157
:100FE0000EE00021681E05E0235C625C635422541D
:100FF000401E491C8142F7DBAB46A81B401E0990EE
:10100000002004F80B000B98099AC0F80880C0E98A
:10101000002B7AE711264FF0000857E72DE9F04F33
:1010200088460446D21D22F0070191B0D1E90001A3
:10103000CDE90A0104F02EFF02460B98C00F01D043
:101040002D2007E02068810701D52B2002E0202118
:1010500001EAC000032A099001D0072A05DB0346F4
:101060004146204600F0C6FC0BE12078800601D501
:10107000E06900E00620B8F1650F814606D0B8F1BE
:10108000660F18D0B8F1670F70D131E00020B9F1C8
:10109000110F009001DB112301E009F101030AAAFD
:1010A00001A90CA8FFF7E2FEDDE90C70002609F1AA
:1010B0000105834647E001204B4600904FF0004772
:1010C0000AAA01A90CA8FFF7D1FEDDE90DB00C9921
:1010D0005D46002610B909F101000D18B9EB0500B5
:1010E00003D4C0F1FF3609F10105A5EB09002BE09F
:1010F000B9F1010F01DA4FF001090020B9F1110F28
:101100000090484601DD112300E003460AAA01A928
:101110000CA8FFF7ABFEDDE90C704D4600268346B8
:10112000207800070AD4AB4500DA5D4601A8012DFE
:1011300004DD411911F8011C302907D04F4502DAAE
:1011400017F1040F04DA012082460FE06D1EEEE76E
:10115000002F02DCED1B3E4403E0781CA84200DDBA
:101160007D1CB81B00F1010A4FF0004720780007F2
:1011700003D4AA4501DB4FF0FF3A0021B7F1004F3D
:101180000DF143088DF8431024D002202B23002FAB
:1011900001DA7F422D230A21021EA0F1010000DCAA
:1011A0005FB197FBF1FC97FBF1F201FB1C7C17464A
:1011B0000CF1300C08F801CDEEE7A8F10100037046
:1011C0002188090501D5452100E06521A0F101082C
:1011D00000F8011C09980FA9A1EB0807FF1D00B139
:1011E0000120411901EBEA70A1693844081A401E38
:1011F000A0612078C00602D42046FFF790FA099833
:1012000028B1D4E901219047206A401C206220784F
:10121000C00622D52046FFF782FA1EE0002E04DB2E
:10122000B34502DD01A8805D00E03020D4E9012152
:101230009047206A401C2062761CAAF101005FEAF8
:10124000000A0AD100F0D2FBC0680168405CD4E912
:1012500001219047206A401C2062281EA5F101054B
:10126000DCDC07E0D4E9012118F8010B9047206A83
:10127000401C2062381EA7F10107F3DC2046FFF76F
:1012800064FA032011B041E62DE9F04F04460D4603
:10129000D21D22F0070089B0D0E9009748463946B0
:1012A00004F0F8FD0246F80F01D02D2307E0206876
:1012B000810701D52B2302E0202101EAC0038DF82C
:1012C00020300BB1012000E00020032A824601D02B
:1012D000072A04DB2946204600F08CFB3FE12078FA
:1012E000800601D40D2500E0E569C7F30A560D2DEF
:1012F00049DA00214FEA175B08464FF00000002F43
:1013000000F4400007DA00EB80004FF4400100EBEE
:10131000D07001EA60008115012901DD4FF0FF3135
:1013200000224FEA850CBCF1180F06D31346ACF12E
:1013300018004FF08052C24003E04FF4801323FAAC
:101340000CF30CF10C0CBCF1200F04D3ACF1200C0D
:1013500009FA0CF001E007FA0CF000294FF0004800
:1013600001DD18B90FE00ED140450CD319EB02098D
:101370005F4121B9404502D19F4329EA0209BBEBF5
:10138000175F00D0761C2088000502D57B48784482
:1013900002E07A487844193808AA302302F80A3063
:1013A000037C0AF10101002E0AF1020A53546A4635
:1013B00002DC4FF0300101E04FF031014FF0010845
:1013C0008DF8001002D0A6F2FF3603E059EA47017B
:1013D00000D06B4E002D02DC2178090704D54FF0B8
:1013E00002082E218DF80110C44600210BE0C7F33E
:1013F00003433F01C35C491C6D1E02F808300529F8
:1014000008F1010801DA002DF1DC00210CE000EB0D
:101410001973491C1B786D1E082902F808304FEA21
:10142000091908F1010801DA002DF0DC21688B06AA
:1014300002D516E0A8F10108E04505DD02EB08033E
:1014400013F8013C302BF5D0B8F1000F09DD02EBA9
:10145000080313F8013C2E2B03D1090701D4A8F18E
:101460000108002D05DD3E2102F808106D1E08F16F
:101470000108407C002E02F8080008F1010804DA97
:101480002D20764202F8080002E02B2002F8080026
:101490000A214FF47A70864208F101080BDB96FBB3
:1014A000F0F3303302F8083096FBF0F308F101084E
:1014B00000FB136601E0642E0CDB642096FBF0F366
:1014C000303302F8083096FBF0F308F1010800FB16
:1014D000136601E00A2E06DB96FBF1F0303002F8CD
:1014E000080008F1010896FBF1F001FB10603030B4
:1014F00002F80800A16908F1010808EB050202EBF7
:101500000A00081AA0612078C00602D42046FFF71E
:1015100006F9216A08AE01EB0A00206204E0D4E972
:10152000012116F8010B9047BAF1010AF7D2207891
:10153000C00602D52046FFF7F2F86E4609E016F81D
:10154000010B3E280FD0D4E901219047206A401CAE
:101550002062B8F10108F2D22046FFF7F6F809B090
:101560000320BDE8F08F206A2844206203E0D4E91C
:101570000121302090476D1EEBD3F8E72A7A000056
:1015800002FCFFFF10B5436913B1AFF3008001E027
:10159000FFF7FEF8012010BD127800F124010A7057
:1015A00000224A700122EDE711684FF0FF32E9E7AF
:1015B00010B5436913B1AFF3008001E0FFF788F97C
:1015C000012010BD128800F1240182840022C2840F
:1015D0000122EDE711684FF0FF32E9E72DE9F34F03
:1015E0004FF0000A0C4656468DB001200C9001F1D8
:1015F0000C000B9062690B9801219047051E2DD0BD
:10160000252D2CD0216A8847C0B162690B98012131
:101610009047216A88470028F7D16269411E0B98DC
:10162000904700E0761CA1690D988847216A884799
:101630000028F7D1E1690D988847DBE7A1690D988B
:101640008847A842074601D1761CD3E7E1690D9887
:1016500088477F1C02D1BAF1000F6FD06CE162693C
:101660000B9800273D46394690472A2804D16269E5
:101670000B98012190470125DFF8D08262690B9811
:1016800001219047A0F130010A290AD24745E5DC43
:1016900007EB870100EB4107303FDFD445F0100531
:1016A000ECE7E90601D46FF000476C280AD04C281B
:1016B00014D0682815D06A280DD074281CD07A2838
:1016C0001AD01DE062690B98012190476C2802D066
:1016D00045F0040514E045F002050DE045F0200555
:1016E0000AE062690B9801219047682802D045F012
:1016F000080505E045F4006562690B9801219047F3
:10170000C4E9015765283DD019DC58287AD00CDC93
:10171000452837D004DC252826D041289ED131E049
:1017200046282FD0472899D12CE05B2877D0612814
:1017300028D063287CD0642823D15AE0F7E06F28B2
:1017400048D008DC66281DD067281BD0692821D026
:101750006E2816D127E0702845D0732868D07528E8
:1017600047D078280DD14DE0A1690D9888472528EC
:1017700005463FF469AFE1690D9888476D1C3FF459
:101780006AAFD9E00D9923466A466FF00100AFF3C6
:101790000080C6E045F0400023464FF00002606044
:1017A000A80736D43EE0E8077FF447AF2068011D64
:1017B00021600068290501D506701BE7290701D5BE
:1017C000068017E7A90703D5F117C0E9006111E703
:1017D00006600FE745F0400023464FF008026060C6
:1017E000A80716D41EE040F60E0125EA010060604D
:1017F00016E045F0400023464FF00A026060A8075B
:1018000007D40FE045F040006060A80708D52346E4
:1018100010220D996FF00100AFF3008081E007E026
:10182000102223460D996FF00100FEF7A7FD78E026
:101830004FF0000963284F46C8464B46CB4602D0BE
:101840005B2807D039E02079C00601D40120A060D0
:10185000012732E06269D4F80CB00B98012190475F
:101860005E2807D14FF0010949466269D4F80CB0EF
:101870000B989047216939B900210A4603AB43F818
:101880002120491C0829FADBD8B3216949B308F1A2
:10189000010862690B98012190475D28F4D1B9F1E4
:1018A000000F09D0002003A951F82020D24341F8AD
:1018B0002020401C0828F7DB03AB20690028207992
:1018C0004FEA40701ED05B462246CDF80080CDE93D
:1018D00001970D9900286FF0010020DAAFF3008026
:1018E0001FE0C11703AA00EBD1614B1121F01F01CA
:1018F00002EB8302411A13680120884003431360FE
:10190000C7E719E00D99224600286FF00100009703
:1019100002DAAFF3008004E0AFF3008001E0AFF340
:10192000008000280ADA401C06D10C9820B14FF044
:10193000FF300FB0BDE8F08F5046FAE7E90701D15C
:101940000AF1010A064400200C9053E6CCCCCC0CE2
:1019500070B516460C46054600F040F8036893F84B
:101960000101012806D0FF2C0FD8185D68B10120B5
:101970002C7070BDD3F807013246214603F20713DD
:1019800003442846BDE8704018474FF0FF3070BD53
:10199000754600F0EBF8AE4605006946534620F068
:1019A0000700854618B020B5FEF79EFCBDE8204034
:1019B0004FF000064FF000074FF000084FF0000B0B
:1019C00021F00701AC46ACE8C009ACE8C009ACE8BE
:1019D000C009ACE8C0098D467047000010B500F0A2
:1019E00005F8001D10BD00BF5D7200000048704783
:1019F000083200202DE9F0411F4604460326016805
:101A0000072A01F4006004DB08B116A505E016A55D
:101A100003E008B115A500E015A521F01000206035
:101A2000A069C01EA0610FB1401EA0612046FEF754
:101A300076FE4FB1D4E9012138469047206A401C18
:101A40002062C01C206206E0206AFAE7D4E9012186
:101A500015F8010B9047761EF8D22046FEF775FE6A
:101A6000BDE8F0814E414E006E616E00494E460069
:101A7000696E66002DE9F047814616468AB0354802
:101A800078440DC88DE80D0032487844801C03ACC2
:101A90000DC884E80D0041F69B300844372190FBC7
:101AA000F1F290FBF1F5A5F1800501FB12041B3C5E
:101AB00002D56442012000E00020DFF898A08046B3
:101AC0000027FA44AAF1BE0A0EE0E0070AD0324627
:101AD000684607EB470101230AEB810100F0E2FAB7
:101AE0008DE8070064107F1C002CEED1194F7F4455
:101AF000AE3F19E0E80715D007EB04100DF1180A06
:101B000090E80E008AE80E00C068F04201D19819F2
:101B100008903246012306A903A800F0C3FA03ABDC
:101B200083E807006D10641C002DE3D14FF0010322
:101B300032466946B8F1000F03A802D000F09DFAC2
:101B400001E000F0AFFAC9E90001C9F808200AB0C5
:101B5000BDE8F087C873000010B50446AFF30080FD
:101B60002046BDE81040FEF75EBB0000004870470D
:101B7000E831002001491820ABBEFEE72600020034
:101B800070475FEA400C08BF91F0000F4FEA8C23CA
:101B90004FEAC12243EA51514FEA1C5018BF00F5E9
:101BA000F0404FEA300018BF41F000415FEA6C5C42
:101BB00000F02980BCF1FF3F08BF40F08040704733
:101BC000130C06BF12044FF0100C4FF0000C130E54
:101BD00004BF12020CF1080C130F04BF12010CF128
:101BE000040C930F04BF92000CF1020CD30F04BF3E
:101BF00052000CF1010C11464FF00002A0F11F0041
:101C0000A0EB0C00704711F0004F08BF704731F097
:101C100000413FF4D5AF0B0C06BF09044FF0100C88
:101C20004FF0000C0B0E04BF09020CF1080C0B0F57
:101C300004BF09010CF1040C8B0F04BF89000CF1E7
:101C4000020CCB0F04BF49000CF1010CCCF12003B6
:101C5000A0EB0C0022FA03F302FA0CF241EA0301B2
:101C600000F10100704720F07F4C80EA030023F070
:101C70007F47ACEB070303F57C5300F0004003F112
:101C8000FF032DE980494FEA154B09B44FEA14438D
:101C900025EA0B4E24EA03480FF2042606EB13272D
:101CA00049083E785FEA320203FB0667C7F5000782
:101CB00007FB06F64FEA54374FEAD64606F102060E
:101CC00007FB066CCCF1005C4FEA1C472CEA074C82
:101CD00007FB06F40CFB06F504EB15464FEA9616D7
:101CE00034BF00204FF000404FEAD13706FB07FC1D
:101CF0004FEA1C4C0CFB0BF7D21B03FB0CF761EB00
:101D000007010CFB0EF7B0EB074072EB17420CFB20
:101D100008F734BFA2EB0742B2EB074261EB174171
:101D20004FEA0C444FEA910706FB07FC4FEA1C4CB4
:101D30000CFB0BF7B0EBC74072EB573203FB0CF711
:101D400034BFA2EBC742B2EBC74261EB57310CFB89
:101D50000EF7B0EBC70072EB57720CFB08F734BFFD
:101D6000A2EBC702B2EBC70261EB5771039F4FEAC8
:101D7000816141EA921104EBCC044FEAD1374FEA7A
:101D8000826206FB07FC42EA90124FEA80604FEA4B
:101D90001C4C0CFB0BF7D21B03FB0CF761EB070190
:101DA0000CFB0EF7B0EB074072EB17420CFB08F789
:101DB00034BFA2EB0742B2EB074261EB17414FEA97
:101DC0008C554FEA910704EB9C2406FB07FC4FEA75
:101DD0001C4C0CFB0BF7B0EBC74072EB573203FB0C
:101DE0000CF734BFA2EBC742B2EBC74261EB5731ED
:101DF0000CFB0EF7B0EBC70072EB57720CFB08F749
:101E000034BFA2EBC702B2EBC70261EB577115EB0F
:101E10004C254FEA816141EA92114FEA82624FEA12
:101E2000D13742EA901206FB07FC44F100044FEA66
:101E300080604FEA1C4C0CFB0BF7D21B03FB0CF72A
:101E400061EB07010CFB0EF7B0EB074072EB17429A
:101E50000CFB08F734BFA2EB0742B2EB074261EB81
:101E6000174115EB1C154FEA813141EA92414FEAC7
:101E7000823242EA90424FEA80304FEA0C7644F1D7
:101E8000000448EA03434EEA0B484FF0000EB2EB61
:101E9000080C71EB030724BF624639464EEB0E0E69
:101EA0004FF0000B0018524149414BEB0B0BB2EBCA
:101EB000080C71EB03077BF1000B24BF6246394627
:101EC0004EEB0E0E4FF0000B0018524149414BEB08
:101ED0000B0BB2EB080C71EB03077BF1000B24BF7B
:101EE000624639464EEB0E0E51EA020718BF46F025
:101EF000010616EB0E7655F1000254F1000103D5F0
:101F0000BDE88901BDE80088BDE88901BDE8004859
:101F1000B619524141EB0101A3F1010370478080E2
:101F20007F7E7D7C7B7A7978777676757473727133
:101F300071706F6E6E6D6C6C6B6A6A6968686766EB
:101F400066656464636362616160605F5F5E5E5D7D
:101F50005D5C5C5B5B5A5A595958585757565655F1
:101F600055555454535352525251515050504F4F53
:101F70004F4E4E4D4D4D4C4C4C4B4B4B4A4A4A49A3
:101F800049494848484747474746464645454544E6
:101F90004444444343434342424242414141002B73
:101FA0009C4630D477002BD01CB54FEA370703B4DA
:101FB0004FF010004FF01001BAF1000F06D0BCF145
:101FC000000FDCBF40F0080040F008014FF00000B7
:101FD0000FBCBDE810400BF1010BBBF1010F08BFB6
:101FE0005FEA170722BF12F1010211F101014FF060
:101FF000004143F1000300F0004043EA0000704755
:10200000F9D35708D0E746EA064613F1400F4FEAE6
:1020100016461FDD13F1200FDFBF16430A460021CD
:1020200020335B42BED0C3F1200746EA064602FADF
:1020300007F74FEA164646EA0706C3F1200722FAD9
:1020400003F201FA07F721FA03F14FF0000342EA25
:102050000702A7E746EA020646EA06464FEA1646A0
:1020600046EA0106BCBF46EA0646360C4FF00003BE
:102070004FF000024FF0000194E72DE9804C9A46A2
:10208000934670B491E8380007C831EA400C48BF65
:1020900034EA430C03D5FFF7E6FDFFF780FFF0BC01
:1020A000BDE8008C2DE9804C9A46934670B491E8C7
:1020B000380007C810F0804F08BF13F0804F03D1DD
:1020C00000F005F8FFF76BFFF0BCBDE8008C20F0D6
:1020D0007F4780EA030023F07F4C07EB0C03A3F556
:1020E0007C5300F00040A3F1FE0392F0000F00F0DB
:1020F000B38095F0000F00F077802DE901494FEA99
:1021000011404FEA144621EA004800FB06FC24EA8D
:10211000064708FB06F607FB08F800FB07F718EB75
:1021200006484CEB164C4FEA124B18EB07484FEAA7
:1021300015464CEB174022EA0B4E0BFB06FC25EA3A
:1021400006470EFB06F607FB0EFE0BFB07F71EEB22
:10215000064E4CEB164C4FF000061EEB074E4CEBB8
:10216000174B18EB0B0840F1000018EB0E0B58EB67
:10217000000840F100008F1A4FF000013CBFC94336
:10218000661B14BFB5EB040C00213CBFC943F61B12
:102190004FEA17444EEA8E0E27EA04454FEA1C47E1
:1021A00004FB07622CEA074C05FB07F70CFB05F65E
:1021B00004FB0CFC16EB074642EB174216EB0C46F1
:1021C00042EB1C421BEB060658EB0202414146EA79
:1021D0009E0601D5BDE80189B619524141EB0101C6
:1021E000A3F10103BDE801894FEA14454FEA114705
:1021F00024EA054621EA074C05FB07F406FB07F72E
:102200000CFB06F105FB0CFC11EB074144EB1744FA
:102210004FEA124711EB0C4144EB1C4422EA074CF5
:1022200005FB07F206FB07F70CFB06F605FB0CFCAB
:1022300016EB074642EB174216EB0C4642EB1C45E9
:102240006A1854F1000148BF7047B619524141EB7A
:102250000101A3F10103704795F0000F37D04FEA59
:1022600011424FEA144721EA024624EA074C02FBD6
:1022700007F106FB07F70CFB06F402FB0CFC14EB62
:10228000074441EB17414FEA154714EB0C4441EB6F
:102290001C4125EA074C02FB07F506FB07F70CFB80
:1022A00006F602FB0CFC16EB074645EB174516EB52
:1022B0000C4645EB1C42121951F1000148BF704712
:1022C000B619524141EB0101A3F1010370474FEAF6
:1022D00014454FEA114724EA054621EA074C05FB5D
:1022E00007F106FB07F70CFB06F24FF0000605FBB3
:1022F0000CFC12EB074241EB174112EB0C4251EB85
:102300001C4148BF7047921841EB0101A3F1010342
:10231000704703F055F9704772B6FEE710B590F8B4
:1023200021100022022905D00421816380F8202099
:10233000012010BD01680B6823F00E030B600168DB
:102340000B6823F001030B6090F84030C46B01214F
:1023500001FA03F3636080F8211080F82020104612
:1023600010BD000010B590F821100024022903D000
:102370000421816301243DE001680A6822F00E0215
:102380000A6001680A6822F001020A601A4A0168BC
:10239000914201D1012121E0174A1432914201D129
:1023A00010211BE0144A2832914201D1891515E011
:1023B000114A3C32914201D189140FE00E4A503249
:1023C000914202D14FF4803108E00B4A64329142CD
:1023D00002D14FF4801101E04FF08071064A083AB3
:1023E0005160012180F82110002180F82010416BFC
:1023F00001B18847204610BD0800024070B5044670
:1024000000F010F90546601C02D00448007804442E
:1024100000F008F9401BA042FAD370BD480000202C
:102420002DE9F84FDFF8B8910024A9F1040B2346F9
:102430000F2709F1040AABF1040EC9E00125A540FC
:102440002A40AA427DD1674ED1F804C0ACEB060801
:10245000B44532D014DCBCF1030F3AD009DCBCF136
:10246000000F2AD0BCF1010F1CD0BCF1020F31D1FA
:102470001DE0BCF1110F17D0BCF1120F2AD119E0E9
:10248000B8F5881F19D006DCB8F5803F15D0B8F52F
:10249000801F1FD111E0B8F5001F0ED0B8F5041F42
:1024A00018D10AE0CB6815E0CB681B1D12E0CB68A1
:1024B00008330FE0CB680C330CE08B682BB1012B99
:1024C0004FF0080303D0456104E0042302E00561F6
:1024D00000E00023FF2A01D8064601E000F10406CF
:1024E0004FEA840501D9A5F12005D6F8008007FA46
:1024F00005FC28EA0C0803FA05F548EA0508C6F8C1
:1025000000804D68ED0062D5374DAE6946F001069A
:10251000AE61AD6924F0030605F001050095334D69
:1025200006EB050CDCF80850A607360F07FA06F88C
:1025300025EA0805DFF8B880404503D14FF00008D0
:1025400017E044E0DFF8AC80404502D14FF00108CD
:102550000FE0DFF8A480404502D14FF0020808E008
:10256000DFF89880404502D14FF0030801E04FF0BA
:10257000040808FA06F848EA0508CCF808804D680F
:10258000D9F80060ED024D4601D5164300E09643B0
:102590002E604D68DAF80060AD02554601D516434D
:1025A00000E096432E604D68DBF80060AD035D46A9
:1025B00001D5164300E096432E604D68DEF80060BA
:1025C000ED03754601D5164300E096432E60641C6A
:1025D0000D682A46E5407FF431AFBDE8F88F000072
:1025E00008040140000011100010024000000140EA
:1025F00000080140000C014000100140001401409F
:102600008068084000D001207047C26821EA0203B8
:102610000A4043EA0241016170470AB10161704713
:102620000904FBE70148806870470000480000206B
:1026300070B5040025D094F83D00002520B984F839
:102640003C50204600F03CFC242084F83D002068EB
:10265000016821F0010101602068016841F4004136
:1026600001602068016821F40041016000F014FE5F
:102670004D4A6168914201D84C4900E04C4988427A
:1026800001D2012070BD4B492368B0FBF1F15E68B7
:1026900026F03F060E435E606368934206D94FF40E
:1026A000967359434FF47A73B1FBF3F12368491CD5
:1026B0001E6A26F03F06314319626168914210D8C4
:1026C0004900401EB0FBF1F2521CC2F30B02042A77
:1026D00001D2042022E0B0FBF1F0401CC0F30B005B
:1026E0001CE0A268F2B301EBC10303EB0116431E29
:1026F000B3FBF6F35B1C43F480431B0549D092B354
:1027000001EBC10202EB0111401EB0FBF1F0401CD5
:10271000C0F30B0040F4804040F400402168CA69D7
:102720004CF6FF739A431043C861D4E90710014384
:102730002068026822F0C00211430160D4E903015D
:1027400001432068826848F2FF339A431143816055
:10275000D4E9050108432168CA6822F0FF0210434A
:10276000C86001E00EE016E02068016841F0010158
:1027700001602564202084F83D00256384F83E50E4
:10278000002070BD01EB4106431EB3FBF6F35B1C5A
:10279000B3E70120C2E701EB4101401EB0FBF1F0BD
:1027A000401CC0F30B00B7E7A086010080841E0028
:1027B00000093D0040420F002DE9F84F0025DDF8EB
:1027C0002890984617468A4604460095FFF72AFF48
:1027D000064694F83D0020287AD119230122864923
:1027E0002046009601F058FF0028F5D194F83C00EF
:1027F00001286DD0012084F83C0020680168C907D9
:1028000003D1016841F0010101602068016821F4F1
:1028100000610160222084F83D00102084F83E0011
:1028200025646762A4F82A80608D20857348E06281
:1028300033464A465146204601F06CFD00287CD1C3
:10284000208DDFF8BC81202768B1012814D0022830
:10285000206801681ED041F48061016020684169F0
:1028600080690090BBE0206841698169009101683E
:1028700041F400710160B2E02068016821F48061D8
:10288000016072B62068416981690091016841F474
:1028900000710AE041F40061016072B6206841698C
:1028A00081690091016821F48061016062B696E05F
:1028B000032865D801280CD002284B464FF00002AF
:1028C0004146204600960BD001F0E6FEA8BB0CE086
:1028D00090E032464946204601F084FF68BB71E033
:1028E00001F0DAFE48BB72B633E02068016821F4DB
:1028F0008061016072B620680069616A0870606A70
:10290000401C6062208D401E2085608D401E6085C9
:102910003C4846F2A8110068B0FBF1F0C0EBC000E3
:1029200000EB80000090401E009007D020684069B6
:10293000C04340070DD50098F5E727E044F8305F25
:102940006773A573206940F02000206162B625738B
:102950001CE02068016841F4007101602068006992
:10296000616A0870606A401C6062218D491E218581
:10297000618D491E618562B621680969017025E093
:1029800032464946204601F02DFF10B10120BDE836
:10299000F88F20680069616A0870606A401C606294
:1029A000208D401E81B22185608D401E608520688B
:1029B0004269D243520712D4032903D1016821F49A
:1029C0008061016020680069616A0870606A401C6B
:1029D0006062208D401E2085608D401E6085208DA8
:1029E00000287FF465AF84F83D7084F83E5084F889
:1029F0003C50CCE70220CAE7020010000000FFFFB5
:102A000004000100540000202DE9F84F1F469046B5
:102A10008A460446DDF82890FFF704FE054694F840
:102A20003D0020287FD119230122404920460095EE
:102A300001F032FE002876D194F83C00012872D0D3
:102A4000012084F83C0020680168C90703D10168AF
:102A500041F0010101602068016821F4006101601A
:102A6000212084F83D00102084F83E0000262664D2
:102A7000C4F824806785608D20852D48E0622B4650
:102A80004A465146204601F0BBFC90B92068416996
:102A90008069009036E02A464946204601F0DAFE79
:102AA00050B1206C042804D12068016841F4007101
:102AB00001600120BDE8F88F606A21680078086134
:102AC000606A401C6062618D491E6185218D491ECE
:102AD00089B2218522685369DB435B070BD451B16E
:102AE00000781061606A401C6062608D401E6085E5
:102AF000208D401E20852A464946204601F0A0FD33
:102B00000028CED1208D0028C5D154F83D0B016896
:102B100041F400710160202004F81E09E677667711
:102B20000020C7E7FFE70220C4E700000200100012
:102B30000000FFFF2DE9FF4F83B00025DDE910798C
:102B40009A4693460446DDF848800095FFF76AFDF3
:102B5000064694F83D0020287CD11923012288499B
:102B60002046009601F098FD0028F5D194F83C002D
:102B700001286FD0012084F83C0020680168C90753
:102B800003D1016841F0010101602068016821F46E
:102B900000610160222084F83D00402084F83E005E
:102BA00025646762A4F82A90608D20857548E062EC
:102BB000CDE9008653465A462046049901F06EFC42
:102BC00000287CD1208DDFF8C091202768B1012832
:102BD00014D00228206801681ED041F48061016091
:102BE0002068416980690090BCE020684169816982
:102BF0000091016841F400710160B3E02068016850
:102C000021F48061016072B6206841698169009198
:102C1000016841F400710AE041F40061016072B69C
:102C20002068416981690091016821F48061016037
:102C300062B697E0032865D801280CD002284346E5
:102C40004FF000024946204600960BD001F024FDCB
:102C5000A8BB0CE091E032464146204601F0C2FD9F
:102C600068BB72E001F018FD48BB72B633E0206823
:102C7000016821F48061016072B620680069616AB0
:102C80000870606A401C6062208D401E2085608D47
:102C9000401E60853D4846F2A8110068B0FBF1F087
:102CA000C0EBC00000EB80000090401E009007D0F9
:102CB00020684069C04340070DD50098F5E727E03C
:102CC00044F8305F6773A573206940F020002061ED
:102CD00062B625731CE02068016841F40071016050
:102CE00020680069616A0870606A401C6062218D1A
:102CF000491E2185618D491E618562B62168096979
:102D0000017026E032464146204601F06BFD18B1C5
:102D1000012007B0BDE8F08F20680069616A087083
:102D2000606A401C6062208D401E81B22185608DEA
:102D3000401E608520684269D243520712D403299D
:102D400003D1016821F48061016020680069616A33
:102D50000870606A401C6062208D401E2085608D76
:102D6000401E6085208D00287FF464AF84F83D709C
:102D700084F83E5084F83C50CBE70220C9E70000BD
:102D8000020010000000FFFF0400010054000020BA
:102D90002DE9FF4F83B09A46DDE91197934604462B
:102DA000DDF84080FFF73EFC054694F83D00202802
:102DB0007FD11923012240492046009501F06CFC87
:102DC000002876D194F83C00012872D0012084F8C4
:102DD0003C0020680168C90703D1016841F0010186
:102DE00001602068016821F400610160212084F8FD
:102DF0003D00402084F83E0000262664C4F824806C
:102E0000A4F82A90608D20852C48E062CDE90075F9
:102E100053465A462046049901F0BEFB70B930E093
:102E20002A463946204601F015FD58B1206C042889
:102E300004D12068016841F400710160012007B0ED
:102E4000BDE8F08F606A216800780861606A401C04
:102E50006062218D491E89B22185628D521E628574
:102E600022685369DB435B070BD469B100781061BA
:102E7000606A401C6062208D401E2085608D401E6F
:102E80006085208D0028CBD12A463946204601F0A6
:102E9000D7FB0028CAD154F83D0B016841F40071FA
:102EA0000160202004F81E09E67766770020C6E757
:102EB000FFE70220C3E70000020010000000FFFF50
:102EC00010B586B000210091019102910391006834
:102ED000104988421BD1104CA06940F00800A06145
:102EE000A069694600F0080004904FF4406000902B
:102EF00012200190032003900848FFF791FAE0693F
:102F000040F48000E061E06900F48000049006B0C5
:102F100010BD00000058004000100240000C0140AD
:102F200070B5040013D021684CF6CC4008602168CD
:102F300045F255500860D4E9000141602168A0685D
:102F40008860FFF76FFB054641F23C360DE001203B
:102F500070BD00BFFFF766FB401BB04205D920687B
:102F6000C068800701D0032070BD2068C06880075A
:102F7000F0D121684AF6AA200860002070BD0068E0
:102F80004AF6AA21016000207047000002488168CB
:102F9000027811448160704748000020074810B54E
:102FA000016841F010010160032000F0A7F80F2034
:102FB00000F006F800F050F8002010BD002002409C
:102FC00030B505461F4887B0C16941F00201C161B3
:102FD000C06906A900F00200009001A800F036F9CF
:102FE0000498B0B100F058F940001749174AB0FBF7
:102FF000F1F11748491E0260416040F2E7320021BA
:10300000C0E903218160816100F07CFB040003D0F2
:1030100015E000F041F9E8E70D4800F0B5FB0400C9
:103020000DD11D2000F03CF8102D07D200222946BA
:103030001D2000F043F80748056000E0012407B0B8
:10304000204630BD0010024040420F000004004006
:10305000CC0400204C0000200F4808B5816941F0E5
:1030600001018161816901F001010091C16941F0B3
:103070008051C161C069002200F0805000900F2192
:10308000901E00F01BF80548416821F0E06141F016
:103090000071416008BD00000010024000000140C6
:1030A000002809DB00F01F02012191404009800047
:1030B00000F1E020C0F8001170470000F0B40E4BA2
:1030C0001B680C46C3F30223C3F10705042D00D986
:1030D0000425191D072901D2002300E0DB1E01266B
:1030E00006FA05F1491E214099409E40761E164081
:1030F0003143F0BC02F0E2BE0CED00E0064900F006
:10310000070208684FF6FF03184040EA0220034A0E
:1031100010430860704700000CED00E00000FA0565
:103120002DE9F0470F46050061D0434E306800F0AE
:103130000700B84209D2306820F0070038433060F9
:10314000306800F00700B84251D128683B4C810735
:1031500012D5400703D5606840F4E06060602878CD
:10316000000703D5606840F4605060606068A9683B
:1031700020F0F000084360602878C00728D0686815
:10318000012810D02168022810D0890700292EDAE2
:10319000616821F0030101436160FFF743FA804653
:1031A00041F288390DE021688903EFE78901EDE7F5
:1031B000FFF738FAA0EB0801494502D90320BDE822
:1031C000F0876068696800F00C00B0EB810FEFD108
:1031D000306800F00700B8420BD9306820F00700D3
:1031E00038433060306800F00700B84201D0012059
:1031F000E5E72878400705D56068E96820F4E060D5
:10320000084360602878000706D56068296920F4C3
:10321000605040EAC100606000F05EF86168084AF2
:10322000C1F30311515CC8400649086006480068B4
:10323000FFF7C6FE0020C2E7002002400010024057
:103240004E8D0008540000204C0000200F22026028
:103250000C4A536803F003034360536803F0F00320
:103260008360536803F4E063C36052684FF4E06323
:1032700003EAD20202610448006800F00700086017
:103280007047000000100240002002400148006822
:103290007047000054000020044805490068496850
:1032A000044AC1F30221515CC84070475400002019
:1032B000001002405E8D0008044805490068496816
:1032C000044AC1F3C221515CC84070475400002039
:1032D000001002405E8D00080E4A51680E4801F051
:1032E0000C03042B11D0082B0FD10C48C1F38343DE
:1032F000C903C05C0AD55168084AC1F34041921E17
:10330000515C054A5043B0FBF1F070470449484313
:10331000704700000010024000127A003E8D000845
:1033200000093D002DE9F84F040070D02078C04D11
:10333000C00749D06868C0F38100012807D06868D9
:10334000C0F38100022809D16868C00306D5286847
:10335000800339D560680028E7D035E06068B0F5B3
:10336000803F0BD010B1B0F5A02F11D0286820F409
:1033700080302860286820F4802002E0286840F42B
:1033800080302860606890B1FFF74CF906460AE08B
:10339000286840F480202860F0E700BFFFF742F97A
:1033A000801B642873D828688003F7D50CE0FFF7EA
:1033B00039F9064605E000BFFFF734F9801B6428A1
:1033C000F0D828688003F7D420789A4E80074FF011
:1033D00001094FF0000839D5686810F00C0F07D0CC
:1033E0006868C0F38100022809D16868C00306D468
:1033F0002868800714D52069012808D110E02069C9
:10340000B0B1C6F80090FFF70DF9074605E00AE1F4
:10341000FFF708F9C01B0228C4D828688007F7D531
:103420002868616920F0F80040EAC10028600DE0DA
:10343000C6F80080FFF7F6F8074604E0FFF7F2F859
:10344000C01B022823D828688007F7D420780007FB
:103450002CD57948A169D9B1C0F80090FFF7E2F8FE
:10346000074604E0FFF7DEF8C01B02280FD8686AA1
:103470008007F7D571484FF4FA510068B0FBF1F0BE
:10348000009000BF0098411E0091FAD20EE080E04B
:10349000C0F80080FFF7C6F8074604E0FFF7C2F85F
:1034A000C01B022875D8686A8007F7D420784007C7
:1034B00060D5E8690027C00008D4E86940F0805072
:1034C000E861E869012700F0805000905C480168DD
:1034D000C90513D40168834641F480710160FFF788
:1034E000A1F8824606E000BFFFF79CF8A0EB0A00B7
:1034F00064284ED8DBF80000C005F5D5E068012847
:103500000AD008B1052813D0286A20F001002862EB
:10351000286A20F0040002E0286A40F001002862D6
:10352000E06841F2883B98B1FFF77CF882460BE0F7
:10353000286A40F004002862EEE700BFFFF772F847
:10354000A0EB0A0159455AD8286A8007F6D50CE045
:10355000FFF768F8824605E0FFF764F8A0EB0A0180
:1035600059454CD8286A8007F6D41FB1E86920F085
:103570008050E861E06988B36968C1F3810102297C
:1035800044D00228C6F8608004D0FFF74BF8044608
:1035900038E034E0FFF746F8074604E0FFF742F86A
:1035A000C01B02282BD828688001F7D4206AB0F508
:1035B000803F05D16868A16820F400300843686046
:1035C000D4E908010843696821F47411084368606C
:1035D000C6F86090FFF726F8044606E025E000BF35
:1035E000FFF720F8001B022809D828688001F7D5CA
:1035F0001BE000BFFFF716F8001B022802D90320CA
:10360000BDE8F88F28688001F4D40EE00128F7D0D7
:103610006868226A00F48031914204D1616A00F442
:103620007010884201D00120EAE70020E8E700009E
:103630000010024000004242800442425400002038
:10364000007000407047704710B590F83C20012A88
:1036500022D0012280F83C20CA688C6822F4407293
:1036600022434C6822F4806222430C6822F40062F8
:1036700022430C6922F4805222434C6922F4005206
:103680002243C969002322F480420A4301684A6444
:1036900080F83C30002010BD022010BD70B590F8BD
:1036A0003C20012A26D0012480F83C40022280F8E8
:1036B0003D2003685A689D6822F070060A6832430C
:1036C0005A600D4B02689A4208D0B2F1804F05D083
:1036D0000A4B9A4202D00A4B9A4204D1496825F01B
:1036E00080031943916080F83D40002180F83C1030
:1036F000084670BD022070BD002C0140000400404F
:103700000008004010B5040003D094F83D0010B14B
:1037100007E0012010BD002084F83C00204600F0A6
:103720001FF8022084F83D00211D206802F042F9B4
:10373000012084F8460084F83E0084F83F0084F8B5
:10374000400084F8410084F8420084F8430084F883
:10375000440084F8450084F83D00002010BD0000BE
:1037600008B500680649884208D10648816941F4D5
:1037700000618161806900F40060009008BD000074
:10378000002C01400010024090F83D10012901D0AA
:1037900001207047022180F83D100168CA6842F09C
:1037A0000102CA6000680B49884208D0B0F1804F1E
:1037B00005D00949884202D00849884204D181686D
:1037C00001F00701062903D0016841F00101016001
:1037D00000207047002C0140000400400008004019
:1037E00070B5044690F83C000025012817D001264A
:1037F00084F83C60022084F83D002068826822F052
:10380000770222F47F4282600868502838D00DDCAD
:1038100020284FD005DC90B3102811D14AE00220B7
:1038200070BD302846D040280AD13BE060282FD018
:1038300070280DD0B0F5805F03D0B0F5005F12D0D6
:10384000012584F83D60002084F83C00284670BDC6
:10385000CB68D1E90121206802F0F5F82068816881
:1038600041F0770109E0CB68D1E90121206802F03D
:10387000EAF82068816841F480418160E1E719E05D
:10388000CA684968206802F093F95021206806E070
:10389000CA684968206802F09CF96021206802F03B
:1038A000DCF8CEE7CA684968206802F081F9402157
:1038B0002068F4E7226801461046F0E72DE9F04160
:1038C0000D46040003D094F83D0018B108E0012033
:1038D000BDE8F081002084F83C00204600F040F86C
:1038E000022084F83D002068816844F20702914379
:1038F0008160211D206802F05DF82268906891695E
:10390000166A2B68AF69034340F20330814341EAF2
:103910000721A868EF6908434FF6FC418843E9682E
:1039200040EA0720014328692F6A000140EA073076
:10393000084369686D6926F0220646EA05152943A1
:1039400093602268906154F8460B0162012004F8EC
:103950001F09E0752076E0762077A0750020B7E794
:1039600000B585B000210091019102910391016899
:103970001A48B1F1804F1BD0194A914216D1C16942
:1039800041F00401C161C16901F004010491816940
:1039900041F0080181618069694600F008000490E7
:1039A000C02000900F4800BFFEF73AFD05B000BDF3
:1039B000C16941F00101C161C16901F001010491D6
:1039C000816941F0040181618069694600F0040069
:1039D0000490032000900448E6E700000010024035
:1039E00000080040000C01400008014070B590F84C
:1039F0003E60044690F83F5090F8423090F84320E3
:103A0000022021B104290ED0012E1BD114E0012E79
:103A100018D1012B16D184F83E0084F8420001220F
:103A20000021206820E0012D0CD1012A0AD184F860
:103A30003F0084F8430014E0012D03D1012B01D194
:103A4000012A01D0012070BD84F83E0084F83F00B7
:103A500084F8420084F8430001220021206801F02C
:103A6000E5FF01220421206801F0E0FF20680168E1
:103A700041F001010160002070BD70472DE9F04167
:103A800004460068C66805694FF00007A90713D50A
:103A9000B10711D5F91E01610120207720688069E6
:103AA0008007204602D0FFF7E8FF04E000F0A4F80A
:103AB000204600F036F92777680716D5700714D529
:103AC00021686FF004000861022020772068806977
:103AD00010F4407F204602D0FFF7CFFF04E000F053
:103AE0008BF8204600F01DF92777280715D53007F9
:103AF00013D521686FF00800086104202077206842
:103B0000C0698007204602D0FFF7B7FF04E000F04D
:103B100073F8204600F005F92777E80616D5F00679
:103B200014D521686FF01000086108202077206804
:103B3000C06910F4407F204602D0FFF79EFF04E0EA
:103B400000F05AF8204600F0ECF82777E80708D094
:103B5000F00706D021686FF001000861204600F0F0
:103B60002FF9280608D5300606D521686FF08000A9
:103B700008612046FFF766FD680608D5700606D581
:103B800021686FF040000861204600F023F9A80684
:103B90000AD5B00608D521686FF0200008612046DC
:103BA000BDE8F041FFF74FBDBDE8F08100B585B03D
:103BB0000021009101910291039100680B49884214
:103BC00012D10B48816941F0040181618069694625
:103BD00000F0040004904FF4106000900220019067
:103BE00003900448FEF71CFC05B000BD002C01400A
:103BF0000010024000080140704770B5044690F87C
:103C00003C0000260D4601280FD0012084F83C001E
:103C10006AB1042A1DD0082A2FD00C2A3FD00126D1
:103C2000002084F83C00304670BD022070BD206842
:103C300001F01CFF2068816941F008018161206862
:103C4000816921F004018161206881692A69114339
:103C500011E0206801F032FF2068816941F40061C1
:103C600081612068816921F48061816120688169B6
:103C70002A6941EA02218161D2E7206801F04AFF06
:103C80002068C16941F00801C1612068C16921F063
:103C90000401C1612068C1692A69114311E02068EB
:103CA00001F064FF2068C16941F40061C1612068CE
:103CB000C16921F48061C1612068C1692A6941EA52
:103CC0000221C161ACE710B5040003D094F83D00B7
:103CD00010B107E0012010BD002084F83C00204610
:103CE00000F01EF8022084F83D00211D206801F03C
:103CF00061FE012084F8460084F83E0084F83F000D
:103D000084F8400084F8410084F8420084F84300BD
:103D100084F8440084F8450084F83D00002010BD7C
:103D20007047704710B50446022249B104290ED0ED
:103D3000082913D094F84100012816D0012010BDA5
:103D400094F83E000128F9D184F83E200FE094F861
:103D50003F000128F2D184F83F2008E094F84000A9
:103D60000128EBD184F8402001E084F841200122B1
:103D7000206801F05BFE0F492068884203D1426C45
:103D800042F4004242642068884208D0B0F1804F7B
:103D900005D00949884202D00849884204D1816887
:103DA00001F00701062903D0016841F0010101601B
:103DB000002010BD002C014000040040000800401D
:103DC00000680349884201D1FFF7E0B8704700005E
:103DD000000400407047704700680849884203D1DA
:103DE00001220749074806E00749884205D10449EE
:103DF0000122491C054800F0DFB970470038014036
:103E0000050000203C040020004400408404002001
:103E1000F8B5016804460868CA684B6910F00F0FCE
:103E20004FF0000559D003F0010602F490773743B4
:103E300065D0C10705D0D10503D5616C41F0010102
:103E40006164410705D5D90703D0616C41F00201D7
:103E50006164810705D5D90703D0616C41F0040185
:103E60006164010707D502F02001314303D0616C82
:103E700041F008016164616C00293AD0800604D5E4
:103E8000900602D5204601F0E5FE20684069616C8D
:103E9000C0F38010090700D460B3204601F0B3FEE0
:103EA00020684069400621D52068143050E8001F82
:103EB00021F0400140E80012002AF5D1E06BA8B1E2
:103EC0006D494163E06BFEF74DFA002811D0E06BBD
:103ED000416B01B0BDE8F040084783060FD593065B
:103EE0000DD52046BDE8F84001F0B4BE2046FFF7EE
:103EF00073FFF8BD2046FFF76FFF6564F8BD266BC2
:103F00002023012E7CD1C6067AD5D60678D508683E
:103F10004868009048694FF00206400640D5E16BC2
:103F2000086840680004000CE8D0A28D8242E5D900
:103F3000E085886920282DD020680C3050E8001FCB
:103F400021F4807140E80012002AF5D12068143075
:103F500050E8001F21F0010140E80012002AF5D1CD
:103F60002068143050E8001F21F0400140E80012A2
:103F7000002AF5D184F84230256320680C3050E8DF
:103F8000001F21F0100140E80012002AF5D1E06B7B
:103F9000FEF7C4F96663A08DE18D401A81B22AE074
:103FA000A08DE18D401A81B2E08D0028A6D00029B5
:103FB000A4D022680C3252E8000F20F4907042E83E
:103FC0000007002FF5D12068143050E8002F22F0B0
:103FD000010240E80027002FF5D184F84230256324
:103FE00020680C3050E8002F22F0100240E8002337
:103FF000002BF5D166632046FFF7EDFEF8BDFFE725
:1040000005062BD5150629D594F841002128F5D1B0
:10401000A068B0F5805F01D12069B0B1206A411C71
:104020002162216800784860E08C401E0004000C8A
:10403000E084E3D12068C16821F08001C16020687C
:10404000C16841F04001C160D8E7206A0088C0F330
:1040500008004860206A801C2062E5E74006CDD554
:104060005006CBD5CA68204622F04002CA6084F8C8
:10407000413000F035F9C1E7F75B000870B5040086
:1040800004D094F84100002510B106E0012070BD75
:1040900084F84050204600F023F8242084F84100A2
:1040A0002068C16821F40051C160204601F034FE4F
:1040B0002068016921F4904101612068416921F083
:1040C0002A0141612068C16841F40051C160656402
:1040D000202084F8410084F842006563002070BD10
:1040E00070B586B0002400940194029403942E4E7F
:1040F00003682E49022003222D4DB34226D18B693D
:1041000043F480438B618B6903F4804304938B6990
:1041100043F004038B618969039201F00401049167
:104120000102CDE9001069462846FEF779F9281505
:10413000CDE90004694628460294FEF771F9002291
:1041400005212520FEF7BAFF252028E0194EB342AD
:1041500027D1CB6943F40033CB61CB6903F400333F
:1041600004938B6943F004038B618969039201F026
:10417000040104910421CDE9001069462846FEF7A8
:104180004FF90820CDE90004694628460294FEF75D
:1041900047F9002205212620FEF790FF2620FEF792
:1041A0007FFF06B070BD00000038014000100240E3
:1041B000000801400044004090F84230202B01D01C
:1041C0000220704721B11AB10023036301F000BE41
:1041D0000120704710B5144A01681448914214D167
:1041E0004278C1880389491C01F07F01994203D1BB
:1041F000C168491CC16003E00D4BC4881A55C180D9
:104200000A490122491C0B4809E00B4A91420AD194
:10421000807801F0BFF8054901220848891CBDE8F3
:104220001040FFF7C9BF10BD003801400400002056
:10423000380100203C040020004400408404002099
:104240002DE9F843044690F84100984616460D467D
:10425000202802D00220BDE8F88385B17EB100207D
:104260006064212084F84100FEF7DCF9A6848146D1
:10427000E684A0682027B0F5805F02D003E001202B
:10428000E9E7206910B12E4600250EE000260CE07B
:104290008021204601F0B7FDA8B9C6B116F8010B80
:1042A00021684860E08C401EE084E08C4B464FF073
:1042B0000002CDF800800028EAD14FF040012046EE
:1042C00001F0A1FD40B184F841700320C3E735F847
:1042D000020BC0F30800E3E784F841700020BAE75E
:1042E000704701F06DF901684A69D24352050FD455
:1042F0006FF480624A61002140F8301F202242732F
:104300008173026942F00402026101730120704767
:10431000002070472DE9F84F0446C06A1E469346B8
:104320000D4621680A6842F480620A60082807D0B6
:10433000012805D010F5803F02D0206B112804D150
:104340002068016841F4807101604FF001195B46FB
:10435000002249462046009600F09EF94FF400786E
:1043600040B120680068C00501D5C4F84080032032
:10437000BDE8F88F2069DFF884A0B0F5804F0FD03A
:104380000620216800EAD51747F0F000086133469F
:104390005A460AF10601204600F0C6F958BB03E070
:1043A000E8B240F001001CE02168E8B20861334641
:1043B0005A465146204600F0B7F9E0B920684169F5
:1043C00081690091016841F4807101605B460022BF
:1043D00049462046009600F05FF90028C1D147F019
:1043E000F1002168086133465A465146204600F0E4
:1043F0009BF90028BCD00120BAE7000002000100B0
:10440000F8B50446C06A1E460D461746082807D070
:10441000012805D010F5803F02D0206B122804D16E
:104420002068016841F480710160134600224FF05A
:1044300001112046009600F02FF940B12068006875
:10444000C00502D54FF4007020640320F8BD206938
:10445000B0F5804F0ED00620216800EAD51040F05C
:10446000F000086133463A460B49204600F05CF9FB
:1044700078B902E005F0FE0000E0E8B221680861CA
:10448000054933463A46891F204600F04DF9002879
:10449000DCD00120F8BD0000080001002DE9F84F34
:1044A0000446006889460B9D01689846174641F40A
:1044B000806101602068016841F4807101600095AD
:1044C0004FF0011B0022594620460A9B00F0E4F8F9
:1044D0004FF4007A40B120680068C00501D5C4F8E7
:1044E00040A00320BDE8F88F216809F0FE000861B4
:1044F0002B46284920460A9A00F016F9F0BB20689E
:104500004169806900902A4620460A9900F0A2F984
:1045100040B1206C04283AD12068016841F4007150
:10452000016034E0FEB2B8F1010F09D02168380A09
:1045300008612A4620460A9900F08CF90028E8D143
:10454000206806612A4620460A9900F083F900286F
:10455000DFD12068016841F480710160009500227C
:10456000594620460A9B00F097F80028B3D12168ED
:1045700009F0FF0040F00100086100E007E02B4671
:10458000044920460A9A00F0CFF80028AAD001205A
:10459000A8E70000020001002DE9F8430446006886
:1045A0000D46DDE9089701689846164641F480718A
:1045B00001604B4600224FF001112046009700F0A9
:1045C0006BF848B120680068C00502D54FF4007050
:1045D00020640320BDE8F883216805F0FE0008612F
:1045E0003B464A461549204600F09EF888B92068A7
:1045F0004169806900903A464946204600F02AF910
:1046000048B1206C042804D12068016841F400718D
:1046100001600120DEE7F5B2B8F1010F09D0216891
:10462000300A08613A464946204600F013F900284E
:10463000E7D1206805610020CCE7000002000100FE
:1046400070B516460D4604461EE02046FFF74BFEA9
:1046500008B1012070BD681C16D0FDF7E3FF801B78
:10466000A84200D885B920684069C04340070BD5EF
:10467000002044F8300F20216173A073216941F0BC
:10468000200121612073E4E720684069C0434007AE
:10469000DBD4002070BD00002DE9F0479846174696
:1046A0000D460446C1F30746DDF820902AE000BF1E
:1046B000B8F1FF3F26D0FDF7B5FFA0EB090141455A
:1046C00002D8B8F1000F1DD12068012E16D08069E4
:1046D00025EA00000004000C12D00020B84211D1DD
:1046E000002044F8300F20216173A073216941F04C
:1046F0002001216120730120BDE8F0874069E7E7D0
:104700000120EBE72068012E0AD0806925EA00002D
:104710000004000C06D00020B842C9D00020EBE70E
:104720004069F3E70120F7E72DE9F0479846164680
:104730000D4604464FF000094FF0200AC1F3074729
:1047400023E020684069C043400515D42068016813
:1047500041F40071016021686FF480604861C4F821
:10476000309084F83DA084F83E90216C41F0040123
:10477000216484F83C9021E0701C06D0FDF752FFC4
:10478000A0EB0800B04203D816B1012F1FD021E0E2
:104790002068012F15D0806925EA00000004000C74
:1047A00018D000BF44F8309F84F80DA084F80E9014
:1047B000216941F02001216184F80C900120BDE8BD
:1047C000F087406925EA00000004000CEAD1206867
:1047D000406901E02068806925EA00000004000CBF
:1047E000AFD1ECE72DE9F041002590460E46044696
:1047F000202728E04069C043C0060CD454F8301B81
:104800006FF01000486144F810596777A577206A67
:104810002062257714E0FDF705FFA0EB0800B04209
:1048200000D886B920684069C04340060BD544F8DB
:10483000305F6773A573206940F020002061257305
:104840000120BDE8F08120684169C9434906D1D4FF
:104850000020F6E770B516460D4604461EE02046D9
:10486000FFF741FD08B1012070BD681C16D0FDF7AF
:10487000D9FE801BA84200D885B920684069C04392
:1048800000060BD5002044F8300F20216173A0737F
:10489000216941F0200121612073E4E7206840692B
:1048A000C0430006DBD4002070BD000010B5094AEB
:1048B0000021094801F09AFF084C064A00212060B7
:1048C0002432074801F092FF6060BDE8104000F01C
:1048D00015BA0000F48C000821590008400000209F
:1048E000255900082DE9F04786B00024314800948E
:1048F000019402940394816941F0100181618169FE
:1049000001F010010491816941F020018161816908
:1049100001F020010491816941F004018161816904
:1049200001F004010491816941F00801816180690D
:10493000DFF8848000F008004FF400550490002256
:1049400029464046FDF769FEDFF8709000224021BD
:104950004846FDF762FEDFF868A04FF20307002229
:1049600039465046FDF759FE00950226012503966B
:10497000CDE9015469464046FDF752FD10208DE80F
:10498000310069464846FDF74BFD4020CDE9000562
:10499000CDE9024669464846FDF742FD0097039679
:1049A000CDE9015469465046FDF73AFD06B0BDE831
:1049B000F087000000100240001001400008014094
:1049C000000C01400D4810B50B4901600C494160D5
:1049D00000214FF480428160C0E90312416181618E
:1049E000C1610162FDF724FE002803D0BDE810403C
:1049F000FDF792BC10BD00000058004004030020E9
:104A0000A0860100094810B50749016004214160F2
:104A100040F2E2418160FEF783FA002803D0BDE84E
:104A20001040FDF779BC10BD003000405803002055
:104A300010B596B000240F9410941194129413940E
:104A40001C2168461494FBF7FFFD202107A8FBF703
:104A5000FBFD2C482A49C0E9001440F60F61C0E96B
:104A60000241046144618461FEF74CFE08B1FDF728
:104A700053FC4FF480500F900FA92248FEF7B0FE70
:104A800008B1FDF749FC1F48FFF71DF908B1FDF714
:104A900043FC139413A91B481494FEF7FFFD08B1BF
:104AA000FDF73AFC6020CDE90004029403940494DD
:104AB00005940022694613480694FFF79EF808B152
:104AC000FDF72AFC0C2269460E48FFF796F808B15C
:104AD000FDF722FC0794089409944FF400500A94BF
:104AE000CDE90B4007A907480E94FEF7ADFD08B1CC
:104AF000FDF712FC0348FFF759F816B010BD00008F
:104B0000002C01406403002010B58CB024216846BD
:104B1000FBF79AFD0024164809944FF080410A944F
:104B2000C0E900144FF6FF71C0E9024104618461DD
:104B30000320CDE900040120CDE902040421049101
:104B4000CDE90540CDE9074169460948FEF7B6FEC3
:104B500008B1FDF7E1FB099409A905480A94FEF79D
:104B60009DFD002801D0FDF7D7FB0CB010BD000063
:104B7000AC03002010B58CB024216846FBF764FD1F
:104B800000241648099414490A94C0E900144FF609
:104B9000FF71C0E90241046184610320CDE9000492
:104BA0000120CDE9020404210491CDE90540CDE9BD
:104BB000074169460948FEF781FE08B1FDF7ACFBE5
:104BC000099409A905480A94FEF768FD002801D058
:104BD000FDF7A2FB0CB010BD00080040F40300205C
:104BE0000C4810B50A4901604FF4E13141600021E1
:104BF00081600C22C160C0E904128161C161FFF7CC
:104C00003DFA002803D0BDE81040FDF785BB10BD7C
:104C1000003801403C0400200C4810B50A490160EE
:104C20004FF416514160002181600C22C160C0E93F
:104C300004128161C161FFF721FA002803D0BDE8A9
:104C40001040FDF769BB10BD004400408404002003
:104C500000F0B6FCFEE7000010B560210948FBF744
:104C6000F3FC084800210170017100F0CBFC00F05A
:104C700071FD00F0EDFC00F0E7FDBDE8104000F034
:104C800013BC0000D8000020012805D0022805D060
:104C9000032805D003A0704704A0704705A0704703
:104CA00007A070474E4F4E45000000004B49434B54
:104CB00050490000424C5545544F4F5448000000A5
:104CC00055415254315F44454255470001F0DAFCEA
:104CD0004FEA000400F008FC00F004FC01F07EFA4A
:104CE00001F0FEF901F090FA0348FEF748F90A34A2
:104CF000204601F0A0FCEDE75803002010B51C4849
:104D000001F01FFD1B49086020B940F267611AA03D
:104D100000F0F4FC1E4800F04DFC1E4800F09AFB29
:104D2000134A00216C3A1C4801F060FD20B940F2A2
:104D3000716111A000F0E2FC0D4A0021483A1748C9
:104D400001F054FD20B940F272610BA000F0D6FCD6
:104D5000074A0021243A124801F048FD002806D1F4
:104D6000BDE8104040F2736103A000F0C7BC10BD65
:104D7000E48C0008000000202E2E2F436F72652F58
:104D80005372632F726F626F745F6170702E630075
:104D9000ED5000082D4E0008CD4C000801530008CE
:104DA000515300084FF47A74204601F037FCFBE7BA
:104DB00010B5040036D001F011FA1B4801782170BB
:104DC000418861800179217141796171C188E180F7
:104DD00001892181418961818189A18190F82B100C
:104DE00041B990F82C1029B990F82D1011B981789B
:104DF000490701D5012100E00021A17390F834108A
:104E00003830E1730FC804F1100C8CE80F0006492C
:104E10001822483104F12000FBF7BAFBBDE810402E
:104E200001F0F2B910BD0000D80000203EB5050029
:104E300078D073A1FBF730FC00286DD072A1284612
:104E4000FBF72AFC00286BD071A12846FBF724FC55
:104E5000002868D070A12846FBF71EFC00286BD004
:104E60006FA12846FBF718FC00286AD06EA12846DF
:104E7000FBF712FC002864D06EA12846FBF70CFC5F
:104E8000002863D001AB6A466CA12846FBF758FAAC
:104E900002285FD001AB6A466BA12846FBF750FAA7
:104EA00002285FD06BA12846FBF7F6FB4FF49674FF
:104EB000002864D002AA69A12846FBF741FA01281C
:104EC0005DD069A12846FBF7E7FB002866D002AA5F
:104ED00067A12846FBF734FA01285FD066A128466F
:104EE000FBF7DAFB00286BD002AA65A12846FBF786
:104EF00027FA012864D064A12846FBF7CDFB0028DF
:104F00006ED002AA62A12846FBF71AFA012867D0E0
:104F1000294662A000F080FA67480AE002E0FFE755
:104F200001F09EF83EBD012000F0A6F90028F7D060
:104F300062A000F05FFA3EBD022000F0C1F962A05D
:104F4000F7E7022000F098F962A0F2E700F012F90A
:104F500063A0EEE7DDE900120023022000F022F951
:104F6000002306E0DDE900120123022000F01AF917
:104F70000123DDE9001200BF01F024F83EBD35A198
:104F80002846FBF789FB00B90294029A00231146D8
:104F9000022000F007F90023029A0FE032A1284610
:104FA000FBF77AFB00B902940298002342421146B3
:104FB000022000F0F7F8029900234A421146DBE78D
:104FC0002DA12846FBF768FB00B90294029A002342
:104FD0005142022000F0E6F8029A00235142CBE74A
:104FE00029A12846FBF758FB00B902940299002337
:104FF0004A42022000F0D6F8029900234A42BBE759
:1050000068656C7000000000737461747573000053
:10501000656E61626C65000073746F700000000063
:10502000636C656172000000636C6561725F66614C
:10503000756C74006573746F7000000070776D207C
:105040002564202564000000737065656420256474
:1050500020256400666F727761726400666F7277F4
:1050600061726420256400006261636B00000000CF
:105070006261636B202564006C656674000000004B
:105080006C656674202564007269676874000000AE
:105090007269676874202564000000004552522040
:1050A000756E6B6E6F776E20636F6D6D616E643AB7
:1050B0002025730D0A000000AC8E00084F4B2065C0
:1050C0006E61626C650D0A004F4B2073746F700D3A
:1050D0000A0000004F4B20636C6561720D0A0000EE
:1050E0004F4B206573746F700D0A000010B50446B5
:1050F000407801280BD0022816D003281CD00428A1
:105100001ED0052833D1BDE8104000F033B8A07898
:1051100005282CD3B4F9052034F9031F0120237985
:10512000BDE8104000F03EB8A07800281FD0E0781D
:10513000BDE8104000F0A0B8BDE8104000F0D2B8C3
:1051400001F04CF8A078022803D2BDE8104001F02D
:105150005BB8E07808B1012100E00021044880F844
:105160002A10217901B1012180F82B10EDE710BD43
:10517000D800002010B501F031F809480021C180A5
:10518000018180F82810C1614171418841F0080116
:10519000418003210170BDE8104001F035B80000E6
:1051A000D80000202DE9FF5F1F460446FDF73AFABC
:1051B0000646DDE90101084319D00020804600259C
:1051C000BCB101F00BF82B484FF00109B8F1000F0A
:1051D00017D0417909B1A14248D10021C180018194
:1051E00080F82810C1614171418831B107E0012088
:1051F000E4E7002004B0BDE8F09F80F800900125AE
:1052000034E0418889BB8046407908B1A0422DD165
:10521000012F0AD00027019800F057FFA8F80600D8
:105220004546029800F051FF10E040F2DC5ACAF106
:10523000000B52465946019800F036FFA8F80600C8
:10524000454652465946029800F02EFF288188F8BC
:105250000470C8F81860C8F81C6088F8289088F8AE
:105260000540022188F80010C9E7FFE700F0CCFFF5
:105270002846BFE7D800002070B50546012400F09D
:10528000ADFF0E49002225B1012D0AD0022D12D00A
:1052900009E0CA800A8181F82820CA614A710A702F
:1052A00002E0488820B1002400F0AEFF204670BD27
:1052B00001200870F8E74A80EBE70000D8000020E2
:1052C00010B500F08BFF06480021C180018180F8F5
:1052D0002810C16141710170BDE8104000F094BF19
:1052E000D800002010B500F079FF0449012081F8B2
:1052F0002900BDE8104000F087BF0000D800002062
:1053000000F0D4FA322001F089F9F9E70E4DDFF808
:105310003C804FF4FA764FF4005700BF00F05EFF78
:10532000287803280CD002280CD0344600F06CFFFB
:1053300039464046FDF769F9204601F06FF9EDE77F
:105340006424F3E7C824F1E7D800002000100140EE
:10535000084C00264FF4FA77384601F05FF900F068
:105360003DFF94F8295084F8296000F04DFF01F0CA
:10537000F3FFF1E7D800002004490020488088802E
:105380008860034A08701070C860704718000020D9
:105390007B020020084910B54A888B88521C02F015
:1053A0007F029A4203D18868401C886010BD034B7D
:1053B0004C8818554A8010BD18000020FB010020C1
:1053C00070B50A4D0A4E2024641EA4B20DD3A888DD
:1053D0006988884209D0A888A988305C491C01F0F6
:1053E0007F01A98000F082FDEEE770BD180000206B
:1053F000FB01002010B5040009D0FBF765F8214639
:1054000082B2BDE8104064230248FEF719BF0120B4
:1054100010BD0000840400200FB400B5C1B0429A52
:105420003AB143AB4FF480716846FAF76FFF00283A
:1054300003DA012041B05DF814FBFF2800DDFF20F6
:1054400082B2642369460248FEF7FAFEF2E70000E2
:10545000840400200149C860704700001800002043
:1054600070B50346104641F221054FF6FF7410E077
:1054700013F8012B80EA02200022060403D585EAF6
:10548000400080B201E004EA4000521C92B2082AB7
:10549000F3D3491E89B2EBD270BD00000148C06849
:1054A00070470000040000200B4810B50021C180A7
:1054B0000181C16001F04CFA07490122491C0748EB
:1054C000FEF77AFEFFF758FF03490122BDE81040BE
:1054D000891C0348FEF770BE040000203C04002035
:1054E00084040020FFF76CBF70B50A4D0A4E4024BB
:1054F000641EA4B20DD32889E988884209D028897E
:105500002989305C491C01F07F01298101F0C6F92D
:10551000EEE770BD04000020380100202DE9F043C3
:1055200093B014460E460746402A3ED804B1DEB377
:10553000AA2055218DF800004FF001088DF80110C8
:105540008DF80280E9468DF803708DF8044005253A
:1055500044B13EB12246314609F10500FAF7D3FFC6
:10556000601DC5B28DF848808DF849708DF84A40AD
:105570004FF6FF72032112A8FFF772FF0246214681
:105580003046FFF76DFF09F805006D1CE9B2000A0F
:1055900009F80100491CCAB2322369460448FEF7E3
:1055A0004FFE13B0BDE8F083FFE70120F9E70000EC
:1055B0003C040020014908617047000004000020FD
:1055C00008B5002240210C48FDF727F801220B4DB9
:1055D000540321462846FDF720F872B60027084EEE
:1055E00021462846FDF711F8009700BF0098401C9F
:1055F0000090B042F9D3F3E70008014000100140E9
:10560000E09304000648016841F08071016005489C
:1056100000214160016841F0010101607047000014
:10562000FCED00E0001000E070B5074C0546666830
:10563000FDF72CFE0549B0FBF1F169436068801B62
:105640008842FBD370BD0000001000E040420F0014
:1056500010B53C210A48FEF7C9F93C210948FEF77C
:10566000C5F9074900200968486206490968486287
:1056700005490880488005490860486010BD000061
:10568000AC030020F403002028000020DC020020EE
:105690002DE9F041074615480E460068416A144856
:1056A0000068436A134A548810881C1B25B2124CA8
:1056B000081A118000B2538020816581216801445D
:1056C0002160616829446160394600F06BFDA0816A
:1056D0003946284600F066FDE081002E03D094E8AC
:1056E0000F0086E80F00BDE8F0810000AC03002049
:1056F000F403002028000020DC02002000F000F865
:1057000008B500F075F8002000F01AF801220A4DE3
:10571000540321462846FCF780FF72B60027074E47
:1057200021462846FCF771FF009700BF0098401CF7
:105730000090B042F9D3F3E700100140E093040079
:1057400008B1012200E0002240210148FCF765BFBA
:105750000008014010B500210948FEF7E3FA0C21CA
:105760000748FEF7DFFA06480068416C41F4004143
:10577000416400F03DF8BDE810400020FFF7E0BFB5
:1057800064030020F8B50D4600F096FC0446284658
:1057900000F092FC134905460C80488054EA05004D
:1057A00000D00120FFF7CCFF0F4E4FF4805332465C
:1057B00059001046009401F081FE4FF40043324638
:1057C00059101046009501F079FE204600F0A0FE29
:1057D000064C21680864284600F09AFE2168486358
:1057E000F8BD00002C000020000C014064030020E4
:1057F00038B50D4800240D4D048044804FF480538B
:105800002A4659001046009401F058FE4FF4004318
:105810002A4659101046009401F050FE04480168D1
:105820000C640068446338BD2C000020000C01406B
:1058300064030020002803D018220249FAF763BE4F
:1058400070470000EC0200201FB518211448FAF739
:10585000D9FE14A0322200680390022103A88DE82B
:1058600007000123002280210F48FDF791FA002252
:105870006B21682000F05CFE70B103221A216820C1
:1058800000F056FE00221B21682000F051FE00228D
:105890001C21682000F04CFEBDE81F4000F0B4BDA4
:1058A000EC020020399F0000040300207FB5FCF7C4
:1058B000B9FE184D04466868201A64281BD36C6032
:1058C000022203A9CDE90012322002908021012397
:1058D0001148FDF72FF908B1002107E0BDF80C00D1
:1058E0000E4940BAC008800048800121012001F023
:1058F000FDFD00F051FEA868201AB0F57A7F02D3B2
:10590000AC6000F093FC04B02046BDE8704000F0AD
:10591000ABBD00003000002004030020EC0200209A
:10592000FFF740BAFFF7F2BC10B54FF0E020006976
:1059300002F0ECFE012803D0BDE8104002F0F6B9F9
:1059400010BD30B58FB028216846FAF77DFE1421CE
:105950000AA8FAF779FE0920012100904FF480305F
:10596000002404910691CDE901040225CDE90750F8
:105970004FF4E01009906846FDF7D4FC08B172B608
:10598000FEE70F20CDE90A054FF48060CDE90C4019
:1059900002210AA80E94FDF7C3FB002801D072B6BD
:1059A000FEE70FB030BD70470148FEF767B8000052
:1059B000CC040020F0B50268194B1A4C1A4D4FF078
:1059C0008047984205D0B84203D0A04201D0A842F7
:1059D00003D122F070064A683243984205D0B8429B
:1059E00003D0A04201D0A84203D122F44074CA6877
:1059F00022434C6922F08002224302608A68C2621C
:105A00000A688262984201D10969016301214161FA
:105A10000169C90703D0016921F001010161F0BDED
:105A2000002C0140000400400008004010B501F0C7
:105A30001F030121046A99408C430462016A9A4061
:105A40001143016210BD10B5846842EA032224F4B8
:105A50007F440A432243826010BD826822F07002B4
:105A60000A4342F0070181607047000030B5036AC5
:105A7000026A22F0010202624268846924F073051E
:105A80000C682C4323F002058B682B430A4DA84277
:105A90000BD123F00805CB6822F440722B434D69EB
:105AA00023F0040315438A692A43426084614968EC
:105AB0004163036230BD0000002C014030B5026A32
:105AC000036A23F010030362436884690D6824F4B9
:105AD000E64444EA05248D6822F0200242EA0512D9
