:020000040800F2
:100000004037002021020008DF2C00089B23000855
:10001000DD2C00086B0400086538000800000000B3
:10002000000000000000000000000000890100083E
:100030006D04000800000000CD0100080133000835
:100040003B0200083B0200083B0200083B0200089C
:100050003B0200083B0200083B0200083B0200088C
:100060003B0200083B0200083B0200083B0200087C
:100070003B0200083B0200083B0200083B0200086C
:100080003B0200083B0200083B0200083B0200085C
:100090003B0200083B0200083B0200083B0200084C
:1000A0003B0200083B0200083B0200083B0200083C
:1000B0003B0200087D3300083B0200083B020008B9
:1000C0003B0200083B0200083B0200083B0200081C
:1000D0003B0200084D380008593800083B02000870
:1000E0003B0200083B0200083B02000800F002F857
:1000F00000F03AF80AA090E8000C82448344AAF188
:100100000107DA4501D100F02FF8AFF2090EBAE885
:100110000F0013F0010F18BFFB1A43F0010318473B
:10012000685F0000885F0000103A24BF78C878C17B
:10013000FAD8520724BF30C830C144BF04680C60ED
:10014000704700000023002400250026103A28BF35
:1001500078C1FBD8520728BF30C148BF0B60704739
:100160001FB51FBD10B510BD00F045F91146FFF7D2
:10017000F7FF03F031FE00F063F903B4FFF7F2FF7D
:1001800003BC00F06BF90000224B19680868B0E866
:10019000F00F80F30988BFF36F8F4FF0000080F3FA
:1001A00011884EF00D0E70470000000006480068F0
:1001B000006880F3088862B661B6BFF34F8FBFF363
:1001C0006F8F00DF00BF00BF08ED00E0EFF3098094
:1001D000BFF36F8F0F4B1A6820E9F00F106008B55E
:1001E0004FF0500080F31188BFF34F8FBFF36F8F34
:1001F00005F028F84FF0000080F31188BDE80840B2
:1002000019680868B0E8F00F80F30988BFF36F8FB2
:10021000704700BF44000020EFF3058070470000E6
:100220000948804709480047FEE7FEE7FEE7FEE78A
:10023000FEE7FEE7FEE7FEE7FEE7FEE704480549C6
:10024000054A064B7047000079330008ED000008AE
:100250004031002040370020403300204033002050
:10026000032A40F2308010F0030C00F0158011F8E2
:10027000013BBCF1020F624498BF11F801CB00F8BA
:10028000013B38BF11F8013BA2F1040298BF00F80E
:1002900001CB38BF00F8013B11F0030300F02580CB
:1002A000083AC0F0088051F8043B083A51F804CBF2
:1002B000A0E80810F5E7121D5CBF51F8043B40F8B8
:1002C000043BAFF30080D20724BF11F8013B11F8C3
:1002D00001CB48BF11F8012B24BF00F8013B00F807
:1002E00001CB48BF00F8012B704710B5203AC0F091
:1002F0000B80B1E81850203AA0E81850B1E8185027
:10030000A0E81850BFF4F5AF5FEA027C24BFB1E863
:100310001850A0E8185044BF18C918C0BDE81040D4
:100320005FEA827C24BF51F8043B40F8043B08BFDD
:100330007047D20728BF31F8023B48BF11F8012BA4
:1003400028BF20F8023B48BF00F8012B704702F09D
:10035000FF0343EA032242EA024200F002B84FF0F0
:1003600000020429C0F0128010F0030C00F01B8082
:10037000CCF1040CBCF1020F18BF00F8012BA8BF90
:1003800020F8022BA1EB0C0100F00DB85FEAC17C54
:1003900024BF00F8012B00F8012B48BF00F8012B07
:1003A00070474FF0000200B5134694469646203938
:1003B00022BFA0E80C50A0E80C50B1F12001BFF41E
:1003C000F7AF090728BFA0E80C5048BF0CC05DF884
:1003D00004EB890028BF40F8042B08BF704748BFD2
:1003E00020F8022B11F0804F18BF00F8012B704746
:1003F000704770477047754600F02CF8AE46050010
:100400006946534620F00700854618B020B5FFF72F
:1004100015FFBDE820404FF000064FF000074FF0F9
:1004200000084FF0000B21F00701AC46ACE8C00912
:10043000ACE8C009ACE8C009ACE8C0098D4670471B
:1004400010B50446AFF300802046BDE81040FFF72A
:1004500094BE000000487047DC300020014918209D
:10046000ABBEFEE7260002007047FEE7704772B69B
:10047000FEE710B590F821100022022905D00421D2
:10048000816380F82020012010BD01680B6823F0F3
:100490000E030B6001680B6823F001030B6090F8FA
:1004A0004030C46B012101FA03F3636080F821102E
:1004B00080F82020104610BD10B590F821100024BF
:1004C000022903D00421816301243DE001680A6808
:1004D00022F00E020A6001680A6822F001020A6036
:1004E0001A4A0168914201D1012121E0174A1432D0
:1004F000914201D110211BE0144A2832914201D1CE
:10050000891515E0114A3C32914201D189140FE05E
:100510000E4A5032914202D14FF4803108E00B4A2A
:100520006432914202D14FF4801101E04FF08071AA
:10053000064A083A5160012180F82110002180F814
:100540002010416B01B18847204610BD08000240D1
:1005500070B5044600F010F90546601C02D004484E
:100560000078044400F008F9401BA042FAD370BDA3
:10057000340000202DE9F84FDFF8B8910024A9F1EC
:10058000040B23460F2709F1040AABF1040EC9E05E
:100590000125A5402A40AA427DD1674ED1F804C06A
:1005A000ACEB0608B44532D014DCBCF1030F3AD0F2
:1005B00009DCBCF1000F2AD0BCF1010F1CD0BCF14A
:1005C000020F31D11DE0BCF1110F17D0BCF1120F99
:1005D0002AD119E0B8F5881F19D006DCB8F5803F9C
:1005E00015D0B8F5801F1FD111E0B8F5001F0ED04F
:1005F000B8F5041F18D10AE0CB6815E0CB681B1DC5
:1006000012E0CB6808330FE0CB680C330CE08B684A
:100610002BB1012B4FF0080303D0456104E0042304
:1006200002E0056100E00023FF2A01D8064601E050
:1006300000F104064FEA840501D9A5F12005D6F89A
:10064000008007FA05FC28EA0C0803FA05F548EAD9
:100650000508C6F800804D68ED0062D5374DAE69DB
:1006600046F00106AE61AD6924F0030605F0010510
:100670000095334D06EB050CDCF80850A607360F45
:1006800007FA06F825EA0805DFF8B880404503D1E7
:100690004FF0000817E044E0DFF8AC80404502D19D
:1006A0004FF001080FE0DFF8A480404502D14FF081
:1006B000020808E0DFF89880404502D14FF00308B7
:1006C00001E04FF0040808FA06F848EA0508CCF8FB
:1006D00008804D68D9F80060ED024D4601D51643FB
:1006E00000E096432E604D68DAF80060AD02554692
:1006F00001D5164300E096432E604D68DBF800609C
:10070000AD035D4601D5164300E096432E604D686B
:10071000DEF80060ED03754601D5164300E0964310
:100720002E60641C0D682A46E5407FF431AFBDE8B9
:10073000F88F000008040140000011100010024072
:100740000000014000080140000C01400010014081
:10075000001401408068084000D001207047C26842
:1007600021EA02030A4043EA0241016170470AB1EB
:10077000016170470904FBE7014880687047000089
:100780003400002070B5040025D094F83D00002509
:1007900020B984F83C50204600F03CFC242084F82A
:1007A0003D002068016821F00101016020680168B6
:1007B00041F4004101602068016821F400410160BA
:1007C00000F0DEFD4D4A6168914201D84C4900E0DD
:1007D0004C49884201D2012070BD4B492368B0FBCF
:1007E000F1F15E6826F03F060E435E606368934257
:1007F00006D94FF4967359434FF47A73B1FBF3F172
:100800002368491C1E6A26F03F063143196261685D
:10081000914210D84900401EB0FBF1F2521CC2F3C5
:100820000B02042A01D2042022E0B0FBF1F0401CAC
:10083000C0F30B001CE0A268F2B301EBC10303EBB1
:100840000116431EB3FBF6F35B1C43F480431B0508
:1008500049D092B301EBC10202EB0111401EB0FB83
:10086000F1F0401CC0F30B0040F4804040F4004025
:100870002168CA694CF6FF739A431043C861D4E9F2
:10088000071001432068026822F0C0021143016092
:10089000D4E9030101432068826848F2FF339A4398
:1008A00011438160D4E9050108432168CA6822F038
:1008B000FF021043C86001E00EE016E02068016806
:1008C00041F0010101602564202084F83D0025638A
:1008D00084F83E50002070BD01EB4106431EB3FB7F
:1008E000F6F35B1CB3E70120C2E701EB4101401EB8
:1008F000B0FBF1F0401CC0F30B00B7E7A08601008D
:1009000080841E0000093D0040420F002DE9F84F91
:100910000025DDF82890984617468A46044600953B
:10092000FFF72AFF064694F83D0020287AD11923C4
:10093000012286492046009601F00AFF0028F5D1E1
:1009400094F83C0001286DD0012084F83C00206818
:100950000168C90703D1016841F001010160206805
:10096000016821F400610160222084F83D0010201C
:1009700084F83E0025646762A4F82A80608D208593
:100980007348E06233464A465146204601F01EFD58
:1009900000287CD1208DDFF8BC81202768B1012898
:1009A00014D00228206801681ED041F480610160E3
:1009B0002068416980690090BBE0206841698169D5
:1009C0000091016841F400710160B2E020680168A3
:1009D00021F48061016072B62068416981690091EB
:1009E000016841F400710AE041F40061016072B6EF
:1009F0002068416981690091016821F4806101608A
:100A000062B696E0032865D801280CD002284B4630
:100A10004FF000024146204600960BD001F098FEB0
:100A2000A8BB0CE090E032464946204601F036FF74
:100A300068BB71E001F08CFE48BB72B633E0206801
:100A4000016821F48061016072B620680069616A02
:100A50000870606A401C6062208D401E2085608D99
:100A6000401E60853C4846F2A8110068B0FBF1F0DA
:100A7000C0EBC00000EB80000090401E009007D04B
:100A800020684069C04340070DD50098F5E727E08E
:100A900044F8305F6773A573206940F0200020613F
:100AA00062B625731CE02068016841F400710160A2
:100AB00020680069616A0870606A401C6062218D6C
:100AC000491E2185618D491E618562B621680969CB
:100AD000017025E032464946204601F0DFFE10B1A4
:100AE0000120BDE8F88F20680069616A0870606ABB
:100AF000401C6062208D401E81B22185608D401EA9
:100B0000608520684269D243520712D4032903D179
:100B1000016821F48061016020680069616A0870E1
:100B2000606A401C6062208D401E2085608D401EE2
:100B30006085208D00287FF465AF84F83D7084F8CF
:100B40003E5084F83C50CCE70220CAE70200100077
:100B50000000FFFF04000100400000202DE9F84FD5
:100B60001F4690468A460446DDF82890FFF704FEAB
:100B7000054694F83D0020287FD1192301224049E1
:100B80002046009501F0E4FD002876D194F83C0061
:100B9000012872D0012084F83C0020680168C90750
:100BA00003D1016841F0010101602068016821F46E
:100BB00000610160212084F83D00102084F83E008F
:100BC00000262664C4F824806785608D20852D4822
:100BD000E0622B464A465146204601F06DFC90B932
:100BE000206841698069009036E02A4649462046DF
:100BF00001F08CFE50B1206C042804D120680168FB
:100C000041F4007101600120BDE8F88F606A21683D
:100C100000780861606A401C6062618D491E6185D0
:100C2000218D491E89B2218522685369DB435B0708
:100C30000BD451B100781061606A401C6062608D15
:100C4000401E6085208D401E20852A46494620464C
:100C500001F052FD0028CED1208D0028C5D154F8D6
:100C60003D0B016841F400710160202004F81E0969
:100C7000E67766770020C7E7FFE70220C4E70000B9
:100C8000020010000000FFFF2DE9FF4F83B0002598
:100C9000DDE910799A4693460446DDF848800095D0
:100CA000FFF76AFD064694F83D0020287CD1192301
:100CB000012288492046009601F04AFD0028F5D11E
:100CC00094F83C0001286FD0012084F83C00206893
:100CD0000168C90703D1016841F001010160206882
:100CE000016821F400610160222084F83D00402069
:100CF00084F83E0025646762A4F82A90608D208500
:100D00007548E062CDE9008653465A46204604996C
:100D100001F020FC00287CD1208DDFF8C091202735
:100D200068B1012814D00228206801681ED041F45F
:100D3000806101602068416980690090BCE02068A2
:100D4000416981690091016841F400710160B3E07B
:100D50002068016821F48061016072B620684169F1
:100D600081690091016841F400710AE041F4006179
:100D7000016072B62068416981690091016821F4BF
:100D80008061016062B697E0032865D801280CD025
:100D9000022843464FF000024946204600960BD0F9
:100DA00001F0D6FCA8BB0CE091E03246414620465B
:100DB00001F074FD68BB72E001F0CAFC48BB72B67A
:100DC00033E02068016821F48061016072B6206818
:100DD0000069616A0870606A401C6062208D401E74
:100DE0002085608D401E60853D4846F2A811006850
:100DF000B0FBF1F0C0EBC00000EB80000090401EA3
:100E0000009007D020684069C04340070DD5009886
:100E1000F5E727E044F8305F6773A573206940F079
:100E20002000206162B625731CE02068016841F44F
:100E30000071016020680069616A0870606A401C86
:100E40006062218D491E2185618D491E618562B6D2
:100E500021680969017026E032464146204601F0CA
:100E60001DFD18B1012007B0BDE8F08F20680069B2
:100E7000616A0870606A401C6062208D401E81B209
:100E80002185608D401E608520684269D2435207EB
:100E900012D4032903D1016821F480610160206824
:100EA0000069616A0870606A401C6062208D401EA3
:100EB0002085608D401E6085208D00287FF464AF02
:100EC00084F83D7084F83E5084F83C50CBE7022013
:100ED000C9E70000020010000000FFFF040001004D
:100EE000400000202DE9FF4F83B09A46DDE91197BD
:100EF00093460446DDF84080FFF73EFC054694F833
:100F00003D0020287FD11923012240492046009529
:100F100001F01EFC002876D194F83C00012872D024
:100F2000012084F83C0020680168C90703D10168EA
:100F300041F0010101602068016821F40061016055
:100F4000212084F83D00402084F83E0000262664DD
:100F5000C4F82480A4F82A90608D20852C48E06293
:100F6000CDE9007553465A462046049901F070FBBE
:100F700070B930E02A463946204601F0C7FC58B126
:100F8000206C042804D12068016841F400710160DC
:100F9000012007B0BDE8F08F606A21680078086121
:100FA000606A401C6062218D491E89B22185628D74
:100FB000521E628522685369DB435B070BD469B11B
:100FC00000781061606A401C6062208D401E2085A0
:100FD000608D401E6085208D0028CBD12A46394681
:100FE000204601F089FB0028CAD154F83D0B016866
:100FF00041F400710160202004F81E09E67766774D
:101000000020C6E7FFE70220C3E70000020010004F
:101010000000FFFF10B586B0002100910191029100
:1010200003910068104988421BD1104CA06940F020
:101030000800A061A069694600F0080004904FF420
:101040004060009012200190032003900848FFF7B1
:1010500091FAE06940F48000E061E06900F480000A
:10106000049006B010BD000000580040001002407F
:10107000000C014002488168027811448160704789
:1010800034000020074810B5016841F010010160EC
:10109000032000F0A7F80F2000F006F800F050F849
:1010A000002010BD0020024030B505461F4887B023
:1010B000C16941F00201C161C06906A900F00200E6
:1010C000009001A800F036F90498B0B100F058F98A
:1010D00040001749174AB0FBF1F11748491E02605A
:1010E000416040F2E7320021C0E903218160816163
:1010F00000F07CFB040003D015E000F041F9E8E7C4
:101100000D4800F0B5FB04000DD11D2000F03CF8A7
:10111000102D07D2002229461D2000F043F8074871
:10112000056000E0012407B0204630BD00100240F9
:1011300040420F0000040040C0030020380000209F
:101140000F4808B5816941F001018161816901F0B1
:1011500001010091C16941F08051C161C069002263
:1011600000F0805000900F21901E00F01BF8054801
:10117000416821F0E06141F00071416008BD00006C
:101180000010024000000140002809DB00F01F02AF
:10119000012191404009800000F1E020C0F80011D9
:1011A00070470000F0B40E4B1B680C46C3F30223DB
:1011B000C3F10705042D00D90425191D072901D203
:1011C000002300E0DB1E012606FA05F1491E21403E
:1011D00099409E40761E16403143F0BC02F043BB5E
:1011E0000CED00E0064900F0070208684FF6FF0327
:1011F000184040EA0220034A10430860704700008C
:101200000CED00E00000FA052DE9F0470F4605005F
:1012100061D0434E306800F00700B84209D2306810
:1012200020F0070038433060306800F00700B84213
:1012300051D128683B4C810712D5400703D560681F
:1012400040F4E06060602878000703D5606840F4EF
:10125000605060606068A96820F0F000084360603A
:101260002878C00728D06868012810D02168022893
:1012700010D0890700292EDA616821F003010143AB
:101280006160FFF779FA804641F288390DE0216804
:101290008903EFE78901EDE7FFF76EFAA0EB08019C
:1012A000494502D90320BDE8F0876068696800F00D
:1012B0000C00B0EB810FEFD1306800F00700B842AE
:1012C0000BD9306820F0070038433060306800F0F8
:1012D0000700B84201D00120E5E72878400705D58E
:1012E0006068E96820F4E0600843606028780007DF
:1012F00006D56068296920F4605040EAC10060604A
:1013000000F05EF86168084AC1F30311515CC840FF
:101310000649086006480068FFF7C6FE0020C2E7DD
:10132000002002400010024022600008400000201F
:10133000380000200F2202600C4A536803F00303B8
:101340004360536803F0F0038360536803F4E06381
:10135000C36052684FF4E06303EAD20202610448BA
:10136000006800F0070008607047000000100240AD
:101370000020024001480068704700004000002043
:101380000448054900684968044AC1F30221515CD8
:10139000C840704740000020001002403260000842
:1013A0000448054900684968044AC1F3C221515CF8
:1013B000C840704740000020001002403260000822
:1013C0000E4A51680E4801F00C03042B11D0082B73
:1013D0000FD10C48C1F38343C903C05C0AD55168DF
:1013E000084AC1F34041921E515C054A5043B0FB8C
:1013F000F1F0704704494843704700000010024074
:1014000000127A001260000800093D002DE9F84F33
:10141000040070D02078C04DC00749D06868C0F380
:101420008100012807D06868C0F38100022809D133
:101430006868C00306D52868800339D5606800282D
:10144000E7D035E06068B0F5803F0BD010B1B0F563
:10145000A02F11D0286820F480302860286820F45C
:10146000802002E0286840F480302860606890B1F5
:10147000FFF782F906460AE0286840F480202860D9
:10148000F0E700BFFFF778F9801B642873D828685D
:101490008003F7D50CE0FFF76FF9064605E000BFC3
:1014A000FFF76AF9801B6428F0D828688003F7D416
:1014B00020789A4E80074FF001094FF0000839D587
:1014C000686810F00C0F07D06868C0F3810002282C
:1014D00009D16868C00306D42868800714D520693C
:1014E000012808D110E02069B0B1C6F80090FFF7DC
:1014F00043F9074605E00AE1FFF73EF9C01B022861
:10150000C4D828688007F7D52868616920F0F800FA
:1015100040EAC10028600DE0C6F80080FFF72CF912
:10152000074604E0FFF728F9C01B022823D82868E3
:101530008007F7D4207800072CD57948A169D9B164
:10154000C0F80090FFF718F9074604E0FFF714F918
:10155000C01B02280FD8686A8007F7D571484FF47E
:10156000FA510068B0FBF1F0009000BF0098411EF6
:101570000091FAD20EE080E0C0F80080FFF7FCF89E
:10158000074604E0FFF7F8F8C01B022875D8686A20
:101590008007F7D42078400760D5E8690027C000AD
:1015A00008D4E86940F08050E861E869012700F05C
:1015B000805000905C480168C90513D401688346D7
:1015C00041F480710160FFF7D7F8824606E000BF62
:1015D000FFF7D2F8A0EB0A0064284ED8DBF8000031
:1015E000C005F5D5E06801280AD008B1052813D058
:1015F000286A20F001002862286A20F0040002E036
:10160000286A40F001002862E06841F2883B98B106
:10161000FFF7B2F882460BE0286A40F00400286227
:10162000EEE700BFFFF7A8F8A0EB0A0159455AD82A
:10163000286A8007F6D50CE0FFF79EF8824605E0A1
:10164000FFF79AF8A0EB0A0159454CD8286A8007A1
:10165000F6D41FB1E86920F08050E861E06988B3F2
:101660006968C1F38101022944D00228C6F860806C
:1016700004D0FFF781F8044638E034E0FFF77CF847
:10168000074604E0FFF778F8C01B02282BD828682B
:101690008001F7D4206AB0F5803F05D16868A16861
:1016A00020F4003008436860D4E908010843696801
:1016B00021F4741108436860C6F86090FFF75CF885
:1016C000044606E025E000BFFFF756F8001B02289D
:1016D00009D828688001F7D51BE000BFFFF74CF858
:1016E000001B022802D90320BDE8F88F286880017A
:1016F000F4D40EE00128F7D06868226A00F4803143
:10170000914204D1616A00F47010884201D0012036
:10171000EAE70020E8E70000001002400000424233
:101720008004424240000020007000407047704733
:1017300010B590F83C20012A22D0012280F83C20EC
:10174000CA688C6822F4407222434C6822F480629A
:1017500022430C6822F4006222430C6922F4805276
:1017600022434C6922F400522243C969002322F427
:1017700080420A4301684A6480F83C30002010BD72
:10178000022010BD70B590F83C20012A26D001241B
:1017900080F83C40022280F83D2003685A689D682A
:1017A00022F070060A6832435A600D4B02689A4272
:1017B00008D0B2F1804F05D00A4B9A4202D00A4BB2
:1017C0009A4204D1496825F080031943916080F85A
:1017D0003D40002180F83C10084670BD022070BDDD
:1017E000002C0140000400400008004010B5040037
:1017F00003D094F83D0010B107E0012010BD002097
:1018000084F83C00204600F01FF8022084F83D00D8
:10181000211D206801F0B8FD012084F8460084F8FD
:101820003E0084F83F0084F8400084F8410084F8CA
:10183000420084F8430084F8440084F8450084F8AA
:101840003D00002010BD000008B500680649884230
:1018500008D10648816941F400618161806900F422
:101860000060009008BD0000002C01400010024004
:1018700090F83D10012901D001207047022180F825
:101880003D100168CA6842F00102CA6000680B4955
:10189000884208D0B0F1804F05D00949884202D073
:1018A0000849884204D1816801F00701062903D064
:1018B000016841F00101016000207047002C0140E7
:1018C000000400400008004070B5044690F83C0059
:1018D0000025012817D0012684F83C60022084F8F6
:1018E0003D002068826822F0770222F47F42826005
:1018F0000868502838D00DDC20284FD005DC90B384
:10190000102811D14AE0022070BD302846D040286E
:101910000AD13BE060282FD070280DD0B0F5805F51
:1019200003D0B0F5005F12D0012584F83D6000209F
:1019300084F83C00284670BDCB68D1E901212068BD
:1019400001F06BFD2068816841F0770109E0CB6808
:10195000D1E90121206801F060FD2068816841F42F
:1019600080418160E1E719E0CA684968206801F0B8
:1019700009FE5021206806E0CA684968206801F025
:1019800012FE6021206801F052FDCEE7CA68496866
:10199000206801F0F7FD40212068F4E72268014645
:1019A0001046F0E72DE9F0410D46040003D094F80D
:1019B0003D0018B108E00120BDE8F081002084F866
:1019C0003C00204600F040F8022084F83D002068EA
:1019D000816844F2070291438160211D206801F073
:1019E000D3FC226890689169166A2B68AF6903433B
:1019F00040F20330814341EA0721A868EF690843B8
:101A00004FF6FC418843E96840EA07200143286912
:101A10002F6A000140EA0730084369686D6926F0C3
:101A2000220646EA0515294393602268906154F81E
:101A3000460B0162012004F81F09E0752076E0766C
:101A40002077A0750020B7E700B585B00021009190
:101A500001910291039101681A48B1F1804F1BD0A6
:101A6000194A914216D1C16941F00401C161C169AD
:101A700001F004010491816941F0080181618069EC
:101A8000694600F008000490C02000900F4800BF95
:101A9000FEF770FD05B000BDC16941F00101C161F3
:101AA000C16901F001010491816941F00401816182
:101AB0008069694600F00400049003200090044807
:101AC000E6E700000010024000080040000C014062
:101AD0000008014070B590F83E60044690F83F5011
:101AE00090F8423090F84320022021B104290ED012
:101AF000012E1BD114E0012E18D1012B16D184F830
:101B00003E0084F8420001220021206820E0012DDF
:101B10000CD1012A0AD184F83F0084F8430014E074
:101B2000012D03D1012B01D1012A01D0012070BD6B
:101B300084F83E0084F83F0084F8420084F84300B3
:101B400001220021206801F05BFC012204212068B1
:101B500001F056FC2068016841F00101016000209D
:101B600070BD70472DE9F04104460068C6680569FC
:101B70004FF00007A90713D5B10711D5F91E016170
:101B800001202077206880698007204602D0FFF777
:101B9000E8FF04E000F0A6F8204600F038F92777C7
:101BA000680716D5700714D521686FF00400086126
:101BB000022020772068806910F4407F204602D000
:101BC000FFF7CFFF04E000F08DF8204600F01FF98A
:101BD0002777280715D5300713D521686FF008003F
:101BE0000861042020772068C0698007204602D061
:101BF000FFF7B7FF04E000F075F8204600F007F9A2
:101C00002777E80616D5F00614D521686FF0100086
:101C10000861082020772068C06910F4407F2046C2
:101C200002D0FFF79EFF04E000F05CF8204600F0D1
:101C3000EEF82777E80708D0F00706D021686FF0A4
:101C400001000861204600F031F9280608D5300669
:101C500006D521686FF0800008612046FFF766FD19
:101C6000680608D5700606D521686FF04000086147
:101C7000204600F025F9A8060AD5B00608D5216847
:101C80006FF0200008612046BDE8F041FFF74FBD2E
:101C9000BDE8F08100B585B000210091019102916D
:101CA000039100680C49884213D10C48816941F0C6
:101CB000040181618069694600F0040004904FF4DA
:101CC0001060009002200190032003900448FEF76A
:101CD00051FC05B000BD0000002C01400010024086
:101CE00000080140704770B5044690F83C0000269B
:101CF0000D4601280FD0012084F83C006AB1042A67
:101D00001DD0082A2FD00C2A3FD00126002084F8AD
:101D10003C00304670BD022070BD206801F090FB91
:101D20002068816941F0080181612068816921F0A2
:101D300004018161206881692A69114311E02068EA
:101D400001F0A6FB2068816941F40061816120688F
:101D5000816921F480618161206881692A6941EA91
:101D600002218161D2E7206801F0BEFB2068C169D1
:101D700041F00801C1612068C16921F00401C1611D
:101D80002068C1692A69114311E0206801F0D8FB7D
:101D90002068C16941F40061C1612068C16921F412
:101DA0008061C1612068C1692A6941EA0221C1617B
:101DB000ACE710B5040003D094F83D0010B107E083
:101DC000012010BD002084F83C00204600F01EF8E1
:101DD000022084F83D00211D206801F0D5FA012081
:101DE00084F8460084F83E0084F83F0084F8400000
:101DF00084F8410084F8420084F8430084F84400E9
:101E000084F8450084F83D00002010BD70477047FD
:101E100010B50446022249B104290ED0082913D076
:101E200094F84100012816D0012010BD94F83E001E
:101E30000128F9D184F83E200FE094F83F000128F2
:101E4000F2D184F83F2008E094F840000128EBD15B
:101E500084F8402001E084F841200122206801F04C
:101E6000CFFA0F492068884203D1426C42F4004205
:101E700042642068884208D0B0F1804F05D00949FB
:101E8000884202D00849884204D1816801F00701E4
:101E9000062903D0016841F001010160002010BD56
:101EA000002C014000040040000800400068034985
:101EB000884201D1FFF7DEB87047000000040040FF
:101EC0007047704700680449884204D101220349E1
:101ED000034800F0DBB97047003801400D000020D6
:101EE000F0010020F8B5016804460868CA684B692B
:101EF00010F00F0F4FF0000559D003F0010602F467
:101F00009077374365D0C10705D0D10503D5616C03
:101F100041F001016164410705D5D90703D0616C27
:101F200041F002016164810705D5D90703D0616CD6
:101F300041F004016164010707D502F0200131433B
:101F400003D0616C41F008016164616C00293AD0F2
:101F5000800604D5900602D5204601F065FB206876
:101F60004069616CC0F38010090700D460B320465B
:101F700001F033FB20684069400621D52068143009
:101F800050E8001F21F0400140E80012002AF5D17E
:101F9000E06BA8B16D494163E06BFEF78DFA002854
:101FA00011D0E06B416B01B0BDE8F04008478306FB
:101FB0000FD593060DD52046BDE8F84001F034BB9F
:101FC0002046FFF77FFFF8BD2046FFF77BFF6564E3
:101FD000F8BD266B2023012E7CD1C6067AD5D60605
:101FE00078D508684868009048694FF002064006B6
:101FF00040D5E16B086840680004000CE8D0A28D71
:102000008242E5D9E085886920282DD020680C30EF
:1020100050E8001F21F4807140E80012002AF5D139
:102020002068143050E8001F21F0010140E8001240
:10203000002AF5D12068143050E8001F21F040013B
:1020400040E80012002AF5D184F842302563206868
:102050000C3050E8001F21F0100140E80012002A67
:10206000F5D1E06BFEF705FA6663A08DE18D401AAD
:1020700081B22AE0A08DE18D401A81B2E08D002866
:10208000A6D00029A4D022680C3252E8000F20F418
:10209000907042E80007002FF5D12068143050E816
:1020A000002F22F0010240E80027002FF5D184F82C
:1020B0004230256320680C3050E8002F22F01002D7
:1020C00040E80023002BF5D166632046FFF7F9FEB8
:1020D000F8BDFFE705062BD5150629D594F8410074
:1020E0002128F5D1A068B0F5805F01D12069B0B199
:1020F000206A411C2162216800784860E08C401E03
:102100000004000CE084E3D12068C16821F0800164
:10211000C1602068C16841F04001C160D8E7206A11
:102120000088C0F308004860206A801C2062E5E750
:102130004006CDD55006CBD5CA68204622F04002D5
:10214000CA6084F8413000F027F9C1E7CB350008B8
:1021500070B5040004D094F84100002510B106E0E9
:10216000012070BD84F84050204600F023F8242060
:1021700084F841002068C16821F40051C160204604
:1021800001F0B4FA2068016921F4904101612068EE
:10219000416921F02A0141612068C16841F4005180
:1021A000C1606564202084F8410084F842006563C2
:1021B000002070BD70B586B0002400940194029494
:1021C00003942E4E03682E49022003222D4DB34264
:1021D00026D18B6943F480438B618B6903F4804380
:1021E00004938B6943F004038B618969039201F0C6
:1021F000040104910102CDE9001069462846FEF76A
:10220000B9F92815CDE90004694628460294FEF77D
:10221000B1F9002205212520FEF7C4FF252028E082
:10222000194EB34227D1CB6943F40033CB61CB695C
:1022300003F4003304938B6943F004038B618969D1
:10224000039201F0040104910421CDE900106946D4
:102250002846FEF78FF90820CDE900046946284694
:102260000294FEF787F9002205212620FEF79AFF47
:102270002620FEF789FF06B070BD0000003801403F
:1022800000100240000801400044004090F8423035
:10229000202B01D00220704721B11AB10023036323
:1022A00001F080BA0120704730B400680E498842BE
:1022B00017D10E4842788188C388491C01F07F01FC
:1022C000994203D18168491C816003E0084B8488EE
:1022D0001A5581800549012230BC491C0548FFF789
:1022E000D5BF30BC70470000003801400C00002012
:1022F000D4020020F00100202DE9F843044690F8B4
:102300004100984616460D46202802D00220BDE81E
:10231000F88385B17EB100206064212084F84100FB
:10232000FEF72AFAA6848146E684A0682027B0F545
:10233000805F02D003E00120E9E7206910B12E465A
:1023400000250EE000260CE08021204601F045FA31
:10235000A8B9C6B116F8010B21684860E08C401E90
:10236000E084E08C4B464FF00002CDF8008000285E
:10237000EAD14FF04001204601F02FFA40B184F835
:1023800041700320C3E735F8020BC0F30800E3E710
:1023900084F841700020BAE77047FEE701684A6997
:1023A000D24352050FD46FF480624A61002140F895
:1023B000301F202242738173026942F004020261DD
:1023C0000173012070470020704700002DE9F84F8D
:1023D0000446C06A1E4693460D4621680A6842F4C8
:1023E00080620A60082807D0012805D010F5803FD8
:1023F00002D0206B112804D12068016841F480715B
:1024000001604FF001195B460022494620460096C4
:1024100000F09EF94FF4007840B120680068C005D4
:1024200001D5C4F840800320BDE8F88F2069DFF8AB
:1024300084A0B0F5804F0FD00620216800EAD517A0
:1024400047F0F000086133465A460AF1060120467B
:1024500000F0C6F958BB03E0E8B240F001001CE010
:102460002168E8B2086133465A465146204600F0DA
:10247000B7F9E0B92068416981690091016841F4C8
:10248000807101605B46002249462046009600F0BC
:102490005FF90028C1D147F0F10021680861334697
:1024A0005A465146204600F09BF90028BCD0012036
:1024B000BAE7000002000100F8B50446C06A1E46F3
:1024C0000D461746082807D0012805D010F5803F93
:1024D00002D0206B122804D12068016841F4807179
:1024E0000160134600224FF001112046009600F0D3
:1024F0002FF940B120680068C00502D54FF4007084
:1025000020640320F8BD2069B0F5804F0ED006206E
:10251000216800EAD51040F0F000086133463A46E1
:102520000B49204600F05CF978B902E005F0FE00A6
:1025300000E0E8B221680861054933463A46891F40
:10254000204600F04DF90028DCD00120F8BD000045
:10255000080001002DE9F84F0446006889460B9DEC
:1025600001689846174641F480610160206801685F
:1025700041F48071016000954FF0011B0022594623
:1025800020460A9B00F0E4F84FF4007A40B120683E
:102590000068C00501D5C4F840A00320BDE8F88F4D
:1025A000216809F0FE0008612B46284920460A9A56
:1025B00000F016F9F0BB20684169806900902A4656
:1025C00020460A9900F0A2F940B1206C04283AD1C3
:1025D0002068016841F40071016034E0FEB2B8F196
:1025E000010F09D02168380A08612A4620460A9955
:1025F00000F08CF90028E8D1206806612A462046C0
:102600000A9900F083F90028DFD12068016841F4BD
:102610008071016000950022594620460A9B00F017
:1026200097F80028B3D1216809F0FF0040F00100BD
:10263000086100E007E02B46044920460A9A00F0B2
:10264000CFF80028AAD00120A8E70000020001006E
:102650002DE9F843044600680D46DDE90897016856
:102660009846164641F4807101604B4600224FF0B7
:1026700001112046009700F06BF848B1206800680F
:10268000C00502D54FF4007020640320BDE8F88334
:10269000216805F0FE0008613B464A461549204680
:1026A00000F09EF888B920684169806900903A4638
:1026B0004946204600F02AF948B1206C042804D18C
:1026C0002068016841F4007101600120DEE7F5B285
:1026D000B8F1010F09D02168300A08613A4649462D
:1026E000204600F013F90028E7D12068056100209A
:1026F000CCE700000200010070B516460D46044606
:102700001EE02046FFF74AFE08B1012070BD681C9C
:1027100016D0FEF731F8801BA84200D885B9206892
:102720004069C04340070BD5002044F8300F2021FA
:102730006173A073216941F0200121612073E4E7F6
:1027400020684069C0434007DBD4002070BD000012
:102750002DE9F047984617460D460446C1F3074653
:10276000DDF820902AE000BFB8F1FF3F26D0FEF749
:1027700003F8A0EB0901414502D8B8F1000F1DD1C3
:102780002068012E16D0806925EA00000004000CA4
:1027900012D00020B84211D1002044F8300F20217F
:1027A0006173A073216941F0200121612073012030
:1027B000BDE8F0874069E7E70120EBE72068012EDC
:1027C0000AD0806925EA00000004000C06D0002031
:1027D000B842C9D00020EBE74069F3E70120F7E7F2
:1027E0002DE9F047984616460D4604464FF000097D
:1027F0004FF0200AC1F3074723E020684069C04337
:10280000400515D42068016841F400710160216819
:102810006FF480604861C4F8309084F83DA084F87B
:102820003E90216C41F00401216484F83C9021E049
:10283000701C06D0FDF7A0FFA0EB0800B04203D843
:1028400016B1012F1FD021E02068012F15D080691B
:1028500025EA00000004000C18D000BF44F8309FA7
:1028600084F80DA084F80E90216941F020012161C7
:1028700084F80C900120BDE8F087406925EA00004B
:102880000004000CEAD12068406901E020688069FA
:1028900025EA00000004000CAFD1ECE72DE9F0417F
:1028A000002590460E460446202728E04069C04394
:1028B000C0060CD454F8301B6FF01000486144F887
:1028C00010596777A577206A2062257714E0FDF715
:1028D00053FFA0EB0800B04200D886B920684069D9
:1028E000C04340060BD544F8305F6773A573206979
:1028F00040F02000206125730120BDE8F0812068B0
:102900004169C9434906D1D40020F6E770B516469F
:102910000D4604461EE02046FFF740FD08B10120A9
:1029200070BD681C16D0FDF727FF801BA84200D899
:1029300085B920684069C04300060BD5002044F8E3
:10294000300F20216173A073216941F020012161C2
:102950002073E4E720684069C0430006DBD4002010
:1029600070BD000010B5094A0021094801F07AFB4A
:10297000084C064A002120602432074801F072FB0F
:102980006060BDE8104000F0D5B900004C5F000861
:10299000F932000800000020FD3200082DE9F04760
:1029A00086B0002431480094019402940394816914
:1029B00041F010018161816901F010010491816988
:1029C00041F020018161816901F020010491816958
:1029D00041F004018161816901F004010491816980
:1029E00041F0080181618069DFF8848000F008000F
:1029F0004FF400550490002229464046FDF7B7FEEB
:102A0000DFF87090002240214846FDF7B0FEDFF865
:102A100068A04FF20307002239465046FDF7A7FE93
:102A20000095022601250396CDE9015469464046EA
:102A3000FDF7A0FD10208DE8310069464846FDF7FE
:102A400099FD4020CDE90005CDE90246694648469A
:102A5000FDF790FD00970396CDE901546946504675
:102A6000FDF788FD06B0BDE8F087000000100240C9
:102A70000010014000080140000C01400D4810B555
:102A80000B4901600C49416000214FF48042816094
:102A9000C0E9031241618161C1610162FDF772FE0B
:102AA000002803D0BDE81040FDF7E1BC10BD0000D8
:102AB00000580040C4000020A086010010B596B068
:102AC00000240F9410941194129413941C216846BE
:102AD0001494FDF766FC202107A8FDF762FC2C4842
:102AE0002A49C0E9001440F60F61C0E902410461BF
:102AF00044618461FEF77AFE08B1FDF7B8FC4FF43B
:102B000080500F900FA92248FEF7DEFE08B1FDF7B6
:102B1000AEFC1F48FFF74DF908B1FDF7A8FC139470
:102B200013A91B481494FEF72DFE08B1FDF79FFC76
:102B30006020CDE9000402940394049405940022DB
:102B4000694613480694FFF7CEF808B1FDF78FFCED
:102B50000C2269460E48FFF7C6F808B1FDF787FC5E
:102B60000794089409944FF400500A94CDE90B405F
:102B700007A907480E94FEF7DBFD08B1FDF777FCC7
:102B80000348FFF787F816B010BD0000002C014085
:102B90001801002010B58CB024216846FDF701FC17
:102BA0000024164809944FF080410A94C0E90014AB
:102BB0004FF6FF71C0E90241046184610320CDE951
:102BC00000040120CDE9020404210491CDE905406F
:102BD000CDE9074169460948FEF7E4FE08B1FDF773
:102BE00046FC099409A905480A94FEF7CBFD002884
:102BF00001D0FDF73CFC0CB010BD000060010020CE
:102C000010B58CB024216846FDF7CBFB0024164894
:102C1000099414490A94C0E900144FF6FF71C0E901
:102C20000241046184610320CDE900040120CDE963
:102C3000020404210491CDE90540CDE9074169462C
:102C40000948FEF7AFFE08B1FDF711FC099409A988
:102C500005480A94FEF796FD002801D0FDF707FC11
:102C60000CB010BD00080040A80100200C4810B5B1
:102C70000A4901604FF4E1314160002181600C227A
:102C8000C160C0E904128161C161FFF761FA0028E7
:102C900003D0BDE81040FDF7EABB10BD003801408D
:102CA000F00100200C4810B50A4901604FF416519C
:102CB0004160002181600C22C160C0E90412816181
:102CC000C161FFF745FA002803D0BDE81040FDF7C9
:102CD000CEBB10BD0044004038020020FEE7FEE7F6
:102CE00010B554210948FDF75CFB0848002101702C
:102CF000017100F095F900F019FA00F0B7F900F051
:102D00008FFABDE8104000F011B9000080020020E9
:102D100001F0F4F84FEA000400F01CF900F080FE26
:102D200000F014FE00F08EFE0A34204601F0BFF8D9
:102D3000F2E7000010B50E4801F03FF90D490860B8
:102D40000D4800F067F90A4A00216C3A0B4801F07F
:102D500089F9074A0021483A094801F083F9044AF1
:102D6000BDE81040243A0021064801F07BB900007C
:102D70000060000808000020FD2D0008112D00084B
:102D80006D2E0008BD2E00084FF47A74204601F025
:102D900081F8FBE710B504002CD000F041FE164886
:102DA000017821704188618001792171C188E180B9
:102DB00001892181418961818189A18190F8271050
:102DC00011B990F8281001B10121A17390F82910D0
:102DD0002C30E1730FC804F1100C8CE80F00064989
:102DE00018223C3104F12000FDF77FFABDE81040C5
:102DF00000F028BE10BD00008002002010B504467F
:102E000000F00EFE6078012809D002280BD0164988
:102E100003280CD004280ED005281AD01FE0204625
:102E200000F084FF1BE0204600F0A2FF17E0012025
:102E300081F8250013E0A078022810D3E07800B1D3
:102E4000012081F82600207900B1012081F82700B7
:102E500005E0488840F00800488003200870BDE87D
:102E6000104000F0EFBD00008002002000F00AFAE0
:102E7000322001F00FF8F9E70E4DDFF83C804FF4F7
:102E8000FA764FF4005700BF00F0CAFD28780328F7
:102E90000CD002280CD0344600F0D4FD3946404610
:102EA000FDF75DFC204600F0F5FFEDE76424F3E755
:102EB000C824F1E78002002000100140084C0026E1
:102EC0004FF4FA77384600F0E5FF00F0A9FD94F8DA
:102ED000255084F8256000F0B5FD01F0F5FDF1E71F
:102EE0008002002070B50346104641F221054FF6DE
:102EF000FF7410E013F8012B80EA02200022060480
:102F000003D585EA400080B201E004EA4000521C8B
:102F100092B2082AF3D3491E89B2EBD270BD0000E9
:102F200001488068704700000C000020074810B579
:102F300000218180C180816001F034F903490122C0
:102F4000BDE81040491C0248FFF7A0B90C00002062
:102F5000F001002070B5084C084DE088A188884237
:102F600009D0E088E188285C491C01F07F01E180FC
:102F700001F0BEF8F1E770BD0C000020D402002083
:102F80002DE9F04393B0144689460646402A03D9FA
:102F9000012013B0BDE8F083AA208DF80000552071
:102FA00001278DF801008DF80270E8468DF8036066
:102FB0008DF80440052554B1B9F1000F07D0224621
:102FC000494608F10500FDF74BF9601DC5B28DF8C3
:102FD00048708DF849608DF84A404FF6FF72032122
:102FE00012A8FFF77FFF024621464846FFF77AFF07
:102FF00008F805006D1CE9B2000A08F80100491C38
:10300000CAB2322369460248FFF776F9C1E70000E9
:10301000F00100200149C860704700000C0000204A
:103020000648016841F08071016005480021416057
:10303000016841F00101016070470000FCED00E013
:10304000001000E070B5074C05466668FEF792F97F
:103050000549B0FBF1F169436068801B8842FBD3EE
:1030600070BD0000001000E040420F0010B53C2190
:103070000A48FEF72FFD3C210948FEF72BFD0749C2
:1030800000200968486206490968486205490880C5
:10309000488005490860486010BD000060010020BC
:1030A000A80100201C000020980300202DE9F04119
:1030B000074615480E460068416A14480068436A8E
:1030C000134A548810881C1B25B2124C081A118010
:1030D00000B25380208165812168014421606168CC
:1030E00029446160394600F07FFCA08139462846BA
:1030F00000F07AFCE081002E03D094E80F0086E80F
:103100000F00BDE8F081000060010020A801002050
:103110001C0000209803002008B1012200E00022DA
:1031200040210148FDF723BB0008014010B50021F4
:103130000948FEF76DFE0C210748FEF769FE0648B8
:103140000068416C41F40041416400F03DF8BDE885
:1031500010400020FFF7E0BF18010020F8B50D4631
:1031600000F0E0FB0446284600F0DCFB134905466E
:103170000C80488054EA050000D00120FFF7CCFF06
:103180000F4E4FF48053324659001046009401F020
:1031900047FD4FF40043324659101046009501F0A8
:1031A0003FFD204600F0B2FD064C21680864284629
:1031B00000F0ACFD21684863F8BD0000200000204D
:1031C000000C01401801002038B50D4800240D4DB9
:1031D000048044804FF480532A46590010460094DE
:1031E00001F01EFD4FF400432A465910104600948A
:1031F00001F016FD044801680C640068446338BDA2
:1032000020000020000C014018010020002803D0FD
:1032100018220249FDF724B870470000A8030020D7
:103220001FB518211448FDF79AF814A0322200683F
:103230000390022103A88DE80700012300228021CA
:103240000F48FDF74FFE00226B21682000F0AEFD15
:1032500070B103221A21682000F0A8FD00221B2172
:10326000682000F0A3FD00221C21682000F09EFDD4
:10327000BDE81F4000F0C6BCA8030020399F000035
:10328000C40000207FB5FDF777FA184D0446686842
:10329000201A64281BD36C60022203A9CDE9001216
:1032A00032200290802101231148FDF7EDFC08B186
:1032B000002107E0BDF80C000E4940BAC0088000AC
:1032C00048800121012001F0C3FC00F0A1FDA868A5
:1032D000201AB0F57A7F02D3AC6000F0C5FB04B0D1
:1032E0002046BDE8704000F0BDBC00002400002076
:1032F000C4000020A8030020FFF746BDFFF7BCBDB7
:1033000010B54FF0E020006902F026FC012803D040
:10331000BDE8104002F01CB810BD30B58FB02821B8
:103320006846FDF73EF814210AA8FDF73AF8012196
:103330000804CDE900100024029402250491CDE98F
:1033400007504FF4E01009906846FEF75FF808B1A7
:1033500072B6FEE70F20CDE90A054FF48060CDE993
:103360000C4002210AA80E94FDF74EFF002801D060
:1033700072B6FEE70FB030BD704700000148FEF79F
:10338000F1BB0000C0030020F0B50268194B1A4CD5
:103390001A4D4FF08047984205D0B84203D0A04262
:1033A00001D0A84203D122F070064A683243984205
:1033B00005D0B84203D0A04201D0A84203D122F4E4
:1033C0004074CA6822434C6922F0800222430260A2
:1033D0008A68C2620A688262984201D109690163FF
:1033E000012141610169C90703D0016921F001018F
:1033F0000161F0BD002C01400004004000080040C5
:1034000010B501F01F030121046A99408C43046246
:10341000016A9A401143016210BD10B5846842EA06
:10342000032224F47F440A432243826010BD826851
:1034300022F070020A4342F00701816070470000E9
:1034400030B5036A026A22F00102026242688469AE
:1034500024F073050C682C4323F002058B682B4382
:103460000A4DA8420BD123F00805CB6822F4407224
:103470002B434D6923F0040315438A692A434260B4
:10348000846149684163036230BD0000002C014043
:1034900030B5026A036A23F010030362436884694B
:1034A0000D6824F4E64444EA05248D6822F02002E5
:1034B00042EA05120B4DA8420ED1CD6822F08002DF
:1034C00042EA05124D6923F4406343EA85038D699E
:1034D00022F0400243EA85034360846149688163C6
:1034E000026230BD002C014030B5036A026A22F44A
:1034F000807202624268C46923F4007324F0730589
:103500000C682C438D6843EA05230C4DA8420ED16C
:10351000CD6823F4006343EA05234D6922F4405249
:1035200042EA05128D6923F4806342EA0512426083
:10353000C4614968C163036230BD0000002C0140D2
:1035400030B5046A026A22F4805202624268C3699A
:103550000D6823F4E64343EA05238D6824F4005400
:1035600044EA0534064DA84204D14D6922F4804254
:1035700042EA85124260C36149680164046230BD59
:10358000002C014010B5036A046A24F001040462AF
:10359000846924F0F00444EA021423F00A020A4386
:1035A0008461026210BD10B5036A046A24F010043D
:1035B0000462846923F0A00324F4704444EA0232D4
:1035C00043EA01118261016210BD10B5406A002119
:1035D000C185C184FEF776FC10BD01680C3151E84D
:1035E000002F22F4907241E80023002BF5D10168EE
:1035F000143151E8002F22F0010241E80023002B92
:10360000F5D1016B012909D101680C3151E8002F76
:1036100022F0100241E80023002BF5D1202180F890
:10362000421000210163704708B590F8421022292A
:1036300001D0022008BD82684FF480539A4201D124
:10364000016921B1816A9A421BD04AB10AE002683D
:10365000816A5268C2F308020A80816A891C08E004
:10366000026972B10268526802F07F020A70816AD0
:10367000491C8162C18D491E0904090CC18503D012
:103680001BE002685268F1E70168CA6822F0200274
:10369000CA600168CA6822F48072CA6001684A6917
:1036A00022F001024A61202180F84210002141638A
:1036B000026B012A03D0FEF7F7FD002008BD01636D
:1036C00001680C3151E8002F22F0100241E800237C
:1036D000002BF5D101680A68D20602D50A6849684C
:1036E0000091818DFEF7EDFBE7E7000070B5044621
:1036F00000680169E26821F44051114301612169C8
:10370000A0680843616908432168CA6841F20C63F4
:103710009A430243CA6020684169A26921F440715A
:10372000114341611E492068884202D1FDF738FEED
:1037300001E0FDF725FE00EBC00101EB001260681F
:1037400064218000B2FBF0F3B3FBF1F36FF01806D5
:103750007343B2FBF0F5B2FBF0F605EB83053223C1
:1037600003EB0515B5FBF1F5B6FBF1F605F0F00539
:1037700005EB0615B2FBF0F6B2FBF0F0B0FBF1F092
:103780006FF01802504306EB800003EB0010B0FB13
:10379000F1F0216800F00F002844886070BD00003F
:1037A0000038014081628285C28500214164222166
:1037B00080F84210016921B10168CA6842F4807240
:1037C000CA6001684A6942F001024A610068C16842
:1037D00041F02001C160002070472DE9F843984670
:1037E00017460D460446089E24E0701C22D0FCF7C4
:1037F000C3FFA0EB0800B0421AD8CEB12068C16860
:10380000490717D5802D15D0402D13D00168C94325
:1038100009070FD401680025406800902046FFF793
:10382000DCFE0820606484F840500120BDE8F88385
:103830000320FBE72068006835EA000004D0002080
:10384000B842D2D00020F1E70120F9E70148FEF7A5
:1038500049BB0000F00100200148FEF743BB000017
:1038600038020020FEE70907090E002804DB00F1FA
:10387000E02080F80014704700F00F0000F1E02015
:1038800080F8141D7047000070B5224A002192F89C
:103890003C301B070DD5B2F9443041F29414A342D9
:1038A00001DB012303E0B3F57A6F02DC002382F829
:1038B0002830184B92F827405B8824B992F82840AA
:1038C0000CB95C0701D5012400E0002492F82650D1
:1038D0001DB1012182F8291008E04BB1C821B0FBCD
:1038E000F1F010F0010182F8291003D0012202E06A
:1038F00082F829100022084D01212846FCF737FFE5
:103900000CB1012200E000222846BDE870400221EF
:10391000FCF72DBF80020020000C0140008840BA57
:1039200000B270474FF47A71884202DC4942884203
:1039300000DA084670474FF47A71884202DC494247
:10394000884201DA0846704700B2704770B5FCF74C
:1039500013FF054623490A20FFF7A8FB2148103032
:10396000FFF754FC284601F0BBF91E4C00262C3C06
:103970002078022809D06681A68126616661FFF75A
:1039800023FC0020FFF7C8FB14E02079012816D0A3
:10399000B4F90600FFF7CFFF6081B4F90800FFF724
:1039A000CAFFA08126616661B4F90C10B4F90A005F
:1039B000FFF7D4FB2846BDE87040FFF765BF094A12
:1039C000B4F93810B4F906001C3A01F065F96081C9
:1039D000044AB4F93A10B4F90800183A01F05CF955
:1039E000A081E1E7AC02002081B14FF47A7250432C
:1039F00090FBF1F0CC2148434FF4A56190FBF1F02E
:103A0000B0F5004F04DB47F6FF7005E0002070477B
:103A10000249884200DA084600B270470080FFFF82
:103A200010B5074C2068002809D000F057FA02288A
:103A300005D12068BDE81040142100F095BA10BDF2
:103A40000800002010B5074C2068002808D000F0BE
:103A500045FA022804D12068BDE8104000F0E1BA20
:103A600010BD0000080000207FB528A032240068A7
:103A70000390022303AA882100942548FDF76EF8DD
:103A800008B100213AE0142500F028FA022828465F
:103A900038D0FCF75DFD062301AA88211C4800945C
:103AA000FCF734FF0028ECD1022101A801F0DAF87C
:103AB0009DF806108842E4D102210DF1070001F0C3
:103AC000D1F89DF809108842DBD1BDF8040044F21A
:103AD0005C4241BA51434FF6FF72B1FBF2F30D491C
:103AE000BDF80700A3F58853943B8B8040BA42F29F
:103AF00010735843B0FBF2F0C8800121022001F09E
:103B0000A7F87FBD00F0C6F9C5E700002C0600004D
:103B1000C4000020A80300201FB5094C002210217A
:103B20002046FCF724FE1020009011200190012077
:103B300002900320039069462046FCF71BFD1FBD41
:103B4000000801402DE9FE43814600F06FF800288F
:103B500048D0CC2000F0BCF8BE2000F0B9F8DFF867
:103B6000A080002500263446FFF7D6FF0620FFF789
:103B700069FA00F047F80920FFF764FA102140467F
:103B8000FCF7E8FD01281ED000273720FFF75AFA7E
:103B9000A740F8B2641C0643E4B2082CE4D30DF845
:103BA00005606D1CEDB26846092DDBD3034600208D
:103BB00007228C2413F8011B48400021C50704D0BC
:103BC00084EA500002E00127DFE74008491CC9B23F
:103BD0000829F3D3521ED2B2ECD29DF808108842C5
:103BE00002D00020BDE8FE83BDF9000064214843F7
:103BF000C11700EB11700111A9F800100120F1E7C5
:103C0000000801401FB5084C012210212046FCF796
:103C1000AEFD102000900020019001200290694626
:103C20002046FCF7A7FC1FBD0008014010B5FFF7B8
:103C300073FF4FF4F070FFF705FAFFF7E3FF46203C
:103C4000FFF700FA10210648FCF784FD30B100248C
:103C50004FF4CD70FFF7F6F9204610BD0124F7E7C9
:103C600000080140F8B5184C054620462178C06888
:103C70000026281A91B1B0F5487F0ED36846FFF7A9
:103C800061FF28B11149BDF800000881012100E061
:103C90000021082000F0DCFF2670F8BDB0F57A7F27
:103CA000FBD3FFF7C3FF48B1CC2000F011F844204C
:103CB00000F00EF801202070E560F8BD002108201A
:103CC00000F0C6FFF8E7000024000020A803002051
:103CD00070B505465FF0000405F00106FFF71CFF14
:103CE00036B10620FFF7AEF9FFF78CFF402005E064
:103CF0003C20FFF7A7F9FFF785FF0A20FFF7A2F99D
:103D0000641C6D08E4B2082CE6D370BD064909684E
:103D1000C96A491C002801DA404200B248434FF406
:103D20007A71B0FBF1F070471801002010B581786E
:103D300005291AD30D4C30F8031FE18041882181F9
:103D400000792071012801D000202071FCF714FDBA
:103D5000A061012084F824006188002905D1E18850
:103D600009B9218901B10220207010BD8002002014
:103D700010B5817800290DD0C1780B4C002021B1FD
:103D8000012908D0022905D16080E080208184F8D3
:103D90002400207010BD60880028FBD10120207015
:103DA000FCF7EAFCA06110BD8002002017B583B0CB
:103DB0003224012305AA8DE81C0040000A46014672
:103DC0000448FDF78FF810B1002006B010BD0120A7
:103DD000FBE70000C4000020FDF754F9FFF79DFA4F
:103DE000FEF7DCFDFEF74AFEFEF768FEFEF7D2FEA8
:103DF000FEF706FFFEF73AFFFEF754FFFEF770FFEF
:103E000000F084F8FEF7AEFD00F092F8FEE7000047
:103E100030B587B003AD32200E210095CDE90110F9
:103E200001233B22D0211948FCF72EFF08B10021C5
:103E300027E0BDF80C00164C40BA6081A81CFFF7C3
:103E40006DFDA081281DFFF769FDE081BDF812001E
:103E5000642140BA00B248434FF4AA7190FBF1F0DC
:103E600000F64560E08205A8FFF758FD20820DF1BD
:103E70001600FFF753FD608206A8FFF74FFDA082F2
:103E80000121042000F0E4FE07B030BDC400002092
:103E9000A803002010B5EFF3058111B16FF0050400
:103EA00003E0002408B101F08BF8204610BD38B5BE
:103EB0000546EFF3058010B16FF005040CE0002417
:103EC00001F058FE291A0090002903DD684601F030
:103ED0009DF801E06FF00304204638BD10B501F0F5
:103EE0003BFE38B1022804D003480068012800D006
:103EF000002010BD032010BD94000020EFF30580CA
:103F000008B101F03DBE01F035BE0000EFF30580C1
:103F100010B16FF0050070470448016811B14FF00F
:103F2000FF3070470121016000207047940000209D
:103F300010B5EFF3058010B16FF0050010BD084813
:103F40000168012902D04FF0FF3010BD054A002161
:103F500082F8141D0221016001F028F9002010BD33
:103F6000940000200BE000E02DE9F0410D460146F1
:103F700021F0010001F001014FF00004EFF3058290
:103F80000AB1A41F16E048B100296FF001066FF0D6
:103F90000207294608D001F027FD07E06FF003046F
:103FA00008E035B1344605E001F062FC0128F8D1A3
:103FB00000E03C462046BDE8F08170B505464FF074
:103FC0000004EFF3058050BB0DB1686800E00020ED
:103FD000C10701D0012600E0002600071FD46DB103
:103FE000D5E9021021B1502819D31EB1042002E0F6
:103FF00020B114E0012001F0CCF905E00EB104205D
:1040000000E0012001F0BAF9040008D00DB12968E0
:1040100000E0002100F09EFF0EB144F001042046B4
:1040200070BD70B5014621F0010001F001014FF0B3
:104030000004EFF305820AB1A41F11E028B16FF06C
:10404000020529B101F059FB07E06FF0030407E016
:1040500000231A46194601F041FA012800D02C46E7
:10406000204670BD2DE9FF414FEA01034FF00005E6
:10407000EFF30581039549BB40B380271821002445
:104080004AB3166806B1344696691EB13146761EAB
:10409000382E02D21679F60703D0002004B0BDE80E
:1040A000F081566906B1B708D2F808C0BCF1000F1C
:1040B0000DD0D5685C2D18D312693AB136B18DE8B0
:1040C00006103A46214601F016FD03900DE0D66831
:1040D0005EB912694AB903AACDE90012BAB2214603
:1040E00001F0DCFC012800D003950398D6E700001E
:1040F000F8B52A4C054606212078294E08284AD2D0
:10410000DFE800F004080C11141E282CAA2D16D18B
:10411000012021E0552D3ED102201DE03570012DFA
:1041200039D1032018E07570042015E00020B57027
:10413000A070402D2FD80DB105200DE02170F8BDE5
:10414000A0783218401CD570C0B2A070B2788242FC
:10415000F4D9F8BDE57007202070F8BD30788DF8EF
:10416000000070788DF80100B0788DF802004FF6ED
:10417000FF7203216846FEF7B5FE0246B178F01CD7
:10418000FEF7B0FEE17841EA0521884203D1E168FB
:1041900009B10348884700F005F8F8BD0C0000207D
:1041A0005403002002480021017081707047000014
:1041B0000C0000202DE9F041134C0F460546E6683F
:1041C0002068001D00F0C8FD681C07D137B12168C8
:1041D000BDE8F0410D48091D00F00EBE20683544D1
:1041E000B5424560216805D2A06BBDE8F041091DCC
:1041F00000F0EABD606B091D00F0E6FDA06A854293
:1042000000D2A562BDE8F08144000020F80800203B
:104210002DE9F041054600F0FBFD2D4CA068401C47
:10422000A06020682B4F10B1606930B32BE025608F
:10423000A068012827D1002606EB860007EB800046
:1042400000F0B4FD761C382EF6D3234800F0AEFD06
:104250002148143000F0AAFD1F48283000F0A6FDC8
:104260001D483C3000F0A2FD1B48503000F09EFD80
:10427000194860631430A06305E02068E96AC06AE9
:10428000884200D82560606A401C60626864E86A01
:104290002169884200D9206100EB800007EB800093
:1042A000291D00F0A9FD00F0D3FD606900280CD0A5
:1042B0002068E96AC06A884207D208494FF08050F6
:1042C0000860BFF34F8FBFF36F8FBDE8F081000030
:1042D0004400002048040020A808002004ED00E06D
:1042E00038B500F095FD104C2068C8B90F4800F0B3
:1042F0005DFD0E48143000F059FD0C48E0601430AC
:1043000020610A4B0020F03B009003F15002102185
:104310000A2001F06CF8206010B105A100F01AFE2F
:10432000BDE8384000F094BD80000020FC0900206A
:10433000546D72510000000030B4026C0B46002A2C
:104340000BD0C1681144C1608468A14201D30168E7
:10435000C16030BC1846FBF783BF30BC70472DE905
:10436000F041856B174604460026026C82B1C7B146
:10437000E068FBF775FFE168206C091AE1602268CC
:10438000914202D2A168081AE060022F16D017E00D
:104390002068A8B9A06801F05FFC06460020A06074
:1043A0000EE06068FBF75CFF216C606808446060A9
:1043B000A168884204D32068606001E005B16D1EE9
:1043C0006D1CA5633046BDE8F08110B5044690F839
:1043D000590058B101280CD002280FD0502080F38A
:1043E0001188BFF34F8FBFF36F8FFEE7206B00F094
:1043F00043FD2046BDE8104000F03EBD10BD00006A
:1044000010484FF40051420706D0C01D0D4920F05E
:104410000700411AC1F500510B4A00230144C2E9CB
:1044200000030839183A21F0070111604B600B6056
:104430000B1AC0E9001393604FF0004053605061C5
:1044400070470000DC100020B0000020144E154C16
:10445000A6F29C474FF08058DFF84C9012E000BF66
:1044600000F0D6FCF068C568281D00F075FCA06857
:10447000401EA0606068401E606000F0E9FC2846B5
:10448000FFF7A3FF60680028EAD138680128F9D94E
:10449000C9F80080BFF34F8FBFF36F8FF2E70000C2
:1044A000E40800204400002004ED00E0002807D0CC
:1044B0000021816001600B460A46C16001F00EB820
:1044C0007047000070B51D46049C51B1C4F800202F
:1044D000C4E90F010121204600F0BCFF84F84C50D4
:1044E00070BD2460F4E700002DE9F05F8846DDE947
:1044F0000B941546834691009A460A9EA522206B8E
:10450000FBF725FF6FF00301206B01EB85010844E9
:1045100020F00707780707D0502080F31188BFF3F9
:104520004F8FBFF36F8FFEE70025B8F1000F0FD05C
:104530005FF00000221818F8001082F8341018F804
:10454000001011B1401C1028F4D384F8435001E04E
:1045500084F83450382E00D33726E662C4E9136558
:10456000201D00F02EFC04F1180000F02AFC24614C
:10457000C6F138006462A061656584F858505246FF
:104580005946384600F08EFA2060B9F1000F01D08C
:10459000C9F80040BDE8F09F30B5114900E0114670
:1045A0000A688242FBD34B685C18844203D140689E
:1045B00018444860084643681C18944209D1084CC6
:1045C000183C2468A24209D052681A4442600A6822
:1045D00012680260814200D0086030BD0460F9E7D3
:1045E000B000002070B5002441600B4D0061914285
:1045F00006D8D11A8269914206D2011D286907E0C6
:104600009A4203D2994201D3012403E0011DE868D4
:1046100000F0DAFB204670BD8000002010B5044693
:1046200000F0F6FBA06B28B15FF0000400F010FC76
:10463000204610BD0124F9E730B589B03C4D6EE04D
:104640000498002806DADDE90601059A90470498E7
:10465000002864DB069C606910B1201D00F07CFB23
:1046600003A800F0D7F8024604980A2857D2DFE8DA
:1046700000F00505052D334A05052D3394F8280073
:1046800040F0010084F828000599A069059B0144C9
:104690002046FFF7A7FF68B3216A2046884794F8B1
:1046A000280040073BD5002000900598A169002311
:1046B00042181946204601F015FCD8B9502080F365
:1046C0001188BFF34F8FBFF36F8FFEE714F8280FE9
:1046D00020F00100207022E094F8280040F0010052
:1046E00084F828000598A06128B181181346204657
:1046F000FFF778FF13E0502080F31188BFF34F8F4E
:10470000BFF36F8FFEE794F82800810703D420469B
:1047100000F0B2FB03E020F0010084F82800002242
:1047200004A9286801F008F8002889D109B030BD33
:10473000800000202DE9FC410F46054600F07AFD7F
:1047400001A800F067F80446019818B101F038FBA1
:10475000BDE8FC81254EAFB130690068D0B30027B9
:10476000291B3A46306800F009FC01F029FB0028BB
:10477000EED11F494FF080500860BFF34F8FBFF359
:104780006F8FE5E7A542EBD801F01AFBF0682746EA
:10479000C068C468201D00F0DFFA94F828004107C3
:1047A00019D5A0692B4641193A462046FFF71AFF52
:1047B000A8B100200346014600902A46204601F099
:1047C00091FB60B9502080F31188BFF34F8FBFF386
:1047D0006F8FFEE707E020F0010084F82800216ACF
:1047E00020468847B4E70127BAE700008000002090
:1047F00004ED00E00648416B096829B1416BC968C6
:10480000C9684968816270474FF0FF31FAE70000DC
:104810004400002070B5054601F0ACF9064E044690
:10482000B068844203D200F009F8012000E00020C3
:1048300028602046B46070BD80000020F8B5194D96
:1048400020E0C068C4680668201D00F085FA216A6F
:104850002046884794F82800400713D5A0693044C3
:10486000B04206D924616060211DE86800F0ACFA0E
:1048700008E000200346014600903246204601F041
:1048800031FB38B1E86801680029DAD12969C5E946
:104890000310F8BD502080F31188BFF34F8FBFF392
:1048A0006F8FFEE78000002008484068401C4FF0F2
:1048B000500080F3118804D0BFF34F8FBFF36F8F88
:1048C000FEE7BFF34F8FBFF36F8FFEE7B800002006
:1048D000074CE068016841B1C0680021D0F80000D1
:1048E000FFF728FFFFF7A8FEF3E701210020F7E715
:1048F000800000202DE9F041044600F089FA94F987
:10490000455004F1240609E0606A48B1304601F0E0
:104910001FFA08B100F0C8FB6D1E6DB2002DF3DC6C
:104920004FF0FF3684F8456000F092FA00F070FA1C
:1049300094F9445004F1100709E0206948B1384661
:1049400001F006FA08B100F0AFFB6D1E6DB2002D4C
:10495000F3DC84F84460BDE8F04100F079BA92B22B
:1049600000F015B830B50B78150A5C1C0C70C254F9
:104970000B785C1C0C70C5540B78150C5C1C0C700F
:10498000C554140E0A78531C0B70845430BD10B5F6
:104990000B785C1C0C70C254140A0A78531C0B7000
:1049A000845410BD10B50B785C1C0C70C25410BD43
:1049B0002DE9F0410546002700F03CFC324E3068FE
:1049C00008B9FFF71DFD706905424ED1C5B3083522
:1049D00068070ED005F00700C0F10800054468071D
:1049E00007D0502080F31188BFF34F8FBFF36F8F34
:1049F000FEE72DB37068854237D82348183001464A
:104A00000C6801E020460C466168A94202D2216888
:104A10000029F7D131688C4227D0076821680160EE
:104A200060680837411B10290FD96019420708D068
:104A3000502080F31188BFF34F8FBFF36F8FFEE7D5
:104A400013E041606560FFF7A7FD61687068401A78
:104A50007060B268904200D2B0607069014300207B
:104A6000C4E90001F068401CF06001F0A9F9780782
:104A700007D0502080F31188BFF34F8FBFF36F8FA3
:104A8000FEE73846BDE8F081980000200449086838
:104A900018B10868026D521C026508687047000072
:104AA0004400002010B5031F4FF080741C601B1FD2
:104AB00021F001011960191F024B0B6014394038B5
:104AC0000A6010BDA948000800B59FB000208DF80D
:104AD000400011A8FEF75EF9FBF74EFE024610A952
:104AE0006846FFF73FFF9DF8442010A96846FFF78E
:104AF00059FFBDF8462010A96846FFF748FF9DF80A
:104B0000482010A96846FFF74DFFBDF94A2010A9BB
:104B10006846FFF724FFBDF94C2010A96846FFF74F
:104B20001EFFBDF94E2010A96846FFF718FFBDF91A
:104B3000502010A96846FFF712FFBDF9602010A9A8
:104B40006846FFF70CFFBDF9622010A96846FFF721
:104B500006FF10A96846159AFFF704FF10A96846DA
:104B6000169AFFF7FFFEBDF8662010A96846FFF70A
:104B70000EFFBDF96C2010A96846FFF7F0FEBDF9E5
:104B8000682010A96846FFF7EAFEBDF86A2010A960
:104B90006846FFF7FCFEBDF96E2010A96846FFF7D6
:104BA000DEFEBDF9702010A96846FFF7D8FEBDF9FA
:104BB000722010A96846FFF7D2FEBDF9742010A933
:104BC0006846FFF7CCFEBDF9762010A96846FFF7CE
:104BD000C6FEBDF9782010A96846FFF7C0FEBDF8F3
:104BE000642010A96846FFF7D2FEFEF799F9024645
:104BF00010A96846FFF7B6FE9DF8522010A9684636
:104C0000FFF7D0FE9DF8532010A96846FFF7CAFEB3
:104C10009DF8402069468120FEF7B2F91FB000BD23
:104C200070B51546049A1C46002A0ADD4FF00102B1
:104C3000FBF79DFD002221462846BDE87040FBF7AA
:104C400096BD4FF00002F3DAFBF791FD0122F2E787
:104C5000034B1A8809B1024300E082431A8070476F
:104C6000A803002030B50246FF2031240FE000BF2A
:104C700012F8013B58400023050602D584EA4000A3
:104C800000E040005B1CDBB2C0B2082BF4D3491E2D
:104C9000C9B2EDD230BD000030B4441A11680F4DD6
:104CA00021446B42994201DD194602E0A94200DA33
:104CB0002946116096225043642204EB84031B01B1
:104CC00090FBF2F093FBF2F301EB410191FBF2F167
:104CD000184430BC0844FEF72EBE0000D08AFFFF07
:104CE0001C490A78022A0BD191F8242042B18A6922
:104CF000801AB0F52F7F03D9488840F00100488022
:104D0000888FC20710D0CA8F42F210739A4203D222
:104D10004A8842F0020206E042F630239A4203D962
:104D20004A8822F002024A80000709D5B1F94400FE
:104D300041F65832904203DB488840F00400488036
:104D40000020C86108624888002801D0032008704C
:104D50007047000080020020D0E9013201699A60AA
:104D6000D0E901235A604A68824201D182684A60D0
:104D7000002202610868401E086008687047000051
:104D8000034B036003F15C000860802010607047F3
:104D9000240A0020044B036003F15C0008604FF418
:104DA0008070106070470000800C002000F1080146
:104DB0004FF0FF32C0E90112C160016100210160C2
:104DC000704700210161704730B50B685A1C02D052
:104DD00000F1080202E0026904E0224654682568F6
:104DE0009D42FAD953684B6099608A6051600861AE
:104DF0000168491C016030BD42684A6093688B605D
:104E000093685960916008610168491C01607047AE
:104E1000502080F31188BFF34F8FBFF36F8F0A4983
:104E20004868401C486001280CD10848006810F010
:104E3000FF0F07D0502080F31188BFF34F8FBFF3CF
:104E40006F8FFEE770470000B800002004ED00E01F
:104E50000849486828B1401E486001D180F3118894
:104E60007047502080F31188BFF34F8FBFF36F8FCF
:104E7000FEE70000B800002070B500282AD0164DCB
:104E8000A0F1080460686969084207D1502080F3E6
:104E90001188BFF34F8FBFF36F8FFEE722683AB1DF
:104EA000502080F31188BFF34F8FBFF36F8FFEE761
:104EB0008843606000F0BEF9606869680844686013
:104EC0002046FFF769FB2869401C2861BDE8704057
:104ED00000F076BF70BD0000980000204FF0E02089
:104EE00000210161816105494FF47A720968B1FBC3
:104EF000F2F1491E41610721016170474000002025
:104F000010B5FBF789F9114910280ED300F1E02004
:104F100090F8F0030A78904207D2502080F311886D
:104F2000BFF34F8FBFF36F8FFEE7094800688968B2
:104F300000F4E060884207D9502080F31188BFF365
:104F40004F8FBFF36F8FFEE710BD0000B800002049
:104F50000CED00E010B5084B002200BF53F83240C2
:104F60001CB1521C082AF9D310BD43F8321003EBD0
:104F7000C201486010BD00000804002070B515464D
:104F80000E460446FFF744FF94F944100020491CE4
:104F900001D184F8440094F94510491C01D184F8EA
:104FA0004500FFF755FFA06B28B92A46314604F1AA
:104FB000240000F097F82046BDE87040FFF79ABC47
:104FC00010B5020014D00F48006B38B1502080F3A8
:104FD0001188BFF34F8FBFF36F8FFEE700F02AF900
:104FE00000211046FFF7E6F800F0EAFE002807D19E
:104FF00005494FF080500860BFF34F8FBFF36F8FAC
:1050000010BD00004400002004ED00E070B50D4626
:1050100004000BD095B11E4A106BB8B1502080F33C
:105020001188BFF34F8FBFF36F8FFEE7502080F3DF
:105030001188BFF34F8FBFF36F8FFEE7502080F3CF
:105040001188BFF34F8FBFF36F8FFEE700F0F2F8C8
:10505000D26823685919934204D98B420AD99142E4
:1050600002D807E08B42FAD9881A21600021FFF7A5
:10507000A1F800E0216000F0A3FE002807D1054957
:105080004FF080500860BFF34F8FBFF36F8F70BD3C
:105090004400002004ED00E002490A6A0260C96889
:1050A000416070474400002001490120C8617047F9
:1050B0004400002010B50C4650B109490968183168
:1050C000FFF782FE2046BDE810400121FFF772B8CD
:1050D000502080F31188BFF34F8FBFF36F8FFEE72F
:1050E0004400002070B514460D4668B10A490968AD
:1050F0001831FFF781FE0CB14FF0FF3521462846ED
:10510000BDE87040FFF756B8502080F31188BFF318
:105110004F8FBFF36F8FFEE74400002070B504008F
:105120003ED0226DA2B1E06C884200D30146E06A15
:10513000884235D0012A33D11A4D2A6894420FD1C2
:10514000502080F31188BFF34F8FBFF36F8FFEE7BE
:10515000502080F31188BFF34F8FBFF36F8FFEE7AE
:10516000E162A269002A02DBC1F13801A1610E4EA1
:1051700000EB8000616906EB8000814210D1201DA8
:10518000FFF7EAFDE06A2969884200D9286100EB4F
:10519000800006EB8000211DBDE87040FFF72CBEAB
:1051A00070BD0000440000204804002030B587B0E6
:1051B0000024039405AA04A903A80494FFF7E0FDC2
:1051C000DDE903010094CDE90110002315A1174882
:1051D000059A00F090FC164D0028E8621FD000F000
:1051E00051FE012809D0401C19D1502080F31188AC
:1051F000BFF34F8FBFF36F8FFEE7502080F311880E
:10520000BFF34F8FBFF36F8F4FF0FF30A8620120C5
:105210006861EC6007B0BDE8304000F045B807B009
:1052200030BD000049444C45000000004D440008DA
:10523000440000200248016B491C016370470000D4
:1052400044000020164810B5016B11B10121C16165
:1052500010BD0021C1610169124A01E0B9B1491EC6
:1052600001EB810352F82330002BF7D001EB8103CF
:1052700002EB830202F1080453685B685360A342A7
:1052800001D15B685360DA680260016110BD502093
:1052900080F31188BFF34F8FBFF36F8FFEE70000DD
:1052A00044000020480400201CB5264908780190DD
:1052B000FF20087008788DF800009DF800009DF828
:1052C000002000F0F000904207D0502080F31188B9
:1052D000BFF34F8FBFF36F8FFEE79DF800001A4CAE
:1052E00000F0500020700720A06005E09DF800202D
:1052F00052008DF80020401E9DF800201206F5D4C3
:10530000A060032807D0502080F31188BFF34F8F8F
:10531000BFF36F8FFEE74FF44070A06001980870F4
:105320000A48016841F470010160016841F0704170
:105330000160FFF7D3FD00206060FAF737FF00201F
:105340001CBD000000E400E0B800002020ED00E0FB
:1053500010B5502080F31188BFF34F8FBFF36F8FCC
:1053600000F016FC18B104494FF08050086000208E
:1053700080F3118810BD000004ED00E010B5024676
:105380000021012000F012F80446FFF78FF82046B4
:1053900010BD38B50B46002200901146012000F0E8
:1053A00026F80446FFF782F8204638BDF8B51746C0
:1053B0000E46050013D005FB06F05030FFF7F8FA53
:1053C00004000AD0002084F8460004F150023B4655
:1053D000314628460094FFF775F82046F8BD502066
:1053E00080F31188BFF34F8FBFF36F8FFEE738B59F
:1053F000049D18B153B1CAB181B120E0502080F3AF
:105400001188BFF34F8FBFF36F8FFEE7502080F3FB
:105410001188BFF34F8FBFF36F8FFEE7502080F3EB
:105420001188BFF34F8FBFF36F8FFEE739B1502064
:1054300080F31188BFF34F8FBFF36F8FFEE75024C7
:105440001C46012384F846302B460094FFF73AF8B7
:10545000204638BD70B50D46040025D0FFF7D8FCB6
:10546000D4E90F20216802FB0011A1600021A16393
:10547000216861600A46D4E90F01401E00FB01214A
:10548000E16021464FF0FF3001F8440F487004F10D
:1054900010008DB1FFF78AFC04F12400FFF786FCB1
:1054A000FFF7D6FC012070BD502080F31188BFF3B8
:1054B0004F8FBFF36F8FFEE721690029F0D000F016
:1054C00047FC0028ECD004494FF080500860BFF33F
:1054D0004F8FBFF36F8FE3E704ED00E02DE9FF4747
:1054E00082B01D468A464FF00008040003D0BAF18E
:1054F000000F08D011E0502080F31188BFF34F8FC8
:10550000BFF36F8FFEE7206C38B1502080F3118815
:10551000BFF34F8FBFF36F8FFEE7022D0AD1E06B11
:10552000012807D0502080F31188BFF34F8FBFF3BD
:105530006F8FFEE700F010FB3F4F4FF000094FF078
:10554000805648B9049838B1502080F31188BFF3D1
:105550004F8FBFF36F8FFEE7FFF75AFCA06BE16B35
:10556000884207D3022D05D00498D0B1B8F1000FBE
:105570001AD01EE02A4651462046FEF7F0FE616A28
:1055800019B104F1240000F0E3FB20B13E60BFF349
:105590004F8FBFF36F8FFFF75BFC012006B0BDE8B4
:1055A000F087FFF755FC22E06846FFF775FD4FF0E6
:1055B0000108FFF74DFCFFF73DFEFFF729FC94F9CA
:1055C0004400401C01D184F8449094F94500401CEB
:1055D00001D184F84590FFF73BFC04A9684600F030
:1055E00023FA30B12046FFF785F900F0E9FB0020EF
:1055F000D4E7FFF70DFCA06BE16B884213D1FFF7F6
:1056000027FC04F110000499FFF754FD2046FFF732
:1056100071F900F0D5FB00289ED13E60BFF34F8F9B
:10562000BFF36F8F98E7FFF713FC2046FFF762F98F
:1056300000F0C6FB90E7000004ED00E02DE9F04724
:105640001F4690468946040003D0B9F1000F08D0E8
:1056500011E0502080F31188BFF34F8FBFF36F8F9D
:10566000FEE7206C38B1502080F31188BFF34F8FD4
:10567000BFF36F8FFEE7022F0AD1E06B012807D03E
:10568000502080F31188BFF34F8FBFF36F8FFEE779
:10569000FFF736FC5020EFF3118680F31188BFF33B
:1056A0004F8FBFF36F8FA06BE16B884206D3022F41
:1056B00004D0002086F31188BDE8F08794F94550A6
:1056C000A06B3A4649462046FEF749FE681C04D0C6
:1056D0006D1C84F845500120ECE7606A0028FAD080
:1056E00004F1240000F034FB0028F4D0B8F1000FDE
:1056F000F1D00121C8F80010EDE710B5040009D081
:1057000000F024FAA168884214D1E068401EE060ED
:1057100008D00DE0502080F31188BFF34F8FBFF306
:105720006F8FFEE700231A4619462046FFF7D6FE84
:10573000012010BD002010BD2DE9F747002683B0E1
:105740008A46040003D0BAF1000F08D011E05020BF
:1057500080F31188BFF34F8FBFF36F8FFEE7206C8C
:1057600038B1502080F31188BFF34F8FBFF36F8F94
:10577000FEE700F0F1F9DFF8F4804FF000094FF098
:10578000805748B9059838B1502080F31188BFF38D
:105790004F8FBFF36F8FFEE7FFF73AFBA56BC5B1E5
:1057A00051462046FEF7C8FD6D1EA563206950B125
:1057B00004F1100000F0CCFA28B1C8F80070BFF373
:1057C0004F8FBFF36F8FFFF743FB012006B0BDE89B
:1057D000F087059808B11EB106E0FFF739FB27E016
:1057E0006846FFF759FC0126FFF732FBFFF722FD61
:1057F000FFF70EFB94F94400401C01D184F844905B
:1058000094F94500401C01D184F84590FFF720FB36
:1058100005A9684600F008F9002820460AD0FFF7DD
:1058200069F800F0CDFA2046FEF7F8FE0028B3D064
:105830000020CBE7FEF7F2FE90B104F124000599B9
:10584000FFF738FC2046FFF755F800F0B9FA0028BA
:10585000A2D1C8F80070BFF34F8FBFF36F8F9BE7E3
:105860002046FFF747F800F0ABFA95E704ED00E0BB
:105870002DE9F343002683B00400354609D0206C9F
:1058800078B1502080F31188BFF34F8FBFF36F8F33
:10589000FEE7502080F31188BFF34F8FBFF36F8F67
:1058A000FEE700F059F9DFF83C814FF000094FF0B6
:1058B000805748B9049838B1502080F31188BFF35D
:1058C0004F8FBFF36F8FFEE7FFF7A2FAA06BC8B14F
:1058D000401EA063206810B9FFF7D8F8A0602069C7
:1058E00050B104F1100000F033FA28B1C8F800708C
:1058F000BFF34F8FBFF36F8FFFF7AAFA012005B0F8
:10590000BDE8F083049808B166B10FE03DB15020C6
:1059100080F31188BFF34F8FBFF36F8FFEE7FFF760
:1059200097FA5DE06846FFF7B7FB0126FFF790FAAC
:10593000FFF780FCFFF76CFA94F94400401C01D19A
:1059400084F8449094F94500401C01D184F84590B6
:10595000FFF77EFA04A9684600F066F800282046A2
:1059600012D0FEF7C7FF00F02BFA2046FEF756FED6
:105970000028A9D09DB3FFF74BFA606A50B3206BA3
:105980000068C0F1380126E0FEF748FEE0B120686B
:1059900038B9FFF73DFAA06800F09EF90546FFF719
:1059A00057FA04F124000499FFF784FB2046FEF720
:1059B000A1FF00F005FA002886D1C8F80070BFF3F7
:1059C0004F8FBFF36F8F7FE72046FEF793FF00F006
:1059D000F7F979E70021A068FFF7A0FB9FE7FFE751
:1059E00000208CE704ED00E070B50D46040009D0FE
:1059F00000F0ACF8A16888420CD1E068401CE0607F
:105A0000012070BD502080F31188BFF34F8FBFF38A
:105A10006F8FFEE729462046FFF72AFF0028F0D0C7
:105A2000E168491CE16070BD2DE9F0410C460500BC
:105A300011D0C4B1FFF7ECF9174BDA686E68206833
:105A4000911B471C17D02F681B6A9F4219D09642A2
:105A500017D8012410E0502080F31188BFF34F8F36
:105A6000BFF36F8FFEE7502080F31188BFF34F8F95
:105A7000BFF36F8FFEE70024FFF7EAF92046BDE889
:105A8000F081884205D9401A20602846FFF704FBC0
:105A9000F1E700202060DCE7440000202DE9FF5FF3
:105AA0008346DDE90E87994616468A469000FEF742
:105AB0007FFF05001CD05C20FEF77AFF040014D0A5
:105AC0000020256384F85900CDE90240CDE9008724
:105AD0004B46324651465846FEF706FD2046FEF735
